:020000040000FA
:0600000002011D021ECFEB
:03002B0002261298
:030033000225F4AF
:03005300021F4247
:03006B000225CBA0
:10008300021D83E5C754F84401F5C7790122000036
:100093000080FB120086B90003020107E47921788E
:1000A30008B800028004F709D8FCE479297802B87B
:1000B30000028004F709D8FCE49002817847790AAA
:1000C3008002F0A3D8FCD9FA781A90014D7A01BACC
:1000D30000028007E493A3F608DAF9900BC7AA821B
:1000E300AB8390014E780579048015E493A3AC8229
:1000F300AD838A828B83F0A3AA82AB838C828D83A8
:10010300D8E9D9E77582C77583B2740312012F75D5
:100113008291758300740012012F75D00075813FA1
:10012300751881751902759F00020096C09FF59F8F
:10013300E473D09F22D083D082C09FE493C0E07445
:100143000193C0E0740293F59F2201FF0000B40005
:100153000028002800283075A000A000A000A000FF
:1001630000080008E001F00010001000100010006B
:100173001000100050005000500010001000D00775
:100183000000000000000F000100050030750700AB
:100193001000010081FF0000FFB006CE06B606FF87
:1001A30002020208025000A0000000E803021D82C0
:1001B3000100000382020B820100001C0C02218259
:1001C300010000B202020B820100001D0C02138227
:1001D300010000C802020B820100001E0C021582FE
:1001E300010000CA02020B820100001F0C021782E9
:1001F300080000CB02020B82010000200C021982CE
:10020300010000210CFFFF0100FF20021D820100FD
:10021300000082020B82010000860C021B82000098
:10022300000000020F820300005A03F80CF80CF8D8
:100233000CF80CF80CF80CF80CF80CF80CF80CF89B
:100243000CF80CF80C860F9E0F800FFFFF020202C2
:10025300020202020202010D0000001001021D82CF
:100263000100000682020B82010000C90C023182E8
:10027300010000BA07020B82010000CA0C022F82A0
:100283000100001581020B82010000CB0C022D82BC
:100293000100000781020B82010000CC0C022B82BB
:1002A300010000A580020B82010000CD0C0229820F
:1002B3000100008180020B82010000CE0C02278224
:1002C300010000B780020B82010000CF0C024382C1
:1002D3000100009380020B82010000D00C022582F2
:1002E300010000F980020B82010000D10C0223827D
:1002F300010000D20C01E803053F10FF0001307537
:1003030003020106000000000000000000000000DE
:1003130000000000000000000000000000000000DA
:10032300FFFF0600800CE8031E140953696D706C0F
:1003330065424C455065726970686572616C05125F
:1003430028002800020A000201060302F0FF536995
:100353006D706C6520424C4520506572697068650C
:1003630072616CEE130000F4130A0064000A436820
:100373006172616374657269737469632031000229
:10038300436861726163746572697374696320326F
:1003930000084368617261637465726973746963A9
:1003A300203300104368617261637465726973740A
:1003B3006963203400024368617261637465726922
:1003C30073746963203500021D82010000FD810200
:1003D3000B82010000E90D023982030000B80B0211
:1003E3000D82010000EA0D020B82010000FB0D02E9
:1003F3003B82010000B90B020D82010000FC0D02DB
:100403000B820100000D0E023D82020000BA0B02B6
:100413000D820100000E0E020B820100001F0E026E
:100423003F82000000BB0B020F82030000BC0B02E3
:100433000D82010000200E020B82010000310E022A
:100443004182040000C20B020D82010000320E1231
:10045300013811AC0312013827AC0312013854AC34
:100463000312013884AC03120138A5AC031201381E
:10047300D6AC03120138EDAC0312013893A3031277
:100483000138AAA303120138D9A30312013812A415
:10049300031201383AA40312013868A40312013885
:1004A3007FA40312013896A403120138ACA40312EB
:1004B3000138D3A403120138E6A403120138FCA4C3
:1004C300031201380FA50312013834A503120138B2
:1004D300E2A502120138E1A6021201380BA70212AB
:1004E300013860A70212013881A7021201389AA7C6
:1004F300021201389CA702120138BDA7021201386B
:10050300C0A8021201387DA9021201384AAA0212B8
:100513000138BDAA02120138C0AA0212013846AB43
:100523000212013889AB02120138C0AB0212013842
:1005330046AC0212013818AD021201381BAD02128B
:10054300013879AD0212013891AD021201380BAEB8
:10055300021201380EAE0212013811AE0212013836
:1005630014AE02120138BBAE02120138CEAE021233
:100573000138E6AE0212013816AF0212013823AF7A
:100583000212013826AF0212013892AF021201386B
:1005930080B00212013836B10212013871F302122F
:1005A300013899F302120138C7F302120138FEF33E
:1005B3000212013866F402120138AFF40212013854
:1005C300FAF40212013838F50212013875F50212F5
:1005D3000138A3F5021201384AF60212013854F623
:1005E3000212013861F60212013894F60212013840
:1005F30056F70212013862F7021201387AF7021233
:10060300013884F702120138CDAF03120138DBAF92
:1006130003120138F3AF031201380BB00312013890
:10062300CEB8011201386CB901120138E4B90112D4
:100633000138F9BA0112013833BB01120138DCBBAE
:1006430001120138B1BC0112013815BE0112013883
:100653006CBE01120138F3BE01120138DABF011278
:10066300013827C001120138B5C001120138D9C0C1
:1006730001120138AEC201120138EFC20112013872
:1006830011C30112013892C3011201387CC4011253
:10069300013842C501120138AFDC0212013881DD95
:1006A300021201382ADE021201386DDE021201380D
:1006B300FADE0212013886DF0212013867E0021205
:1006C300013896E00212013892E102120138DAE1B0
:1006D30002120138DCE20212013820E3021201386F
:1006E30046E30212013873FF011201388D8C0312A5
:1006F3000138A38C03120138C98C03120138F18D20
:1007030003120138FB8D03120138548F0312013891
:1007130054900312013842E90212013877EA0212B7
:100723000138AAEA02120138F4EA02120138B2ECE3
:1007330002120138F5D5011201387ED601120138B3
:10074300BFD601120138C3D8011201387ADA011277
:100753000138F6DA01120138D3DB0112013801DF67
:10076300011201389FDF01120138FCE00112013848
:1007730085E201120138BCE20112013861E3011282
:100783000138936E00120138F66E001201383B7087
:10079300001201384B70001201386E7000120138DC
:1007A300B970001201385E710012013854720012E0
:1007B30001381E7300120138967400120138D87480
:1007C30000120138767500120138C3750012013822
:1007D300E97500120138D77700120138DC7700126F
:1007E3000138BD7900120138117A00120138737A89
:1007F300001201389B7A001201383F7B0012013846
:10080300017C00120138327C00120138357C001261
:1008130001387D7C00120138BF7C00120138267D2F
:1008230000120138419D03120138549D031201380F
:100833005D9D03120138769D03120138C19D031299
:1008430001389C9E031201382B9F03120138769FB7
:1008530003120138382600120138442600120138E9
:100863007D2600120138C2260012013879270012B2
:100873000138FF270012013864280012013890283C
:1008830000120138C92800120138DD2A001201388C
:10089300B92C00120138A42E00120138DB2F0012EC
:1008A30001383B32001201382733001201386D340E
:1008B300001201387A3500120138973500120138D9
:1008C300CF3500120138E9350012013851360012D4
:1008D3000138EB3A001201388C3B00120138DD3B42
:1008E30000120138043C00120138523C0012013856
:1008F300703C00120138C43C001201389D3D0012C7
:100903000138243F00120138AC3F0012013868EE71
:100913000212013872EE021201383DEF0212013861
:1009230058EF021201387EEF02120138C2EF0212B1
:100933000138FAEF0212013823F0021201389CF059
:1009430002120138B1F002120138C6F00212013866
:10095300FDF00212013811F10212013842F10212C4
:1009630001387CF102120138A8F102120138E0F1DA
:10097300021201385DF202120138B1F2021201389B
:10098300FAF20212013824F30212013849F3021277
:100993000138A188031201386B89031201384E8A8A
:1009A30003120138C48A03120138068B031201387B
:1009B300338C03120138EF8C02120138188D0212A6
:1009C3000138318D02120138768E02120138548FAC
:1009D30002120138738F021201380090021201389B
:1009E3004390021201389091021201382F920212A1
:1009F3000138AE9402120138459502120138199656
:100A030002120138FB96021201386798021201386C
:100A1300FA9802120138EFA90312013858AA0312F7
:100A23000138ACAA03120138D3AA0312013800809B
:100A3300031201386D8003120138B88003120138A4
:100A4300AD8103120138A982031201389383031283
:100A53000138BFBC0212013801BD02120138DBBDEF
:100A630002120138B4BE02120138AFBF02120138BC
:100A73008EC002120138FAC002120138C1C102123B
:100A830001382CC20212013893C202120138BEC2CD
:100A9300021201382FC302120138C2C302120138F5
:100AA3002BC40212013840C40212013888C4021256
:100AB3000138A1C40212013806C50212013809C562
:100AC30002120138BAFC02120138E2FC02120138A8
:100AD30020FD02120138DEFD0212013849FE021226
:100AE300013865FE021201388DFE02120138BDFE87
:100AF30002120138CCFE0212013846FF02120138FD
:100B03006CFF02120138D7A901120138B4AB0112EC
:100B13000138AFAD0112013882AE01120138CDAEFA
:100B23000112013818AF011201382AAF011201383E
:100B33006AAF011201389FAF01120138EBAF011206
:100B430001381AB0011201383DB0011201388AB0E0
:100B53000112013813B10112013820B30112013817
:100B63000BB5011201384EB501120138B3B60112AB
:100B73000138F4B60112013867B701120138B3B76F
:100B830001120138D4B701120138A4B80112013897
:100B93007199021201389C990212013883A0021242
:100BA3000138A7A20212013862A402120138BFA5BC
:100BB30002120138134000120138AA400012013812
:100BC300D740001201381D41001201385C42001267
:100BD3000138804200120138174400120138914451
:100BE30000120138AC4400120138214500120138CB
:100BF300504600120138AB4700120138AD480012CD
:100C030001380A4A00120138234A00120138804A87
:100C130000120138624B00120138954B0012013863
:100C2300054C001201387F4C00120138CE4C0012E3
:100C330001389A4D001201389F4E001201387E4F41
:100C430000120138095000120138775000120138A0
:100C5300EB5000120138145100120138D351001225
:100C630001384D53001201386A5300120138895379
:100C7300001201381A54001201383F54001201388F
:100C8300675400120138E254001201383C55001237
:100C930001389056001201384D5700120138205880
:100CA3000012013815E40112013865E4011201381C
:100CB30071E4011201384EE5011201387EE501129B
:100CC3000138B6E50112013835E6011201386DE647
:100CD30001120138BFE601120138FCE601120138A6
:100CE30021E9011201384DEB0112013848ED0112DF
:100CF300013823EF01120138FCFF01120138269657
:100D0300011201387096011201384F9C011201380B
:100D1300D09D011201382FA4011201382AA5011216
:100D2300013867A5011201388AA501120138CCA543
:100D330001120138D5A501120138DFA501120138CE
:100D4300CBA601120138BFA7011201384E58001279
:100D53000138C66200120138CC6200120138D8692A
:100D6300001201385E9003120138F4900312013827
:100D73000A9103120138849103120138DA910312A4
:100D83000138189203120138759203120138F29256
:100D930003120138FB92031201380793031201383F
:100DA3001A93031201385693031201386C930312FA
:100DB3000138CB930312013855840312013862843E
:100DC300031201387C8403120138BB8403120138F7
:100DD300F984031201385E85031201387385031207
:100DE30001387E85031201388B8503120138A285F1
:100DF30003120138B08503120138BB850312013891
:100E0300C78503120138D68503120138E185031221
:100E13000138048603120138AD8603120138BD86FA
:100E230003120138D78603120138F48603120138FE
:100E33001087031201383587031201383F870312E5
:100E43000138538703120138728703120138D3879D
:100E530003120138D98703120138DF8703120138DF
:100E6300E58703120138F18703120138248803123E
:100E73000138E9F1011201386BF20112013814F360
:100E8300011201385CF4011201386AF601120138CB
:100E930050F70112013885F701120138A7F7011243
:100EA300013850F80112013820FA0112013849FAC9
:100EB30001120138C1FA01120138F3FA01120138A3
:100EC30000FB011201384BFB011201386FFB0112C9
:100ED3000138C0FD01120138CAFE0112013826FF94
:100EE3000112013877C70112013888C8011201388D
:100EF3006CC90112013876C90112013898C901126F
:100F03000138A4C90112013848CB0112013875CB4D
:100F1300011201388BCC01120138E0CC01120138E7
:100F23002FCE0112013804CF0112013860CF011214
:100F33000138CBCF0112013800D00112013843D060
:100F4300011201380DD30112013825D301120138E2
:100F5300B6D301120138C4D30112013811D40112DE
:100F630001381FD4011201388BD40112013806D580
:100F7300011201385DD501120138A1B10212013805
:100F8300C3B102120138D4B30212013893B602126C
:100F93000138BDB7021201387BB80212013867B9B4
:100FA30002120138DAA103120138FFA1031201383A
:100FB30075A20312013892D5021201389BD5021291
:100FC3000138A4D5021201387CD6021201382DD87B
:100FD300021201385DD80212013888D80212013892
:100FE300B8D802120138E3D80212013817D9021215
:100FF300013843D90212013886D902120138B1D916
:1010030002120138F8D9021201384DDA02120138FE
:101013008FDA02120138E9DA0212013814DB021204
:10102300013863DB0212013893DB02120138BEDBA5
:1010330002120138ECDB021201380FDC0212013814
:10104300EBB10312013817B20312013844B2031291
:1010530001384EB2031201385EB203120138BBE30A
:1010630002120138C5E30212013806E40212013804
:101073004FE40212013889E402120138DFE402125C
:10108300013800E50212013809E5021201385DE575
:101093000212013886E50212013890E50212013886
:1010A300FEE5021201388EE602120138E9E6021269
:1010B300013817E7021201389FE702120138DEE711
:1010C3000212013813E80212013825E8021201382E
:1010D30044E8021201384DE80212013814E9021201
:1010E300013804AD03120138F07D00120138267E69
:1010F300001201385A7E00120138A77F001201380E
:1011030055B1031201386BB10312013875B10312E3
:101113000138BFB10312013868B20312013819F85C
:10112300021201382CF802120138EDF802120138CC
:101133002CF90212013849F90212013882F902121C
:101143000138CFF90212013801FA0212013838FAD4
:101153000212013841FC02120138ADFC02120138BF
:10116300FBAD031201381EAE031201384DAE03125C
:10117300013865AE03120138A7AE03120138859713
:1011830003120138AA9703120138D49703120138C6
:101193001FB303120138468201120138248401125D
:1011A3000138C385011201386E8601120138EE86BB
:1011B300011201387387011201389C87011201382B
:1011C300778B01120138EE8B01120138058D011264
:1011D30001383F8D01120138808D01120138C78E0D
:1011E300011201381D8F01120138668F0112013877
:1011F300D58F01120138419001120138729001120A
:1012030001388A9001120138A39101120138B39178
:1012130001120138699301120138809301120138D8
:10122300B29301120138549501120138E895011265
:101233000138A4B003120138B5B003120138B4FF6A
:1012430002120138F3FF02120138C0B3031201384E
:10125300F0AE0312013800AF0312013815AF0312C9
:101263000138C7AF0312013804AB0312013889AB4D
:1012730003120138EDAB0312013846A503120138FE
:101283006FA503120138D5A503120138F5A5031282
:10129300013846A603120138A1A603120138DBA6C2
:1012A30003120138DEA60312013880A803120138A5
:1012B300ADA803120138C2A8031201383BA90312D7
:1012C30001385AA9031201387DA903120138BAA9BA
:1012D30003120138E17F00120138F17F0012013857
:1012E300F47F00120138F87F00120138A09F031227
:1012F300013830A10312013891A103120138D7A19B
:1013030003120138E8A6031201383AA70312013881
:10131300ADA7031201381AA803120138699A031200
:101323000138939A03120138629B031201383E9CE1
:1013330003120138CF9C031201382DC50212013864
:10134300F9C5021201383AC60212013874C60212F4
:101353000138D2C60212013826C70212013884C7E7
:10136300021201381AC80212013822C902120138C6
:10137300ACCA021201384ACB02120138B1CB0212B5
:101383000138C4CB02120138B8CC0212013801CDA6
:10139300021201380080021201383283021201382E
:1013A300C384021201381A850212013837850212EA
:1013B3000138B785021201383387021201380288D7
:1013C300021201386F8B02120138598C0212013854
:1013D30063CD02120138F2CF021201380AD1021290
:1013E300013878D10212013888D202120138F0D3C1
:1013F300021201385DD502120138FB930312013842
:101403004094031201385D940312013813950312BB
:1014130001386695031201383696031201384C974A
:101423000312013875B303120138A2B303E06670E7
:101433001008A3E066700A08A3E066700408A3E03E
:101443006622C3E7960809E7960809E7960809E7BD
:101453009622C3E09608A3E09608A3E09608A3E0CB
:101463009622C008C3E096F50808A3E09642080850
:10147300A3E096420808A3E09645087001D3D0087C
:1014830022080808EAC0E0EBC0E086F0E7A4FA18F7
:101493000986F0E7A42AFA180986F0E7A42AFA18BD
:1014A3000986F0E7A42AFA1986F0E7A4FBE5F02AF7
:1014B300FA190886F0E7A42BFBE5F03AFA19088637
:1014C300F0E7A42BFBE5F03AFA18180986F0E7A435
:1014D300C5F02BFBE43AFA1908E7C5F0C6A426F6D3
:1014E300E5F03BFBE43AFA1886F0E7A4F6E5F008EA
:1014F30026F6E43B08F6E43A08F6D0E0FBD0E0FA3F
:1015030022E4CFC0E0E4CEC0E0E4CDC0E0E4CCC050
:10151300E075F020C3E633F608E633F608E633F663
:1015230008E633F6181818EC33FCED33FDEE33FE02
:10153300EF33FFC3EC9709ED9709EE9709EF97197E
:101543001919400FFFEC97FC09ED97FD09EE97FE83
:10155300191906D5F0BEECF709EDF709EEF709EF17
:10156300F7191919D0E0FCD0E0FDD0E0FED0E0FF80
:10157300226016080808C6C313C618C613C618C6C1
:1015830013C618C613C6D5E0EA2270090808082254
:101593006016181818C6C333C608C633C608C63340
:1015A300C608C633C6D5E0EA22E627F60809E637B9
:1015B300F60809E637F60809E637F622E026F608C4
:1015C300A3E036F608A3E036F608A3E036F622E0F9
:1015D30026F008A3E036F008A3E036F008A3E036CF
:1015E300F022C3E697F60809E697F60809E697F6A8
:1015F3000809E697F622C3E096F008A3E096F00800
:10160300A3E096F008A3E096F022E056F608A3E0E4
:1016130056F608A3E056F608A3E056F622E056F085
:1016230008A3E056F008A3E056F008A3E056F02222
:10163300E0F608A3E0F608A3E0F608A3E0F622E646
:10164300F008A3E6F008A3E6F008A3E6F022E0FA28
:10165300A3E0FBA3E0FCA3E0FD22EAF0A3EBF0A3ED
:10166300ECF0A3EDF022CAC0E0E6F0A308DAFAD06A
:10167300E0FA22CAC0E0E0A3C582CCC582C583CD0F
:10168300C583F0A3C582CCC582C583CDC583DAE605
:10169300D0E0CA22C3E498F8E499F91216D8802658
:1016A300C3E49AFAE49BFBE920E7E91216D8E4982D
:1016B300F8E499F922C3E498F8E499F91216D8E406
:1016C30098F8E499F9C3E49AFAE49BFB22EB20E748
:1016D300CFE920E7E0B90010BB0008E88AF084F8FE
:1016E300AAF022E4FBC8FA22EB70227B10C833C8AD
:1016F300C933C9335007C39AC3DBF280069A50013A
:101703002ADBEAC833F4C8C933F4C9FA2275F008EE
:10171300E4C833C8C933C933C99AC99B5004C92A19
:10172300C93BD5F0ECFBC833F4C8E4C9FA22600D19
:1017330008C6A2E713C618C613C6D5E0F322600C89
:1017430008C6C313C618C613C6D5E0F42270042214
:10175300600D18C6C333C608C633C6D5E0F41822D5
:10176300251810AF08F518400215198008F5184020
:10177300021519D2AF22C0D0251810AF08F51850A2
:101783000205198008F51850020519D2AFD0D022EE
:101793002518F58210AF08F518400215198008F5D1
:1017A3001840021519D2AF851983222518F582E452
:1017B3003519F58322E4732518C582C0E0E5193491
:1017C300FFC583C0E0E518C3958224F810AF0885F0
:1017D30083198582188008858319858218D2AFCE34
:1017E300F0A3E520F0A37808E608F0A3DEFAEFF013
:1017F300A3E58124FAF8E608F0A3E608F0A3E608D7
:10180300F0A30808E608F0A3E608F0A31581158104
:10181300D0E0FED0E0F8158115811581E8C0E0EE37
:10182300C0E0222518C582C0E0E51934FFC583C096
:10183300E0E518C3958224F910AF088583198582E2
:10184300188008858319858218D2AFCEF0A3E520CE
:10185300F0A37808E608F0A3DEFAEFF0A3E581240D
:10186300FBF8E608F0A3E608F0A30808E608F0A3EF
:10187300E608F0A315811581D0E0FED0E0F81581CC
:101883001581E8C0E0EEC0E022851983851882E067
:10189300A3FEE0A3F5207808E0A3F608DFFAE0A3AF
:1018A300FFE0A3C0E0E0A3C0E0E0A3C0E0E0A3C08A
:1018B300E0E0A3C0E010AF08858218858319800893
:1018C300858218858319D2AFD083D08202013585F2
:1018D3001983851882E0A3FEE0A3F5207808E0A32E
:1018E300F608DFFAE0A3FFE0A3C0E0E0A3C0E0E076
:1018F300A3C0E0E0A3C0E010AF0885821885831978
:101903008008858218858319D2AFD083D08222C004
:10191300D02518C582C0E0E51934FFC583C0E0E5D2
:1019230018C3958224F310AF088583198582188024
:1019330008858319858218D2AFC8F0A3E9F0A3EA1A
:10194300F0A3EBF0A37908E709F0A3D8FAECF0A32E
:10195300EDF0A3EEF0A3EFF0A3D0E0F0A3D0E0F01E
:10196300A3D0E0F0A3E520F0A3E5F0F0A3228519CE
:1019730083851882E0C0E0A3E0F9A3E0FAA3E0FBCB
:10198300A37808E0F608A3DFFAE0FCA3E0FDA3E0F8
:10199300FEA3E0FFA3E0C0E0A3E0C0E0A3E0F5D036
:1019A300A3E0F520A3E0A3F5F010AF088583198524
:1019B30082188008858319858218D2AFD082D0839C
:1019C300D0E0F8D0E032740480067402800274011F
:1019D300C0E0F404121793D0E01216692274048055
:1019E3000474028000CCC0E0EDC0E0E518C39CCCD9
:1019F300AD1950011D10AF068C188D1980068C1877
:101A03008D19D2AF121676D0E0FDD0E0FC22D08340
:101A1300D082E9C0E0E493A3C386F0C5F095F0F962
:101A230008E493A386F0C5F095F0700BE493A3C389
:101A3300994005E9048002A3E475F002A42582F528
:101A430082E5F03583F583D0E0F9E493A3C0E0E4C5
:101A530093C0E022D083D082ECC0E0EDC0E0E493F9
:101A6300A3FCE493A3FDED4C600D121AA3EC24FF39
:101A7300FCED34FFFD80EFE493A3FCE493A3FDEDC1
:101A83004C600D121AE2EC24FFFCED34FFFD80EFF5
:101A9300D0E0FDD0E0FCE493A3C0E0E493C0E022F7
:101AA300C0E0C3E49396087401939618400FE4933F
:101AB30066700808740193661870007019A3A3C3B5
:101AC300E49396087401939618A3A3400DD0E0D035
:101AD300E0D0E0021A93A3A3A3A3A3A3D0E022C060
:101AE300E0C0F088F0E49366700808740193661808
:101AF3007000A8F0A3A3700BD0F0D0E0D0E0D0E04A
:0A1B0300021A93A3A3D0F0D0E02251
:101B100074F5121826EAFEEBFFEE2434F8EF3400D9
:101B2000F988088909EE2435F582EF3400F583E061
:101B3000F8EE2437F582EF3400F583E0F50AEC8502
:101B40000AF0A4FCAAF0850AF0EDA42AFDE82CF81E
:101B5000E43DF97A257B001216D8EA8508828509CA
:101B600083F05407F87401B800028004C333D8FC32
:101B7000C0E0E0131313541FF8EE28F8EF3400F917
:101B8000E8245DF582E93400F583D0E0F8E05860A0
:101B900008EE2434F582EF801EEE2436F582EF3411
:101BA00000F583E0F5F0EA84A8F0EE28F8EF3400C1
:101BB000F9E82438F582E93400F583E0F97F04027E
:101BC00018D274F5121826EAFEEBFFEE2434F582E3
:101BD000EF3400F583E0C0E0EE2435F582EF340009
:101BE000F583D0E0F08E828F83A3A3A3A3A3A3A346
:101BF000C082C0838E828F83A3A3A3A3A3E0F8A394
:101C0000E0F9D083D082E0C398F508A3E099F50904
:101C1000EE2480F582EF3400F583E064017069EE14
:101C20002481F582EF3400F583E0F8A3E0F98E8299
:101C30008F83A3A3A3A3A3A3A3E0FCA3E0FD8E82B1
:101C40008F83A3A3A3A3A3E0FAA3E0FBC3EA9CEBC7
:101C50009D5027C3EC98ED99402EC3EA98EB99501C
:101C6000277C3F7D05EEFAEFFB120C56EE2480F543
:101C700082EF3400F583E4F0800EC3EA98EB9940DC
:101C8000E0C3EC98ED9950D9EE2434F8EF3400F924
:101C9000E8FCE9FDEE2435F582EF3400F583E0F849
:101CA000EE2437F582EF3400F583E0F50AE5088588
:101CB0000AF0A4F508AAF0850AF0E509A42AF509B6
:101CC000E82508F8E43509F97A257B001216D8EAE8
:101CD0008C828D83F05407F87401B800028004C32D
:101CE00033D8FCC0E0E0131313541FF8EE28F8EFCC
:101CF0003400F9E8245DF582E93400F583D0E0F89A
:101D0000E0586008EE2434F582EF801EEE2436F5AC
:101D100082EF3400F583E0F5F0EA84A8F0EE28F8CD
:101D2000EF3400F9E82438F582E93400F583E0F96E
:101D30001225BD021BBDC082C08385188285198310
:101D4000E0F8A3E0F9C3EA9CEB9D5012C3EC98EDD8
:101D5000994019C3EA98EB99501279018010C3EAAF
:101D600098EB9940F5C3EC98ED9950EE7900D0834B
:101D7000D08222EAC39CFAEB9DFB22008521878555
:101D800022C622C0E0C0D0E8C0E0E9C0E0EAC0E07E
:101D9000EBC0E0ECC0E0EDC0E0C008C009C00AC084
:101DA0000BC082C083C0F0759B00906182E0A2E608
:101DB0004003021E61E591A2E64003021E61759197
:101DC000BF900404E064057008120D8E120D9A8015
:101DD00003120D94752100120DF4E9900405F079B9
:101DE00000120DE8120BC67A017B00900403E0F9A3
:101DF0001210B8907803E064426003021EAA9005B6
:101E0000A1E014F06003021EAAC2AF121E0E0078F9
:101E10002AD0E0F618D0E0F6E59F5407F970059057
:101E200081A980039081557808121633E9C4C0E077
:101E30007829E65508F50808E65509F509740B7880
:101E400008121741D0E02508F8906270E0A2E74040
:101E5000F8E8C333906272F0906270E0D2E0F080F4
:101E600049E0A2E55024E591A2E5501E7591DF906E
:101E70000404E0640D7013900426E004F0642870FC
:101E800002E4F07A00E0F9120E66906181E0A2E3CC
:101E90005009E5E9A2E3500375E9F7A3E0A2E75092
:101EA00009E591A2E7500375917FD0F0D083D082ED
:101EB000D00BD00AD009D008D0E0FDD0E0FCD0E0B3
:101EC000FBD0E0FAD0E0F9D0E0F8D0D0D0E032C0DA
:101ED000E0C0D0C082C083906183E0A2E05009E5F9
:101EE000BFA2E0500375BFFEE0A2E15009E5BFA22A
:101EF000E1500375BFFDE0A2E25009E5BFA2E25048
:101F00000375BFFBE0A2E35009E5BFA2E3500375F0
:101F1000BFF7E0A2E45009E5BFA2E4500375BFEFAC
:101F2000E0A2E55009E5BFA2E5500375BFDFE0A2DE
:101F3000E65009E5BFA2E6500375BFBFD083D0824B
:101F40008088C0E0C0D0E8C0E0E9C0E0EAC0E0EBD3
:101F5000C0E0ECC0E0EDC0E0C0F0E5A7A2E6500FA5
:101F6000E5A1A2E6500953A7BF75A1BF121FA7E5BF
:101F7000A7A2E5500CE5A1A2E5500653A7DF75A185
:101F8000DFE5A7A2E15009E5A1A2E1500375A1FD9B
:101F9000E5A7A2E2500CE5A1A2E2500653A7FB750B
:101FA000A1FBD0F0021EB874F8121826752101901A
:101FB0000404E064067015120D228A828B83A3A3A9
:101FC000A3A3A3A3E0FAA3E0FB120D7CA2AFE4332A
:101FD000FED2AF90040AE0640170187A207B009072
:101FE0000403E0F91211427A207B00900403E0F927
:101FF0001210BE906182E0D2E6F09005A0E0602170
:1020000085C6228016900409E064017008E5C65474
:10201000F84405F5C653BEFC121D7C7401652160B1
:10202000E4EEA2E092AF7F010218D2008E238F244B
:10203000858228858327851882851983E0CEA3E0D1
:10204000CF852882852783EBC9EAC8EDCBECCA751A
:10205000F010C3E833C8E933C9EA33CAEB33CBC362
:10206000EA9EF526EB9FF525B35004AB25AA26EC96
:1020700033CCED33CDD5F0DAAE23AF242274EB129E
:10208000182674FA1217638A088B098C148D159020
:102090000404E024F7C3940550069081ED0221DF8B
:1020A000120D228A0A8B0BAE0AAF0BEE4F700302A1
:1020B00021DCAC08AD09851882851983AA82AB831F
:1020C000120DAC8E828F83A3A378081216339081F1
:1020D000D1780812160D851882851983780C12168E
:1020E000339081D1780C12160D7808790C121445B2
:1020F000501F7808790C1215E59081717808121438
:10210000654047850810850911850A12850B1380E3
:1021100041850C10850D11850E12850F13781079ED
:10212000081215E59081717810121465501C751015
:10213000007511007512007513017810790C1215D5
:10214000E5781079081215AC80089081ED781012AE
:1021500016337409781012158D9081E178081216E3
:1021600033781079081215048E828F83A3A3A3A35A
:10217000A3A3E0F8A3E0F97AD07B031216D888086D
:102180008909E4F50AF50B781079081215AC740486
:102190001217AEE0F8A3E0F97AD07B031216D8E864
:1021A000FA8A08E4F509781079081214455007787E
:1021B0001079081215E5900404E06408600AE064F0
:1021C000066005E06405701C908175781012146536
:1021D000501290817978101215BF800890819D78F7
:1021E00010121633851482851583781012164274E6
:1021F000061217797F0E0218D274F7121826120DE4
:10220000BE90059EE064017010906245E4F0A3F07A
:1022100053F4F343FE0C5390F3120D6AE5C6548059
:102220004449F5C6E59E547F644970F89061857411
:102230000FF090059CE0F47002A3E0604E90059DC5
:10224000E0600814601B14602E8040750801750959
:102250000090059CE07808121750E508F452808041
:102260002A75080175090090059CE078081217503E
:10227000E508F45290801475080175090090059CDA
:10228000E07808121750E508F452A079007F0202A6
:1022900018D274F7121826E9FEEAFF74016E700C6A
:1022A0007A807B00900403E0F91210B8902630E4A5
:1022B00093F46008E493F9120BBA800953C680E5E1
:1022C0009E547F70FA120D7090059EE064017003B9
:1022D000120BD890059CE0F47002A3E0604B9005CF
:1022E0009DE0600814601A14602C803D750801752B
:1022F000090090059CE07808121750E5084280809C
:102300002875080175090090059CE078081217509F
:10231000E5084290801375080175090090059CE05E
:102320007808121750E50842A0120DBE120D228A3D
:10233000088B09A808A909E8496015E5E170FCE8DF
:102340002414F582E93400F583E0F46003E0F5E15C
:1023500074016F700A7A01900403E0F912110C0203
:10236000228D74F11218268A088B098C0A8D0B7441
:102370000F1217AE780C1216339081D1780812160E
:102380000D9081D1780C12160D7808790C12144535
:1023900050157808790C1215E5908171780812149F
:1023A00065401579018013780C79081215E5908144
:1023B00071780C12146540EB79007F080218D27412
:1023C000ED1218268A088B098C0A8D0B74131217CC
:1023D000AE780C1216339081D1780812160D9081C8
:1023E000D1780C12160D780C79081214454011782A
:1023F00008790C1215E5AA08AB09AC0AAD0B8022CE
:102400007510007511007512007513017810790CA4
:102410001215E5781079081215ACAA10AB11AC12A0
:10242000AD137F0C0218D29081D178081216338A2E
:10243000828B8378081216207F040218D274F5125A
:1024400018268C828D8378081216338A828B8378C3
:10245000081215F9EA2404F8EB3400F98C828D8314
:10246000A3A3A3A3E0FCA3E0FD88828983C3E09C2F
:10247000F0A3E09DF088828983C3E09420A3E094D8
:102480004E40229081F978081216338A828B837825
:10249000081215D28A828B83A3A3A3A3E02420F081
:1024A000A3E0344EF0808074F5121826E9FE900502
:1024B00056E0FAA3E0FBEEC333F8E433F974E928FD
:1024C000F582748039F583E02AF508A3E03BF5092D
:1024D00078081219CD9081F512165112202C740231
:1024E0001217798A088B098C0A8D0B7410780812E0
:1024F0001574AA08AB097F040218D274F1121826C9
:102500008A0C8B0D8C0E8D0F740F1217AEE0FAA390
:10251000E0FB74111217AEE0F508A3E0F50974139F
:102520001217AEE0FEA3E0FF78081219CDEA2401ED
:10253000F508EB3400F509E4F50AF50B780C790899
:102540001214849081857808121633780C79081259
:102550001484AA0CAB0DAC0EAD0F12202C74021219
:1025600017798B09EA450960047A0180027A00EC48
:102570002AFCED3400FDECF8EDF97A717B021216BD
:10258000D888088909E4F50AF50B8E828F837808CC
:10259000121642ECF8EDF97A717B021216D88A080D
:1025A0008B09740578081217508E828F83A3A3A31A
:1025B000A3E508F0A3E509F07F080218D2C082C0A5
:1025C00083E9906000F0D083D08222C0E074F212E0
:1025D0001912A2AFE433FED2AFE589A2E150031293
:1025E0001298758900C2C5751A00EEA2E092AF7FFD
:1025F00001021971C0E074F2121912A2AFE433FEA5
:10260000D2AFE58BA2E05003121298758B00C2E89E
:1026100080D5C0E0C0D0E8C0E0E5A8D2AFC2C775A1
:0E2620001A00A2E792AFD0E0F8D0D0D0E0329E
:10263000FFFFFFFFFFFFFFFFC082C083E9900C8513
:10264000F00228BC74F71217BAE9900322F07C5A02
:102650007D037AFF7BFF1208E490032374FFF0A34D
:10266000F0A3E4F0A3F0790512086C900322E0F9DE
:1026700012078E7A027B09120ACA0235CA74F41252
:1026800017BA8A088B09EB54806030900322E0F976
:102690001210A08A0A8B0BAE0AAF0BEE4F60138E9E
:1026A000828F83E064B07003120884EEFAEFFB12AD
:1026B000108EAA08E5096480FB80047A007B000282
:1026C000288B74F21217BA74FC121763EAFEEBFF40
:1026D00074121217AE123AB1EE4F700302276574EE
:1026E000021217AEEEF0A3EF122AC6ECF0A3ED1221
:1026F0002AC6AA82AB83120788E9F50A706AE50840
:10270000450960648E828F83123A97EE4F60567A45
:10271000067B001210F48A0C8B0DA80CA90DE84959
:102720007005750A13804188828983E4122772EE4E
:10273000F0A3EF123AC2E508F0A3E509F0900328F0
:102740001227F99003287005123574801B12356228
:102750008003EAFCEBFD8C828D831227F970F38CE9
:10276000828D8380E3750A02A90A74041217790224
:102770003CB1F0A3123A68A32274F21217BA890A84
:10278000E975F017A4FEAFF0900327E4F09003255D
:102790001227F9600A1210FA900325E4F0A3F0EE74
:1027A000FAEFFB1210F48A088B09EA4509602FEE54
:1027B000FCEFFD790012107C900325E508F0A3E5FD
:1027C00009F07B0080081227E3E4F0A3F00BEBC3D1
:1027D000950A40F2E50A900327F079008002791308
:1027E000023CB1EB75F017A4F8A9F0900325E0289E
:1027F000FAA3E0398A82F58322123206EA4B227468
:10280000F41217BA740C1217AE123A8CFEE9FF7567
:102810000800750900800CE5082401F508E5093475
:1028200000F509C3E5089CE5099D503285080A8535
:10283000090B7403780A121750EA250AF8EB350BD6
:10284000F988828983A3A3A3A3A3A3123649EE65C3
:102850000A7003EF650B70BFE8FAE9FB80047A00A9
:102860007B00802774F41217BA7900EAA2E0501BAB
:1028700075084A75098178081219CD7C047D007AA3
:10288000877B0C12086674021217797F0402188C79
:10289000C082C0839003281228C3601C8882898369
:1028A000A3A3E06A7003A3E06B8882898370E8A326
:1028B000A3A3A312320280047A007B00D083D082CB
:1028C000020135123D97E8492274EE1217BA74FCE2
:1028D000121763EAFEEBFF851882851983E4F0A3E3
:1028E000F0EE2402123554EE2405123A6FEE240461
:1028F000F50EEF122E7BE024FE603924FC604624A6
:10290000FE605224FE605E24FE70030229DC24FE79
:102910007003022A4024FE7003022A4F24FE700333
:10292000022A5E24FC7003022A6D24FE7003022A30
:102930007C022AB99003417417F0A3E4122ACE1244
:102940000482022AB9851882851983AC82AD83126C
:10295000088A022A89851882851983AC82AD831280
:102960000890022A89850C08850D0974021217AE99
:10297000AC82AD838508828509831232021207ACCE
:102980008A0C8B0DAC0CAD0DEC4D603BE4F50CF5F9
:102990000D780C1219CD750C41750D03780C1219B8
:1029A000CD750C42750D03780C1219CD74081217F1
:1029B000AE1219E4123F13121779E9F50C700B12DD
:1029C00031F812049A800F750C01850882850983FD
:1029D000122ABC123574850C08022A8C7402121754
:1029E000AEAC82AD83850C82850D83122FCD603C09
:1029F000850C82850D83A3A31219E475104175110E
:102A00000378101219CD7510427511037810121940
:102A1000CD74081217AE1219E4123F13121779E998
:102A2000F509700B1231F81204A0800F75090185A9
:102A30000C82850D83122ABC123574850908804CDE
:102A4000851882851983AC82AD83120896803A85F9
:102A50001882851983AC82AD8312089C802B85185F
:102A600082851983AC82AD831208A2801C851882EE
:102A7000851983AC82AD831208A8800D85188285E4
:102A80001983AC82AD831208AEE9F508E508602928
:102A90008E828F83A3E06414601F850E82850F836E
:102AA000E0900341122AC6123D93900342123574FE
:102AB000E508A3122ACE12047C023463123D9785E6
:102AC000188285198322F085188285198322F07C6B
:102AD000417D03850A82850B831232062274EE1231
:102AE00017BA74FC1217638A0A8B0B8C0E8D0FEACF
:102AF0002405F508EB3400F5097C157D0079007A92
:102B0000417B0312107CE5082402F50CE509123A1A
:102B10007285188285198385821085831178101239
:102B200019CD850882850983A3A3A3A3122FC412FC
:102B300019CDE5082405F510E5093400F5117810E4
:102B40001219CD850C82850D831233191207A674D4
:102B5000061217798A108B11AE10AF11E50A240204
:102B6000F50AE50B123557EE4F7003022C9B8017C8
:102B700074021217AE12320288828983EAF0A3EB44
:102B8000F0900341E004F0900341E0C3940540035A
:102B9000022C9BE4F510F51178101219CD75102A4E
:102BA00075110378101219CD75102B75110378105B
:102BB0001219CD74061217AE1219E47910EEFCEF5B
:102BC000FD123F15121779E9705E85088285098329
:102BD000A3A3A3A3A3A3A3E0F890032AE0687048EB
:102BE000122FC41219CD7C2B7D03E5082408FAE5C9
:102BF000093400FB1210767402121779E960298EED
:102C0000828F83A3A3A3A3123202900341E0F510A5
:102C10007402781012175074422510F5827403352F
:102C200011F583EAF0A3EBF074021217AE8582105F
:102C300085831178101219CD74021217AE1219E49F
:102C4000850C82850D831232281217798A108B1118
:102C5000AE10AF11900341E0F510751100740278C9
:102C60001012175074412510F874033511F9888239
:102C70008983A31227F97003022B67E8240308084D
:102C800008E93400F9EE4F6003022B7088828983D3
:102C900074FFF0A3F0900341E004F0900341E06082
:102CA0000A1231F812048E7900800B85088285099A
:102CB0008312356B790A02346374EA1217BA74FE10
:102CC0001217638C128D13EA2405F50CEB123EFDEE
:102CD000123A9B750800750900EA2402F510EB34DE
:102CE00000F51185188285198385820A85830B7802
:102CF0000A1219CD850C82850D83A3A3A3A3122EDE
:102D0000911219CDE50C2405F50AE50D1235577819
:102D10000A1219CD850C82850D83122E951207A6F5
:102D200074061217798A0A8B0BEA450B7003022E80
:102D300036EA2404F50EEB122E7B123A9B8A828B24
:102D400083A3A3A3E0F985108285118312320C605E
:102D500003022E36E4F514F51578141219CD751406
:102D60002A75150378141219CD75142B751503786F
:102D7000141219CD74061217AE1219E47913AC0AA5
:102D8000AD0B851082851183123F1B121779E9F56F
:102D9000096003022E3690032AE0F8E5087009E086
:102DA0002402900342F08014900342E0FCE82402E5
:102DB000FAE43400FBEA6C7001EB707E850882AAAD
:102DC00082122FBB9414122FB3506B850E82850F85
:102DD00083E0C0E074432A122E72D0E0F00508852B
:102DE0000E82850F83A3E0C0E085080A7443250A9C
:102DF000122E72D0E0F0050890032A122E911219BB
:102E0000CD7C2B7D0385080A7443250A122E85127A
:102E1000177990032AE02508F50874FF6E70037493
:102E2000FF6F6012EE24010EEF3400FFE508C3943B
:102E3000145003022CE3E508601312321685108249
:102E400085118312320212049479008014E509700E
:102E50000375090A851282851383EEF0A3EFF0A9AA
:102E60000974021217797F0E02188C85080C7443BE
:102E7000250CF58274033400F583223400F50F85A8
:102E80000E82F58322FA74033400FB12106474027C
:102E900022123AD122A3A3122E9B22123562FDEEFA
:102EA000FAEFFB2274EE1217BA74FE1217638C0E3F
:102EB0008D0FEA2405F50CEB123A72750B009003A6
:102EC00041E4F0F50AEA2402F508EB3400F5098044
:102ED00044900341E0FA90032AE0F8122FBB9417C4
:102EE000122FB3400D900341E0F87416C39890037D
:102EF0002AF0122FC41219CD7C2B7D0374422AFABA
:102F00007403122E8812177990032AE0F890034177
:102F1000E028F0050AE50C2416F582E50D122E7660
:102F2000E0F8E50AC3985074900341E0C39416504A
:102F30006BE50AC333F8E433F9E50C28FEE50D39F7
:102F4000FF851882851983AC82AD838E828F8312B0
:102F50002FCD7008750B011235678050E4F510F520
:102F60001178101219CD75102A75110378101219E5
:102F7000CD75102B75110378101219CD7406121728
:102F8000AE1219E47916850882850983123F1B1257
:102F90001779E9F50B7003022ED180BB7C417D03CC
:102FA0008508828509831232021204A6A90B7402D5
:102FB000023465E99400C365D03322EA28F8E4348A
:102FC00000F9E822E0F51075110078102212345A49
:102FD0008A108B11AC10AD11EC4D2274EA1217BAA5
:102FE00074FC1217638A0C8B0D8C128D13EA240566
:102FF000F50AEB123557750800750900E50A240239
:10300000F510E50B3400F51174021217AE85820E2F
:1030100085830F780E1219CD850A82850B83A3A3B1
:10302000A3A3123A771219CDE50A2405F50EE50B94
:103030003400F50F780E1219CD8510828511831298
:10304000355D1231FC1207A674061217798A0E8BB1
:103050000FAE0EAF0FE50C2402F50EE50D3400F5B2
:103060000F80388882898374FFF00508122E6B74F4
:10307000FFF0050890032AE0F50C750D00780C129E
:1030800019CD7C2B7D0385080C7443250C122E85ED
:1030900012177990032AE02508F508EE4F60278E75
:1030A000828F83A3A3A3E0F9850E82850F8312325A
:1030B0000CEE2404123A6FE96027850C82850D839B
:1030C0001231EE123574E50870030231D412321653
:1030D000850E82850F831232021204AC7900023110
:1030E000E9E4F514F51578141219CD75142A75153F
:1030F0000378141219CD75142B7515037814121951
:10310000CD74081217AE1219E47911EEFCEFFD85AB
:103110000E82850F83123F1B121779E9F509709A09
:10312000850882AA82EA90032A7009E024049003A9
:1031300042F08025E0F8900342E0F514E82404FC16
:10314000E43400FDEC65147001ED7081122FBB9426
:1031500012122FB340030230CD850C82850D83E01F
:10316000C0E074432A122E72D0E0F00508850C826C
:10317000850D83A3E0C0E0122E6BD0E012323185C2
:10318000820C85830D780C1219CD74041217AE12BF
:1031900019E48510828511831232281217798A0C5E
:1031A0008B0DAE0CAF0D85080C7443250CF8740321
:1031B0003400F9EE4F70030230638518828519835D
:1031C000E088828983123231A3E0C0E0122E6BD0F6
:1031D000E0023071E509700375090A850A82850BE2
:1031E000831231EE123574A9097404022E63123D64
:1031F00097851282851383227C417D03850A82850F
:103200000B8312320622E0FAA3E0FB2212320612EE
:103210000794E9F50922900342E0F5F0E50884906F
:103220000341F07C417D0322122E9B1207B27404ED
:1032300022F005088518828519832274EC1217BACA
:1032400074FE1217638A088B098C0E8D0FEA240511
:10325000FEEB3400FF123444EE2418123A6FEA45B4
:103260000B70030232E712342D502912330C8A10EE
:103270008B11EA4511606B7912AC0AAD0B8508829F
:103280008509831232028510828511831217B8E9ED
:10329000F50A7058E4F50AF50B780A1219CD8E82FA
:1032A0008F83A3A3E0F50A780A1219CDEE24031246
:1032B0003554780A1219CD8E828F83123319120871
:1032C000D27406121779E9F50A7021850C82850DF2
:1032D00083E0701F8508828509831232021204B2CE
:1032E0008011750A0E8009750A018004E50A6003E1
:1032F000123567850C82850D83E0600479008002B9
:10330000A90A74021217797F0C02188C851882851D
:1033100019831232061208C022123562FD85088216
:103320008509831232062274EE1217BA74FE121740
:10333000638A088B098C0C8D0DEA2405FEEB3400A2
:10334000FF750E00123444EA450B700302340B1271
:10335000342D502C12330C8A0E8B0FEA450F604A25
:103360007912AC0AAD0B8508828509831232028579
:103370000E82850F831217B8E9F50E600302340E32
:10338000850882850983123649AA0AFB12341F7008
:10339000147AFF7BFF12341F606C88828983E50AF0
:1033A000F0A3E50BF0750A008007750E0E805F052F
:1033B0000A900327E0FAE50AC39A504AE50A75F035
:1033C00017A4FAABF088828983A3A3E02AFAA3E0CA
:1033D0003BFB8A828B8312355DEC4D70D2750A17E8
:1033E000750B00780A1219CDEEFCEFFD1210647413
:1033F00002121779EEFCEFFD8508828509831232EF
:10340000021204B88014750E098003750E01123D76
:103410008F850C82850D83123574A90E022FAE1292
:1034200008B48A108B11A810A911E84922E50824D4
:1034300002F508E5093400F5098A828B83A3A3A36A
:10344000E0A2E522851882851983AC82AD838E8245
:103450008F8312345A8A0A8B0B22E0FAA3E0FB1204
:1034600007AC2274041217797F0A02188C74EC12CC
:1034700017BA8C108D11EA2405F50CEB123A72750F
:103480000F00EA2402F50AEB123557850A82F5830C
:10349000123202123FA17003023549750E0080718D
:1034A000850C82850D83E06401704F8E828F83A32B
:1034B000A31219E48E828F83A3A3A3A3E0F5127550
:1034C000130078121219CDEE2405F512EF3400F531
:1034D0001378121219CD1231FC1208D27406121789
:1034E00079E9F50F6014850C82850D83E4F0123DB7
:1034F0008F8510828511831235747C177D007900C9
:10350000EEFAEFFB12107C8E828F83E4F0A3F005BD
:103510000E900327E0F8E50EC398501EE50E75F0F7
:1035200017A4F8A9F0850882850983A3A3123F0791
:1035300012355DEC4D60030234A085088285098355
:1035400074FFF0A3F0E50F70061231FC1204BEA95F
:103550000F023307F50AEF3400F50B22A312356290
:10356000FD22E0FCA3E0228E828F83123D97850E20
:1035700082850F83E8F0A3E9F022C082C083900324
:1035800023E06A7003A3E06B70067A237B03800458
:103590007A007B000228BC74F71217BA7F00EF751F
:1035A000F003A4F8A9F0EC28F8ED39F988828983B2
:1035B000E06A7003A3E06B7006E8FAE9FB800B0F8A
:1035C000EFC3940240D87A007B007F0102188C740C
:1035D000F61217BA123B8070067A007B008007A3B0
:1035E000A3A3A3123202023C4174F21217BAE9FEFD
:1035F000740E1217AE12364974101217AE123AB189
:103600008C828D83E06402703BA3123D9388828993
:1036100083E0F50CA3E0F9A80C7402687003742928
:10362000697021750C02750D00780C1219CD78089F
:103630001219CD780A1219CDEEF91208F674061295
:10364000177980027901023CB1E0F50AA3E0F50B9D
:103650002274E81217BA74FB121763E98518828581
:103660001983F08A168B178C0E8D0F741F1217AEEC
:10367000123AB174211217AE12364974231217AEE2
:10368000123A9B7510008C828D83A3A3A3E0A2E461
:10369000502A741D1217AE1233128A828B83E58270
:1036A0004583700302375D790AAC0EAD0FAA16ABE5
:1036B000171217B8E9F5106003023760850E82858E
:1036C0000F83E064026003023A16A3123D9385085B
:1036D00082850983A3858212858313E50E2406F56E
:1036E0000CE50F123A7288828983E0FAA3E0F9EAC6
:1036F0002400F514E439F5157814121A5701000066
:10370000280128253707000228FC3703286C3700DA
:1037100029263901294E390229F538032926390489
:1037200029B739163AEE4F703E850C82850D83120B
:103730003A8CFAE9FB8A828B83E0850A82850B83C7
:10374000123AC81219CD8A828B83A3123562FDAA60
:1037500008AB091210647402121779800375100EF9
:10376000A9107405023EF575100B80F4EE4F70F74A
:10377000850A82850B837401F0123AA1850882853F
:103780000983F07C007D00850E82850F83A3A3A3AF
:10379000A3E02401FAA3E03400FB1207ACEA4B607B
:1037A000418A828B83E02402F8850A82850B83E0BC
:1037B00028F0EA2404F8EB3400F988828983E08554
:1037C0001282851383123ADA123AC81219CD8A820C
:1037D0008B8312355CE5082403FAE5093400FB020B
:1037E0003753850A82850B83E02404F07C047D0036
:1037F0007900AA12AB1312107C023760EE4F6003FF
:10380000023767123AA1FEA3E0FF850A82850B8387
:103810007404F0EE850882850983F0EF85128285B5
:103820001383F074031217AEAC82AD83EEFAEFFB94
:10383000123B6E70030238D28A828B83A3A3123AA2
:103840009774011217AE85820E85830F780E1219B8
:10385000CD74051217AE1219E47CFF7DFF1207B27A
:1038600074041217798B0FEA450F7033850C82852B
:103870000D83123A771219CD850C82850D83A31220
:1038800019E47C027D007A117B8212059074041287
:103890001779E9700A74011217AE74FFF0A3F08E65
:1038A000828F83E064027034750C02750D00780C11
:1038B0001219CD8E828F8312355CE5082404FAE557
:1038C00009122E88121779850A82850B83E024025B
:1038D000800974011217AEEEF0A3EFF07401121715
:1038E000AE123A88F074011217AEA3123A80A3A365
:1038F000A3F0023760EE4F6003023767850C8285C4
:103900000D8312355DAA16AB171208EA850A828567
:103910000B837402F0EA850882850983F0851282A0
:10392000851383EB80CBEE4F6003023767123AA119
:10393000F8A3E0F9850A82850B837402F0E8850814
:1039400082850983F0E985128285138380A3850C23
:1039500082850D8312320212105EEAFC8C82A882EC
:10396000C39EE49F404BE86E7001EF70047C0080C2
:103970001F851882851983E0FAEE2AFAEF3400FBDE
:10398000C3EA98EB94005003E08004EECCC39CFCA7
:10399000EC850A82850B83F08C0A750B00780A127D
:1039A00019CD850C82850D83E02EFCA3E03F023704
:1039B0004E751007023760EE4F6003023767850CC3
:1039C00082850D83123D93850A82850B837407F0EF
:1039D00088828983123A80123A68E08512828513C0
:1039E00083F0E82402FAE93400FB8A828B83123ADE
:1039F00080123AB9123A88A3123AC2123A91F0E808
:103A00002405F8E93400F988828983123A91A312D7
:103A10003ADAA30238EE741D1217AE123B79700326
:103A200002375D123D93880C890DE8450D70030245
:103A3000375D8E108F1178101219CD780A1219CDBA
:103A400078081219CD74061217AEE0F9AC0EAD0F5E
:103A5000AA16AB17850C82850D831217B87406124F
:103A60001779E9F510023760F088828983A322F57F
:103A70000CEF3400F50D22E0F50E750F00780E22E4
:103A8000E085088285098322123AE122123D97E8F7
:103A900022123AE1A3A322A3A3A3A3E0FEA3E0FF83
:103AA00022850C82850D83E0F8A3E0F5838882E00F
:103AB00022E0F508A3E0F50922A3A3F08A828B8314
:103AC000A322122774A3A322F08A828B83123AD1F5
:103AD00022E0F50A750B00780A22123A68123AE1E0
:103AE00022E0850882850983A3A32274EE1217BA07
:103AF00074FE1217638A0A8B0BECFAEDFB74141236
:103B000017AEE0F510A3E0F51174161217AEE0FE43
:103B100074181217AEE0F50EA3E0F50F8518828534
:103B20001983AC82AD83123B6E603E851882851985
:103B300083123B79602FA3A3123AB1E508450960CF
:103B400024780E1219CD78101219CDEEF9AC0CAD07
:103B50000DAA0AAB0B8508828509831217B8740475
:103B60001217798006790E80027901022FAE1207B2
:103B7000AC8A0C8B0DEA450D22123206123B8022D4
:103B800012087E8A828B83E58245832274F612179F
:103B9000BA74FE121763740C1217AE123A8C8518A1
:103BA00082851983F074011217AEE9F0E4F508F587
:103BB0000978081219CD75080278081219CD740415
:103BC0001217AE85820885830978081219CD12086C
:103BD000D274061217797402121779806474F7127E
:103BE00017BAEAFEEBFF89087C5A7D031208EAEA5D
:103BF0005402600BA908EEFAEFFB1207A0800279CD
:103C0000010235CA74F61217BA74FF6A700374FFA2
:103C10006B701C7B00EB75F003A4F8A9F0EC28F89E
:103C2000ED39F9123C460BEBC39402501480E612B6
:103C300008BA8A088B09A808A909E8496003123C58
:103C4000467F0202188C8882898374FF122772E4EF
:103C5000F02274F61217BA1208BA8A828B83E582B0
:103C600045836006A3A3E0FA80027A007B0080D13E
:103C700074F21217BA8A088B09ECFEEDFF740E126B
:103C800017AEE0F50A123CB6701CEEFCEFFD7AFFB1
:103C90007BFF123CB670047911801688828983E517
:103CA00008F0A3E509F088828983A3A3E50AF079E7
:103CB000007F0602188C1208BA8A0C8B0DA80CA97A
:103CC0000DE8492274EE1217BAEAFEEBFF8C088D5C
:103CD00009890C74121217AE123D9374141217AEA8
:103CE00012355D74161217AE123202750D00EC4DCE
:103CF0006003023D877402650C6003023D82888286
:103D00008983123562F9EC2400F50EE439F50FEAE7
:103D1000F4F8EBF4F9EC58F8E50F59F9E849705D5F
:103D2000E5082406F8E5093400F9880A890B888239
:103D3000F583122E971208EA8A108B11E50E651092
:103D40007004E50F65116042780E1219CD850A8264
:103D5000850B83122E971208F07402121779E9F579
:103D60000D7027780E1219CD850882850983A3A3CB
:103D7000122E951209087402121779800D750D80A4
:103D80008008750D0D8003750D0BA90D0234688E2A
:103D9000828F83123D9722E0F8A3E0F92274E812A3
:103DA00017BA74E7121763851882851983EAF0A39E
:103DB000EBF08C168D17890E74311217AEE0F512E8
:103DC000A3E0F51374331217AEE0F514A3E0F51574
:103DD00074351217AEE0F50F750800750900E50996
:103DE00075F003A4F8A9F0851882851983123F079E
:103DF000E0F47003A3E0F47003023EE5EE2402F564
:103E00000CEF123EFDE07003023EE585160A8517B1
:103E10000B780A1219CDAC14AD15AA12AB13120807
:103E20007274021217798A0A8B0BEA450B7003022F
:103E30003EE5E4F510F51178101219CD740612174D
:103E4000AE85821085831178101219CD740912176E
:103E5000AE85821085831178101219CD8512828566
:103E60001383A3A3A3A31219E47914AC0AAD0B8E98
:103E7000828F83123F1B121779E97069850A828548
:103E80000B83A3A3A3A3123D9374021217AE1235A2
:103E900074850C82850D83E0A2E05018A90E74028F
:103EA0001217AEAC82AD838E828F8312320212075C
:103EB000C4E94208850C82850D83E0A2E15026E525
:103EC0000FF50A780A1219D1A90E74031217AEACB5
:103ED00082AD838E828F831232021207BE7401126A
:103EE0001779E942080509E509C394025003023D28
:103EF000DEA90874191217797F1002188C3400F5A6
:103F00000D850C82F58322E028FEA3E039FF8E8226
:103F10008F83227916850A82850B83123206120856
:103F2000CC74082274F21217BAEAFEEBFF890B7404
:103F300001650B600E7402650B70637901120AE86B
:103F4000E9705BEEFAEFFB123FA16047750A008053
:103F50000B7C177D00790012107C050A900327E086
:103F6000F8E50AC3985021E50A75F017A4F8A9F0FE
:103F7000850882850983A3A3E028FAA3E039FB8A98
:103F8000828B831228C370C985088285098374FFD8
:103F9000F0A3F07C5A7D03EEFAEFFB1208E4023C3A
:103FA000B11208B48A088B09EA45092274F2121783
:103FB000BA8A088B09ECFEEDFF740E1217AE1236AA
:103FC00049900C85E0F4603D7A097B00121088EA84
:103FD0004B60328A828B8374B1F0A3E4123ABBA3A4
:103FE000123AB9A3E508F0A3E509124008EEF0A3E0
:103FF000EF124008A3A3E50AF0A3E50BF0900C85AF
:10400000E0F9121094023CB1F08A828B83A3A3A33F
:10401000A3A322C082C0839061907404F0A374486B
:10402000F0A37402F09061807440F09061BC74035E
:10403000F09061877419F0906265741BF090619C38
:10404000740DF090619A7433F0A37455F09061A0F0
:10405000743AF090059EE064017009C291900408E2
:10406000746780059004087461F0902636E493909C
:104070006186F0902630E493F46027E493540FF8BF
:10408000906185E0686012E5C654804449F5C6E554
:104090009E547F644970F8E8F053C680E59E547FD3
:1040A00070FA7905120E48024255C082C083E95465
:1040B0000FF9906185E0696012E5C654804449F5C6
:1040C000C6E59E547F644970F8E9F053C680E59ECA
:1040D000547F70FA024255C082C083E5A8F853A805
:1040E0007E906181E4F0A3F0A3F0C2BA539AFEC2BD
:1040F00089759B00C2C275E90075910075BF007596
:10410000A91175B905906181F0A374C0F0A3E4F022
:10411000D2BA439A0174805842A8024255C082C064
:104120008374F8121763900406E0F8A3E0F9E849F5
:10413000700302424B900406E054406023790885E6
:104140001882851983AA82AB83120CB085188285E8
:104150001983AA82AB8312097A900406E054BFF057
:10416000E054806010790C7AC27B05120CB0900488
:1041700006E0547FF0E0A2E0503190619A7433F091
:10418000A37455F09061A0743AF090059EE064012C
:104190007009C291900408746780059004087461E6
:1041A000F0120980900406E054FEF0E05402603101
:1041B00090619A743FF0A3745AF09061A0747FF0FC
:1041C00090059EE064017009D2919004087471809A
:1041D00005900408746AF0120980900406E054FD0A
:1041E000F0E054046013902634E493906186F0125A
:1041F0000986900406E054FBF0E054086013902612
:1042000035E493906186F0120986900406E054F735
:10421000F0E054106013902636E493906186F0121B
:104220000986900406E054EFF0E05420600A120979
:1042300086900406E054DFF0A3E05401600D120BF9
:10424000D812098C900407E054FEF0740812177914
:104250008003F0A3F0D083D082020135C082C083F6
:10426000E9600814600A14600C80139026348008FA
:104270009026358003902636E493906186F080D5B1
:1042800074EC1217BA74F4121763851882851983B7
:10429000AC82AD8375838175828D7404121676901D
:1042A000263493F4600302440D907808E0C394022E
:1042B00050030243ED74041217AEAC82AD837583D4
:1042C0008175822274081216768518828519838575
:1042D000821285831374041217AEAC82AD83750EFF
:1042E000FF750FFF7FFF7E00750C48750D788015F8
:1042F00074086E700302438074096E700302438079
:10430000740A6E607B850C82850D837808121633E3
:104310008C828D83A909E50AC9F888107418780879
:10432000121574E5104508F8C3E098A3E099850CD0
:1043300082850D83780812163340188C828D837421
:10434000187808121574E5104508F8E0C398F8A32A
:10435000E0801C74187808121574E5104508FAE915
:10436000FB8C828D83E0F8A3E0F9EAC398F8EB991F
:10437000F9C3E8950EE9950F5006880E890FEEFFF8
:104380000EE50C2404F50CE50D3400F50DEEC39498
:104390001350030242F074FF650E700474FF650F42
:1043A00060238F087402780812175074482508F5A6
:1043B0008274783509F58378081216338512828560
:1043C0001383E508F0EC24020C0CED3400FD85129B
:1043D00082851383A3858212858313740C1217AE12
:1043E000E5826C7003E5836D60030242DE750801AF
:1043F00075090078081219CD74021217AEAC82AD9F
:10440000837A8D7B0912126E7402121779740C1262
:1044100017797F0C02188CC082C0839061AE7468DB
:10442000F0A3746AF090624574FBF0A304F053F4B7
:10443000FD43FE0290059E7401F09061A0E0643A95
:1044400090619A70237433F0A37455F09061A07456
:104450003AF0740164017009C29190040874678095
:104460002890040874618021743FF0A3745AF0907E
:1044700061A0747FF0740164017009D29190040806
:1044800074718005900408746A0242547F04021813
:104490008CC082C083900550E06401700A9005557D
:1044A000E06004790C80027900024255C082C0832A
:1044B00075E1F1900553E0605514600814605914DB
:1044C00060518059120BEA900549E0F97A4A7B0560
:1044D000120DCA908189121651120E009081D912C4
:1044E0001651120DD6900554E0F9120DE279011221
:1044F0000E3C900547E02416F8A3E03400F98882CA
:1045000089837402F0A3740CF07900024255120BF7
:10451000F080B4120BF680AF120BFC80AA791280E7
:10452000EA74F41217BA75D90D900538E0A2E0E4E8
:10453000331313F8900549E0C4333354C0484401A1
:10454000F5D97847790588828983A3A3A3E0F5D9B3
:1045500088828983A3A882A983E8644D7003E964F3
:104560000570E37838790588828983A3E0F5D988D6
:10457000828983A3A882A983E8643E7003E9640565
:1045800070E575E195900538E0F97A397B05120DF3
:10459000D0900CA77490F0A3740BF0A374F8F0A360
:1045A000740CF0A374F8F0A3740CF0A374F8F0A3E7
:1045B000740CF0A37496F0A3740BF0A374F8F0A33A
:1045C000740CF0A374AEF0A3740BF0900CB574F8F7
:1045D000F0A3740CF0A374F8F0A3740CF0A374F8B7
:1045E000F0A3740CF0A374F8F0A3740CF0A374F8A7
:1045F000F0A3740CF0A374F8F0A3740CF0900547CA
:10460000E0F8A3E0F5838882A3A37808121633901C
:10461000818178081215BF9081D1780812160D900B
:104620000547E0240EF8A3E03400F98882898378F6
:1046300008121642900547E02414F8A3E03400F96C
:10464000888289837413F09004047402F002448C0D
:10465000C082C083900559E02407F5D9900549E050
:10466000C4333354C0F5D97847790588828983A348
:10467000A3A3E0F5D988828983A3A882A983E864EB
:104680004D7003E9640570E3900559E0601F7847B9
:104690007905FAE82413F582E93400F583E0F5D9C9
:1046A00088828983A3A882A9831AEA70E690057993
:1046B000E02407F5D9900549E0C4333354C04404DD
:1046C000F5D97847790588828983A3A3A3E0F5D932
:1046D00088828983A3A882A983E8644D7003E96472
:1046E0000570E3900579E0601F78477905FAE824C2
:1046F00033F582E93400F583E0F5D988828983A314
:10470000A882A9831AEA70E675E195900CA7749CBB
:10471000F0A3740BF0A374F8F0A3740CF0A374F876
:10472000F0A3740CF0A374F8F0A3740CF0A37496C7
:10473000F0A3740BF0A374F8F0A3740CF0A374AEA0
:10474000F0A3740BF0900CB574F8F0A3740CF0A304
:1047500074F8F0A3740CF0A374F8F0A3740CF0A335
:1047600074F8F0A3740CF0A374F8F0A3740CF0A325
:1047700074F8F0A3740CF09081F91216519005476B
:10478000E0240EF8A3E03400F98882898312165DD4
:10479000900547E02414F8A3E03400F98882898367
:1047A0007412F09004047401024254C082C08390D9
:1047B0000559E02407F5D9900549E0C4333354C0C6
:1047C0004402F5D97847790588828983A3A3A3E0B9
:1047D000F5D988828983A3A882A983E8644D7003F0
:1047E000E9640570E3900559E0601F78477905FAA0
:1047F000E82413F582E93400F583E0F5D98882894D
:1048000083A3A882A9831AEA70E675E195900CA7A4
:1048100074A8F0A3740BF0A374A8F0A3740BF0A316
:1048200074A8F0A3740BF0A374A8F0A3740BF0A306
:1048300074A8F0A3740BF0A374A8F0A3740BF0A3F6
:1048400074AEF0A3740BF0900CB574F8F0A3740C74
:10485000F0A374F8F0A3740CF0A374F8F0A3740C34
:10486000F0A374F8F0A3740CF0A374F8F0A3740C24
:10487000F0A374F8F0A3740CF09081F91216519023
:104880000547E0240EF8A3E03400F98882898312FA
:10489000165D900547E02414F8A3E03400F98882FF
:1048A00089837414F09004047404024254C082C0DA
:1048B00083900559E02407F5D9900549E0C43333C6
:1048C00054C04406F5D97847790588828983A3A323
:1048D000A3E0F5D988828983A3A882A983E8644DDF
:1048E0007003E9640570E3900559E0601F7847792B
:1048F00005FAE82413F582E93400F583E0F5D98858
:10490000828983A3A882A9831AEA70E6900579E0D8
:104910002407F5D9900549E0C4333354C04404F565
:10492000D97847790588828983A3A3A3E0F5D9883C
:10493000828983A3A882A983E8644D7003E9640592
:1049400070E3900579E0601F78477905FAE8243331
:10495000F582E93400F583E0F5D988828983A3A83C
:1049600082A9831AEA70E675E195900CA774A2F00B
:10497000A3740BF0A374F8F0A3740CF0A374F8F014
:10498000A3740CF0A374F8F0A3740CF0A374F8F003
:10499000A3740CF0A374F8F0A3740CF0A374AEF03D
:1049A000A3740BF0900CB574F8F0A3740CF0A3741E
:1049B000F8F0A3740CF0A374F8F0A3740CF0A374D3
:1049C000F8F0A3740CF0A374F8F0A3740CF0A374C3
:1049D000F8F0A3740CF09081F9121651900547E09D
:1049E000240EF8A3E03400F98882898312165D90C2
:1049F0000547E02414F8A3E03400F9888289837421
:104A000015F09004047403024254C082C0839005E0
:104A100047E0F8A3E0F5838882A3A3A3A3A3A3E4BC
:104A200002425274F71217BA900432E0F875F0049B
:104A3000A4C8AAF02AF9743428F8740439F9E824CF
:104A400005FAE93400FB8A828B83E0FCA3E0FD8851
:104A5000828983A3A3A3A3A3A3A3A3A3ECF0A3EDA1
:104A6000F088828983A3A3A3A3A3A3A3E024FFF8D0
:104A7000A3E034FFF98A828B83E8F0A3E9024CC8F3
:104A800074F71217BAEAFEEBFF9061D0E060030200
:104A90004B5D75D90E75D90375D904EE248CF5825A
:104AA000EF3400F583E5822408F8E5833400F9E06B
:104AB000F5D9A3E865827003E9658370F2EE24847A
:104AC000F582EF3400F583E5822404F8E5833400B1
:104AD000F9E0F5D9A3E865827003E9658370F275A2
:104AE000E1957908EE248CFAEF3400FB120CA479DE
:104AF00004EE2484FAEF3400FB120CA47C00EEF8E0
:104B0000EFF9ECFAC3E49AFA95E0FBEE2AFAEF3BF0
:104B1000FBEA248BF582EB3400F583E0C0E0E82467
:104B2000ABF582E93400F583D0E0F00C888289830C
:104B3000A3A882A983ECC3940840C7EE2470F58231
:104B4000EF3400F583E0F8A3E0F9EE2472F582EF8C
:104B50003400F583E8F0A3E9F079018002790002DE
:104B60004CC9C082C08375D90275D90375D9057542
:104B7000E195EA2470F582EB3400F583E0F8A3E0D8
:104B8000F9EA2472F582EB3400F583E8F0A3E9F04A
:104B9000790102425574F61217BAEAFEEBFF90054E
:104BA000A27406F07508A275090578081219CD7C63
:104BB000017903120CEC740212177975D90675D9B4
:104BC000037582A2758305E0F5D9A3E58264A77019
:104BD00004E583640570F075E195900404E06408D1
:104BE000701EEE2470F582EF3400F583E0F8A3E048
:104BF000F9EE2472F582EF3400F583E8F0A3E9F0D2
:104C00007901024D9574F61217BAEAFEEBFF906136
:104C1000D0E0706678019005A2740BF0900404E077
:104C2000640770197508A275090578081219CD7CFA
:104C3000017903120CEC74021217797805740128BB
:104C4000F5D975D9037582A2758305E8FAE0F5D91F
:104C5000A31AEA70F875E195EE2470F582EF34003E
:104C6000F583E0F8A3E0F9EE2472F582EF3400F565
:104C700083E8F0A3E9F0790180027900024D957490
:104C8000F71217BAEAFEEBFF75D90375D90375D988
:104C90000DEE24DEF582EF3400F583E0F5D975E101
:104CA000957904120E06EE2470F582EF3400F58338
:104CB000E0F8A3E0F9EE2472F582EF3400F583E822
:104CC000F0A3E9F079018001F07F0102188C74F6FD
:104CD0001217BAEAFEEBFF9061D0E0F87480C39837
:104CE000FAEE2483F582EF3400F583E06004780463
:104CF00080027800E8240BF8EAC3985003024D9331
:104D00007D099005A2EDF0EE24E3F8EF3400F97A86
:104D1000A37B057C0888828983E08A828B83F08864
:104D2000828983A3A882A9838A828B83A3AA82AB68
:104D3000831CEC70E0EE2483F582EF3400F583E011
:104D4000601D7508A275090578081219CD7C0979CE
:104D500003EEFAEFFB120CEC74021217797D0D745E
:104D6000012DF5D975D9037582A27583058D08E0EB
:104D7000F5D9A31508E50870F675E1957904120ECA
:104D800006EE241DF582EF3400F583E4F0A3F079FC
:104D900001800279007F0202188C74F61217BAEAB9
:104DA000FEEBFF9061D0E0F87480C398FAEE2483A4
:104DB000F582EF3400F583E0600478048002780027
:104DC000E82408F8EAC3985003024E9A7D0690053D
:104DD000A2740CF0900421E09005A3F07A227B04E9
:104DE00078A479057C028A828B83E088828983F0AB
:104DF0008A828B83A3AA82AB8388828983A3A882B9
:104E0000A9831CEC70E07A247B047C028A828B8369
:104E1000E088828983F08A828B83A3AA82AB83880D
:104E2000828983A3A882A9831CEC70E0EE2483F519
:104E300082EF3400F583E0601D7508A275090578DE
:104E4000081219CD7C067903EEFAEFFB120CEC7414
:104E5000021217797D0A74012DF5D975D90375826F
:104E6000A27583058D08E0F5D9A31508E50870F64D
:104E700075E1957904120E06EE2470F582EF340088
:104E8000F583E0F8A3E0F9EE2472F582EF3400F543
:104E900083E8F0A3E9F0790180027900024D95746E
:104EA000F61217BAEAFEEBFF9061D0E0F87480C307
:104EB00098FAEE2483F582EF3400F583E0600478FD
:104EC0000480027800E82404F8EAC3985003024FF3
:104ED0007978029005A2E8F0EE24F5F582EF34002F
:104EE000F583E09005A3F0EE2483F582EF3400F51E
:104EF00083E0601B7508A275090578081219CD7C3E
:104F0000027903EEFA120CEC740212177978067427
:104F10000128F5D975D9037582A27583058808E043
:104F2000F5D9A31508E50870F675E195EE2474F53A
:104F300082EF3400F583E4F0EE2480F582EF340054
:104F4000F583E4F0EE241DF582EF3400F583E4F000
:104F5000A3F07904120E06EE240DF582EF3400F56D
:104F600083E0F8A3E0F9EE2472F582EF3400F583D4
:104F7000E8F0A3E9F0790180027900024D9574F61A
:104F80001217BA9061D0E0F87480C398FCEA2483C9
:104F9000F582EB3400F583E0600478048002780049
:104FA000E82404F8ECC398405B79029005A27407EA
:104FB000F0EA24F6F582EB3400F583E09005A3F0E7
:104FC000EA2483F582EB3400F583E060187508A2CB
:104FD00075090578081219CD7C0209120CEC7402CF
:104FE0001217797906740129F5D975D9037582A24A
:104FF000758305E9F8E0F5D9A318E870F875E1952F
:10500000790180027900024D9574F51217BAE9FC16
:10501000A2AFE433F50AC2AF7D0080010DEA246F30
:10502000F582EB3400F583E0F8EDC398501A8D0853
:10503000EA2508F8EB3400F9E8246BF582E934003E
:10504000F583E06C70D68024EA246FF8EB3400F925
:10505000E0FEEA2EFAEB3400FBEA246BF582EB3437
:1050600000F583ECF088828983E004F0E50AA2E091
:1050700092AF7F0302188C74F61217BAA2AFE43312
:10508000FDC2AFEA246FF582EB3400F583E014F043
:105090007C0060368C08EA2508F8EB3400F9E82437
:1050A0006CF582E93400F583E0C0E0E8246BF5821A
:1050B000E93400F583D0E0F00CEA246FF582EB349C
:1050C00000F583E0F8ECC39840CAEA246EF582EB61
:1050D0003400F58374FFF0EA246AF582EB3400F5BE
:1050E00083E4F0EDA2E092AF024D95C082C083E56B
:1050F000A8F8C2AFEA246BF582EB3400F583E9F03F
:10510000EA246AF582EB3400F583E4F0E8A2E79242
:10511000AF02425574F31217BAEAFEEBFFECFAED58
:10512000FB8A828B83A3A3A3A3E0541FF0EE243653
:10513000F582EF3400F583E4F0F50AEEFCEFFD8A2A
:10514000828B83E0C0E0EC245DF582ED3400F583D2
:10515000D0E0F0750B00E50A33333354F8F50C8AD0
:10516000828B83E0F508750900E50B78081217318A
:10517000E508A2E0502FEE2436F8EF3400F98882DB
:105180008983E0F508EE2508F508EF3400F509E518
:10519000082438F582E5093400F583E50CF08882AF
:1051A0008983E004F0050B050CE50BC3940840AFC0
:1051B000050A8A828B83A3AA82AB838C828D83A308
:1051C000AC82AD83E50AC39405500302513F7F05CD
:1051D00002188C74F71217BA900430E0640170075B
:1051E0007A007B0002534A7E00900436E070F1742E
:1051F00001F0A3E4F0A3F090049604F0900499E485
:10520000F0A3F090049C04F0900439E4F0A3F0A320
:10521000F0A3F090044304F0900469E4F090819DC1
:1052200012165190044C12165D900450E4F0A3F055
:10523000A3F09004B4F09004A8F090049D7480F062
:10524000A3E4F09004A3F090049BF090051FF0A35A
:10525000F0A3F0A3F0A3F0A3F0A3F0A3F09005282F
:10526000F09004B7F0900507F0A3F090819D12161E
:105270005190050912165D90819D12165190050DF1
:1052800012165D900513E4F0900515F0900511F0ED
:1052900090052BF0A3F0A3F0A3F0A3F0A3F0A3F0EC
:1052A000A3F078307904E8246FF582E93400F583BF
:1052B00074FFF00E88828983A3A882A983EEC39429
:1052C0000440E37A307B04783F790588828983E063
:1052D000C0E0EA2461F582EB3400F583D0E0F08889
:1052E000828983A3A882A9838A828B83A3AA82ABA3
:1052F00083E864447003E9640570D07A307B0478F5
:1053000017790488828983A3E0C0E0EA24E7F58264
:10531000EB3400F583D0E0F088828983A3A882A9CA
:10532000838A828B83A3AA82AB83E8641F7003E91C
:10533000640470CF900430E004F0640170089004BD
:1053400038E0900432F07A347B04024CC9C082C049
:1053500083900437E4F0900436F0900430F0A3F02A
:10536000A374FFF075E1F1024255C082C08378005A
:105370007900900437E06004783479048882898366
:10538000A3A3A3A3E0F902425574F61217BAEAFEEA
:10539000EBFF8E828F83A3A3A3E0600F8E828F83A7
:1053A000A3A3A3E4F0900431E014F0900430E014DF
:1053B000F0700690043274FFF08E828F83A3A3E412
:1053C000F0900544E0700D900431E06401700579BF
:1053D00000120DE8EE2465F582EF3400F583E0F865
:1053E000A3E0F9E8496029EE2465F8EF3400F98874
:1053F0000889098882F583E0FCA3E0FD900432E08F
:10540000FA7B001209B0850882850983E4F0A3F0D5
:10541000EEFAEFFB120D1C024D9574F71217BAEA63
:10542000FEEBFF8E828F83A3A3A3A3E0FA7B00127F
:1054300009F2EEFAEFFB120C6E120D04024CC9C019
:1054400082C0837817790488828983A3E4F08882F4
:105450008983A3A882A983E8641F7003E9640470A8
:10546000E69004180247A674F61217BAEAFEEBFF9C
:10547000EC2403F8ED3400F988088909EC2407F8D6
:10548000ED3400F9E8FCE9FD8C828D83E0F8A3E0BF
:10549000F9850882850983E0FAA3E0FB1216D8EEAD
:1054A000240DF582EF3400F583E8F0A3E9F08C8257
:1054B0008D83E0F8A3E0F9850882850983E0FAA3EB
:1054C000E0FB1216D88B09EA45096013EE240DF5AE
:1054D00082EF3400F583E02401F0A3E03400F00211
:1054E0004D9574F61217BAEAFEEBFFEE242EF58204
:1054F000EF3400F583E0FCA3E0FD780079FAECFAE4
:10550000EDFB1216D8EE2470F582EF3400F583E837
:10551000F0A3E9F0780079FAECFAEDFB1216D88BDB
:1055200009EA45096013EE2470F582EF3400F58333
:10553000E02401F0A3E03400F0024D9574F012175E
:10554000BAEAFEEBFF74101217AE78081216331287
:105550000DA68A0C8B0D8C0E8D0F90817D780C1210
:1055600015BF9081D1780C12160D780C1219C98EC6
:10557000828F83E0F8A3E0F5838882A3A3121651FB
:105580001223627404121779E960030256898E822D
:105590008F83E02402F8A3E03400F9E8FAE9FB8AFB
:1055A000828B8378081215D29081D1780812163335
:1055B0008A828B837808121620EE240BF582EF3452
:1055C00000F583C082C0838E828F83A3A3A3A3A38D
:1055D000E02401F8A3E03400F9D083D082E06870C1
:1055E00003A3E0697005790102568B8E828F83A335
:1055F000A3A3A3A3A3A3E02401F0A3E03400F0EE4F
:105600002474F582EF3400F583E064017036EE24F3
:1056100075F582EF3400F583E0F8A3E0F98E828F10
:1056200083A3A3A3A3A3A3A3E0687003A3E069706B
:1056300013EE2475F582EF3400F583E02401F0A326
:10564000E03400F0EE2480F582EF3400F583E0646E
:10565000017036EE2481F582EF3400F583E0F8A383
:10566000E0F98E828F83A3A3A3A3A3A3A3E0687012
:1056700003A3E0697013EE2481F582EF3400F58313
:10568000E02401F0A3E03400F079007F0802188CD8
:1056900074F71217BA900432E0F875F004A4C8AA9F
:1056A000F02AF9743428FE740439FF8028EE24654A
:1056B000F8EF3400F988828983E0FCA3E0FD88825A
:1056C0008983E4F0A3F08E828F83A3A3A3A3E0FADF
:1056D0007B001209B0EE2465F582EF3400F583E01B
:1056E000F8A3E0F9E849604FEE2464F582EF340056
:1056F000F583E0F50878081219D1EE2463F582EFFE
:105700003400F583E0F9EE2465F582EF3400F5838B
:10571000E0FCA3E0FDEEFAEFFB120C987401121707
:1057200079E96089EE2465F582EF3400F583E0F8CD
:10573000A3E0F9E84970137C007D008E828F83A37B
:10574000A3A3A3E0FA7B001209B0024CC974F212C1
:1057500017BAEAFEEBFF890A740E1217AEE0FAEEF2
:105760002462F582EF3400F583E06401600302589F
:10577000199061D0E0F87480C398F50CEE2483F59D
:1057800082EF3400F583E0600478048002780089B9
:1057900008E928F8E43400F9E824020808E93400AC
:1057A000F9E50C98E499A2D265D0334068EA700517
:1057B000750B028003750B01E060397509007808EC
:1057C0001219CD7AA27B05120CCE740212177975CC
:1057D00008A275090578081219CDAC0AA90BEEFAD2
:1057E000EFFB120CEC74021217797404250AF50A07
:1057F0007CA27D057401250AF5D9850BD9E50A60DF
:105800000D8C828D83F8E0F5D9A318E870F875E166
:1058100095790080067907800279FF7F0602188C4F
:10582000C082C083E960208C828D83E08A828B8372
:10583000F08C828D83A3AC82AD838A828B83A3AAF2
:1058400082AB8319E970E0ECFAEDFB02425574EA91
:105850001217BA907803E06442705E9005A1E014DC
:10586000F07056C2AF12586800782AD0E0F618D00F
:10587000E0F6E59F5407F970059081A980039081B7
:10588000557808121633E9C4C0E07829E65508F5C2
:105890000808E65509F509740B7808121741D0E09D
:1058A0002508F8906270E0A2E740F8E8C333906200
:1058B00072F0906270E0D2E0F0900432E0F4700395
:1058C000025C71E0F875F004A4C8AAF02AF97434F7
:1058D00028FE740439FFEE2402F582EF3401F583CB
:1058E000E0F8A3E0F9E849601EEE2402F582EF3407
:1058F00001F583E0FAA3E0FBEE2401F582EF340129
:10590000F583E0F91210B88E828F83A3A3A3A3A31B
:10591000A3A3E0F8A3E0F98E828F83A3A3A3A3A39C
:10592000E8F0A3E9F0906054E090040BF09060552B
:10593000E090040CF0906056E090040DF0906057F9
:10594000E090040EF0906058E090040FF0906059E1
:10595000E0900410F090605AE0900411F090605BC9
:10596000E0900412F090605CE0FC900413F0906012
:105970005DE0FB900414F090605EE0FD900415F093
:1059800090605FE0FA900416F0900411E08C082516
:1059900008F8E43400F98D08E82508F8E93400F93E
:1059A0008B08E82508F8E93400F98A08E82508FAA0
:1059B000E93400FBEE24F7F582EF3400F583E02AAA
:1059C000F0A3E03BF08C08EE24F9F582EF3400F50B
:1059D00083E02508F0A3E03400F0EE24FBF582EF2D
:1059E0003400F583E02401F0A3E03400F0EE24FF5E
:1059F000F582EF3400F583E0F8A3E0F9E84960426E
:105A0000906000E0C333FCE433FDE82CF582E93D0F
:105A1000F583E02AF0A3E03BF0906000E0FA900408
:105A200013E0FCEAC333FAE433FBE82AF8E93BF974
:105A3000E8244AF582E93400F583E02CF0A3E03451
:105A400000F0900411E07011900414E0700BA3E0DA
:105A50007007A3E07003025B518E828F83A3A3A320
:105A6000A3A3E0F8A3E0F9EE240DF582EF3400F5EE
:105A700083E028F8A3E039F9EE240BF582EF340037
:105A8000F583E8F0A3E9F0EE240FF582EF3400F59A
:105A900083E4F0EE241CF582EF3400F583E064012A
:105AA000701EEE2420F582EF3400F583E0F8A3E0C9
:105AB000F9EE241DF582EF3400F583E8F0A3E9F058
:105AC00090040CE06052EE241CF582EF3400F58364
:105AD0007401F0EE246AF582EF3400F583E070384B
:105AE000EE2474F582EF3400F583E0702BEE248011
:105AF000F582EF3400F583E0701EEE2420F582EF8E
:105B00003400F583E0F8A3E0F9EE241DF582EF34CC
:105B100000F583E8F0A3E9F0906062E07003025CB6
:105B2000048E828F83E0F8A3E0F9E82406FCE934D0
:105B300000FDE82402FAE93400FB120DA08E828FEA
