:020000040000FA
:0600000002011D021EFFBB
:03002B0002262D7D
:03005300021F7217
:03006B000225FB70
:10008300021DB3E5C754F84401F5C7790122000006
:100093000080FB120086B90003020107E47921788E
:1000A30008B800028004F709D8FCE479297802B87B
:1000B30000028004F709D8FCE49002817873790A7E
:1000C3008002F0A3D8FCD9FA781A90014D7A01BACC
:1000D30000028007E493A3F608DAF9900BF3AA82EF
:1000E300AB8390014E783E79048015E493A3AC82F0
:1000F300AD838A828B83F0A3AA82AB838C828D83A8
:10010300D8E9D9E77582307583B6740312012F7568
:100113008291758300740012012F75D00075813FA1
:10012300751881751902759F00020096C09FF59F8F
:10013300E473D09F22D083D082C09FE493C0E07445
:100143000193C0E0740293F59F2201FF0000B40005
:100153000028002800283075A000A000A000A000FF
:1001630000080008E001F00010001000100010006B
:100173001000100050005000500010001000D00775
:100183000000000000000F000100050030750700AB
:100193001000010081FF0000FFE9060707EF06FFDB
:1001A30002020208025000A0000000E803022882B5
:1001B3000100000C82024882010000480C021682F2
:1001C300010000B202024882010000490C021882B9
:1001D300010000C8020248820100004A0C021A8290
:1001E300010000CA020248820100004B0C021C827B
:1001F300080000CB020248820100004C0C021E8260
:100203000100004D0CFFFF0100FF200228820100C6
:10021300000982024882010000B20C022082000021
:100223000000000214820300005A03310D310D3126
:100233000D310D310D310D310D310D310D310D31CB
:100243000D310D310DBF0FD70FB90FFFFF020202A2
:10025300020202020202010D0000001001022882C4
:100263000100000682024882010000F50C02388278
:10027300010000BA07024882010000F60C02368230
:100283000100001581024882010000F70C0234824C
:10029300010000F980024882010000F80C0232825A
:1002A300010000A580024882010000F90C0230829F
:1002B3000100009380024882010000FA0C022E82A2
:1002C3000100008180024882010000FB0C022C82A5
:1002D300010000B780024882010000FC0C022A8260
:1002E3000100000781024882010000FD0C025082D8
:1002F300010000FE0C01E803053F10FF000130750B
:1003030003020106000000000000000000000000DE
:1003130000000000000000000000000000000000DA
:10032300FFFF0600800CE8031E140953696D706C0F
:1003330065424C455065726970686572616C05125F
:1003430028002800020A000201050302F0FF536996
:100353006D706C6520424C4520506572697068650C
:1003630072616C091400000F140A0064000A4368E8
:100373006172616374657269737469632031000229
:10038300436861726163746572697374696320326F
:1003930000084368617261637465726973746963A9
:1003A300203300104368617261637465726973740A
:1003B3006963203400024368617261637465726922
:1003C300737469632035000228820100000F8202E2
:1003D3004882010000150E023E82030000DD0B027D
:1003E3001282010000160E024882010000270E024D
:1003F3004082010000DE0B021282010000280E027F
:100403004882010000390E024282020000DF0B0223
:1004130012820100003A0E0248820100004B0E02D4
:100423004482000000E00B021482030000E10B028F
:1004330012820100004C0E0248820100005D0E0290
:100443004682040000E70B0212820100005E0E10D8
:100453004B65792050726573732053746174650022
:100463000228820100000382024882010000F70E85
:10047300024E82000000EC0B021482030000ED0B1D
:10048300021282010000F80E1201381DB00312019E
:100493003833B00312013860B00312013890B0034F
:1004A300120138B1B003120138E2B003120138F976
:1004B300B00312013806A8031201381DA803120164
:1004C300384CA80312013885A803120138ADA803DC
:1004D300120138DBA803120138F2A803120138090C
:1004E300A9031201381FA90312013846A9031201F7
:1004F3003859A9031201386FA90312013882A903DD
:10050300120138A7A903120138E2A502120138E14A
:10051300A6021201380BA70212013860A7021201CA
:100523003881A7021201389AA7021201389CA70248
:10053300120138BDA702120138C0A8021201387D8A
:10054300A9021201384AAA02120138BDAA021201F5
:1005530038C0AA0212013846AB0212013889AB0235
:10056300120138C0AB0212013846AC02120138182E
:10057300AD021201381BAD0212013879AD0212012E
:100583003891AD021201380BAE021201380EAE02E1
:1005930012013811AE0212013814AE02120138BB37
:1005A300AE02120138CEAE02120138E6AE021201DB
:1005B3003816AF0212013823AF0212013826AF02F8
:1005C30012013892AF0212013880B002120138369C
:1005D300B102120138DDF30212013805F4021201EF
:1005E3003833F4021201386AF402120138D2F402E9
:1005F3001201381BF50212013866F502120138A404
:10060300F502120138E1F5021201380FF602120168
:1006130038B6F602120138C0F602120138CDF602DE
:1006230012013800F702120138C2F702120138CE64
:10063300F702120138E6F702120138F0F70212014D
:1006430038DBB303120138E9B30312013801B403F1
:1006530012013819B403120138DBB80112013879D9
:10066300B901120138F1B90112013806BB011201B7
:100673003840BB01120138E9BB01120138BEBC018D
:1006830012013822BE0112013879BE01120138006D
:10069300BF01120138E7BF0112013834C001120152
:1006A30038C2C001120138E6C001120138BBC201D1
:1006B300120138FCC2011201381EC3011201389F16
:1006C300C30112013889C4011201384FC501120157
:1006D300381BDD02120138EDDD0212013896DE020D
:1006E300120138D9DE0212013866DF02120138F234
:1006F300DF02120138D3E00212013802E1021201D3
:1007030038FEE10212013846E20212013848E302E0
:100713001201388CE302120138B2E30212013848A5
:10072300B503120138A69003120138BC90031201DD
:1007330038E290031201380A92031201381492032B
:100743001201386D93031201386D9403120138AE10
:10075300E902120138E3EA0212013816EB02120130
:100763003860EB021201381EED0212013802D60185
:100773001201388BD601120138CCD601120138D0C0
:10078300D80112013887DA0112013803DB011201A3
:1007930038E0DB011201380EDF01120138ACDF0152
:1007A30012013809E10112013892E201120138C93C
:1007B300E2011201386EE301120138AF6E0012013B
:1007C30038126F0012013857700012013867700039
:1007D3001201388A7000120138D570001201387A7C
:1007E30071001201387072001201383A730012015D
:1007F30038B27400120138F4740012013892750093
:10080300120138DF7500120138057600120138F342
:100813007700120138F87700120138D979001201F4
:10082300382D7A001201388F7A00120138B77A0016
:100833001201385B7B001201381D7C001201384E17
:100843007C00120138517C00120138997C0012019E
:1008530038DB7C00120138427D001201387CA10391
:100863001201388FA10312013898A103120138B184
:10087300A103120138FCA103120138D7A20312010C
:100883003866A303120138B1A303120138542600BA
:10089300120138602600120138992600120138DE51
:1008A30026001201389527001201381B2800120177
:1008B30038802800120138AC2800120138E52800DE
:1008C300120138F92A00120138D52C00120138C060
:1008D3002E00120138F72F0012013857320012018F
:1008E3003843330012013889340012013896350039
:1008F300120138B33500120138EB35001201380507
:1009030036001201386D3600120138073B00120120
:1009130038A83B00120138F93B00120138203C0093
:100923001201386E3C001201388C3C00120138E091
:100933003C00120138B93D00120138403F0012015A
:1009430038C83F00120138D4EE02120138DEEE023D
:10095300120138A9EF02120138C4EF02120138EA7A
:10096300EF021201382EF00212013866F002120172
:10097300388FF00212013808F1021201381DF1021A
:1009830012013832F10212013869F1021201387D85
:10099300F102120138AEF102120138E8F10212013C
:1009A3003814F2021201384CF202120138C9F20271
:1009B3001201381DF30212013866F3021201389056
:1009C300F302120138B5F302120138BA8C03120193
:1009D30038848D03120138678E03120138DD8E03CC
:1009E3001201381F8F031201384C9003120138EFA4
:1009F3008C02120138188D02120138318D02120156
:100A030038768E02120138548F02120138738F0226
:100A130012013800900212013843900212013890FB
:100A230091021201382F9202120138AE9402120180
:100A330038459502120138199602120138FB9602C5
:100A4300120138679802120138FA9802120138FB32
:100A5300AD0312013864AE03120138B8AE031201BC
:100A630038DFAE031201380080031201386D8003B2
:100A7300120138B88003120138AD8103120138A97D
:100A830082031201389383031201385AC5021201FB
:100A9300389CC50212013876C6021201384FC702CC
:100AA3001201384AC80212013829C90212013895C5
:100AB300C9021201385CCA02120138C7CA02120104
:100AC300382ECB0212013859CB02120138CACB029D
:100AD3001201385DCC02120138C6CC02120138DB98
:100AE300CC0212013823CD021201383CCD0212018F
:100AF30038A1CD02120138A4CD021201389E9B0306
:100B0300120138C69B03120138049C03120138C238
:100B13009C031201382D9D03120138499D031201D4
:100B230038719D03120138A19D03120138B09D0352
:100B33001201382A9E03120138509E03120138E431
:100B4300A901120138C1AB01120138BCAD01120178
:100B5300388FAE01120138DAAE0112013825AF0128
:100B630012013837AF0112013877AF01120138ACE7
:100B7300AF01120138F8AF0112013827B001120199
:100B8300384AB00112013897B00112013820B1017F
:100B93001201382DB30112013818B5011201385B67
:100BA300B501120138C0B60112013801B7011201B3
:100BB3003874B701120138C0B701120138E1B70127
:100BC300120138B1B8011201387199021201389C2F
:100BD300990212013883A002120138A7A20212015E
:100BE3003862A402120138BFA5021201382F400057
:100BF300120138C64000120138F34000120138399F
:100C030041001201387842001201389C420012015F
:100C130038334400120138AD4400120138C844008F
:100C23001201383D45001201386C4600120138C7E5
:100C33004700120138C94800120138264A00120140
:100C4300383F4A001201389C4A001201387E4B009B
:100C5300120138B14B00120138214C001201389BAC
:100C63004C00120138EA4C00120138B64D00120153
:100C730038BB4E001201389A4F001201382550003C
:100C83001201389350001201380751001201383015
:100C93005100120138EF510012013869530012015B
:100CA30038865300120138A5530012013836540018
:100CB3001201385B5400120138835400120138FECC
:100CC3005400120138585500120138AC5600120175
:100CD300386957001201383C580012013822E401E8
:100CE30012013872E4011201387EE4011201385B0B
:100CF300E5011201388BE501120138C3E501120148
:100D03003842E6011201387AE601120138CCE601D5
:100D130012013809E7011201382EE9011201385A8C
:100D2300EB0112013855ED0112013830EF011201C8
:100D3300384926001201383396011201387D960195
:100D43001201385C9C01120138DD9D011201383C0F
:100D5300A40112013837A50112013874A50112014B
:100D63003897A501120138D9A501120138E2A5016E
:100D7300120138ECA501120138D8A601120138CCB2
:100D8300A7011201386A5800120138E26200120109
:100D930038E86200120138F46900120138779403CD
:100DA3001201380D95031201382395031201389D62
:100DB3009503120138F3950312013831960312019A
:100DC300388E96031201380B9703120138149703D8
:100DD3001201382097031201383397031201386F39
:100DE3009703120138859703120138E49703120120
:100DF300385584031201386284031201387C84035A
:100E0300120138BB8403120138F984031201385EDE
:100E130085031201387385031201387E850312019D
:100E2300388B8503120138A28503120138B085037C
:100E3300120138BB8503120138C78503120138D666
:100E43008503120138E18503120138048603120178
:100E530038AD8603120138BD8603120138D78603E5
:100E6300120138F486031201381087031201383552
:100E730087031201383F8703120138538703120196
:100E830038728703120138D38703120138D98703D5
:100E9300120138DF8703120138E58703120138F1A5
:100EA3008703120138248803120138F6F101120175
:100EB3003878F20112013821F30112013869F40183
:100EC30012013877F6011201385DF70112013892E9
:100ED300F701120138B4F7011201385DF80112016C
:100EE300382DFA0112013856FA01120138CEFA01EF
:100EF30012013800FB011201380DFB0112013858B1
:100F0300FB011201387CFB01120138CDFD011201F6
:100F130038D7FE0112013833FF0112013884C701AB
:100F230012013895C80112013879C90112013883B9
:100F3300C901120138A5C901120138B1C901120151
:100F43003855CB0112013882CB0112013898CC01FC
:100F5300120138EDCC011201383CCE0112013811D7
:100F6300CF011201386DCF01120138D8CF01120120
:100F7300380DD00112013850D0011201381AD301B3
:100F830012013832D301120138C3D301120138D10F
:100F9300D3011201381ED4011201382CD4011201DD
:100FA3003898D40112013813D5011201386AD501DA
:100FB300120138A1B102120138C3B102120138D4AF
:100FC300B30212013893B602120138BDB7021201FF
:100FD300387BB80212013867B9021201380C7E005F
:100FE300120138317E00120138A77E00120138FE4B
:100FF300D50212013807D60212013810D6021201A7
:1010030038E8D60212013899D802120138C9D80239
:10101300120138F4D80212013824D9021201384FD0
:10102300D90212013883D902120138AFD902120151
:1010330038F2D9021201381DDA0212013864DA02D9
:10104300120138B9DA02120138FBDA0212013855FB
:10105300DB0212013880DB02120138CFDB021201FE
:1010630038FFDB021201382ADC0212013858DC0295
:101073001201387BDC0212013880FF01120138AC07
:10108300FF01120138D9FF01120138E3FF011201F8
:1010930038F3FF0112013827E40212013831E40268
:1010A30012013872E402120138BBE402120138F56E
:1010B300E4021201384BE5021201386CE502120119
:1010C3003875E502120138C9E502120138F2E5026A
:1010D300120138FCE5021201386AE602120138FAFD
:1010E300E60212013855E70212013883E7021201C2
:1010F300380BE8021201384AE8021201387FE8028D
:1011030012013891E802120138B0E802120138B92D
:10111300E80212013880E90212013810B10312010A
:101123003815A6031201384BA6031201387FA60314
:10113300120138CCA703120138B2B403120138C824
:10114300B403120138D2B4031201381CB5031201DF
:1011530038D1B50312013885F80212013898F80224
:1011630012013859F90212013898F902120138B5FF
:10117300F902120138EEF9021201383BFA021201A8
:10118300386DFA02120138A4FA02120138ADFC02DA
:1011930012013819FD0212013807B2031201382A6D
:1011A300B20312013859B20312013871B2031201AA
:1011B30038B3B203120138989E03120138BD9E035F
:1011C300120138E79E0312013888B603120138531F
:1011D3008201120138318401120138D085011201D4
:1011E300387B8601120138FB8601120138808701A2
:1011F300120138A98701120138848B01120138FBCF
:101203008B01120138128D011201384C8D0112012C
:10121300388D8D01120138D48E011201382A8F01C5
:10122300120138738F01120138E28F011201384E17
:1012330090011201387F9001120138979001120139
:1012430038B09101120138C091011201387693012F
:101253001201388D9301120138BF930112013861D5
:101263009501120138F5950112013856B7031201A1
:1012730038DEB6031201381DB70312013845B70330
:10128300120138FCB2031201380CB30312013821E6
:10129300B303120138D5B30312013810AF0312019F
:1012A3003895AF03120138F9AF03120138CCAC0300
:1012B300120138EEAC031201384FAD03120138614D
:1012C300AD03120138B1AD03120138EFAD031201C2
:1012D30038F2AD03120138A18803120138B588032F
:1012E3001201382F8903120138138A03120138EAD5
:1012F3008B031201384F8C03120138A68C031201A1
:1013030038F87F00120138DBA3031201386BA50301
:10131300120138CCA50312013812A603120138B901
:10132300A9031201380BAA031201387EAA03120182
:1013330038EBAA0312013826FD0212013850FD02D0
:101343001201381FFE02120138FBFE021201388C13
:10135300FF02120138C8CD0212013894CE021201E5
:1013630038D5CE021201380FCF021201386DCF02E9
:10137300120138C1CF021201381FD002120138B551
:10138300D002120138BDD10212013847D302120133
:1013930038E5D3021201384CD4021201385FD4026B
:1013A30012013853D5021201389CD50212013800BC
:1013B3008002120138328302120138C384021201FF
:1013C300381A8502120138378502120138B78502AF
:1013D3001201383387021201380288021201386F72
:1013E3008B02120138598C02120138BFBC02120160
:1013F30038A0BF02120138B8C00212013826C10258
:1014030012013836C2021201389EC3021201382576
:10141300C5021201381498031201385998031201B6
:10142300387698031201382C99031201387F9903F7
:101433001201384F9A03120138659B031201385188
:10144300AB0312013896AB031201381BAC03120134
:101453003893AC03120138C57F0012013827B70354
:10146300E066701008A3E066700A08A3E0667004E3
:1014730008A3E06622C3E7960809E7960809E796FA
:101483000809E79622C3E09608A3E09608A3E0962E
:1014930008A3E09622C008C3E096F50808A3E096E7
:1014A300420808A3E096420808A3E09645087001A5
:1014B300D3D00822080808EAC0E0EBC0E086F0E7D2
:1014C300A4FA180986F0E7A42AFA180986F0E7A413
:1014D3002AFA180986F0E7A42AFA1986F0E7A4FB8A
:1014E300E5F02AFA190886F0E7A42BFBE5F03AFAAF
:1014F300190886F0E7A42BFBE5F03AFA18180986D9
:10150300F0E7A4C5F02BFBE43AFA1908E7C5F0C6E7
:10151300A426F6E5F03BFBE43AFA1886F0E7A4F6D6
:10152300E5F00826F6E43B08F6E43A08F6D0E0FBDB
:10153300D0E0FA22E4CFC0E0E4CEC0E0E4CDC0E0E6
:10154300E4CCC0E075F020C3E633F608E633F608D2
:10155300E633F608E633F6181818EC33FCED33FDE2
:10156300EE33FEEF33FFC3EC9709ED9709EE9709CE
:10157300EF97191919400FFFEC97FC09ED97FD0937
:10158300EE97FE191906D5F0BEECF709EDF709EE53
:10159300F709EFF7191919D0E0FCD0E0FDD0E0FE10
:1015A300D0E0FF226016080808C6C313C618C61386
:1015B300C618C613C618C613C6D5E0EA22700908B2
:1015C3000808226016181818C6C333C608C633C6DF
:1015D30008C633C608C633C6D5E0EA22E627F608AE
:1015E30009E637F60809E637F60809E637F622E092
:1015F30026F608A3E036F608A3E036F608A3E0369D
:10160300F622E026F008A3E036F008A3E036F0085F
:10161300A3E036F022C3E697F60809E697F6080931
:10162300E697F60809E697F622C3E096F008A3E0EA
:1016330096F008A3E096F008A3E096F022E056F6B1
:1016430008A3E056F608A3E056F608A3E056F622F0
:10165300E056F008A3E056F008A3E056F008A3E034
:1016630056F022E0F608A3E0F608A3E0F608A3E0AC
:10167300F622E6F008A3E6F008A3E6F008A3E6F0F6
:1016830022E0FAA3E0FBA3E0FCA3E0FD22EAF0A33F
:10169300EBF0A3ECF0A3EDF022CAC0E0E6F0A30860
:1016A300DAFAD0E0FA22CAC0E0E0A3C582CCC58250
:1016B300C583CDC583F0A3C582CCC582C583CDC503
:1016C30083DAE6D0E0CA22C3E498F8E499F9121762
:1016D3000B8026C3E49AFAE49BFBE920E7E912179F
:1016E3000BE498F8E499F922C3E498F8E499F91221
:1016F300170BE498F8E499F9C3E49AFAE49BFB2204
:10170300EB20E7CFE920E7E0B90010BB0008E88A47
:10171300F084F8AAF022E4FBC8FA22EB70227B10D3
:10172300C833C8C933C9335007C39AC3DBF2800631
:101733009A50012ADBEAC833F4C8C933F4C9FA2240
:1017430075F008E4C833C8C933C933C99AC99B5073
:1017530004C92AC93BD5F0ECFBC833F4C8E4C9FA81
:1017630022600D08C6A2E713C618C613C6D5E0F358
:1017730022600C08C6C313C618C613C6D5E0F422EC
:10178300700422600D18C6C333C608C633C6D5E03D
:10179300F41822251810AF08F5184002151980080F
:1017A300F51840021519D2AF22C0D0251810AF0882
:1017B300F518500205198008F51850020519D2AF23
:1017C300D0D0222518F58210AF08F518400215195C
:1017D3008008F51840021519D2AF85198322251800
:1017E300F582E43519F58322E4732518C582C0E038
:1017F300E51934FFC583C0E0E518C3958224F810CA
:10180300AF08858319858218800885831985821816
:10181300D2AFCEF0A3E520F0A37808E608F0A3DE6C
:10182300FAEFF0A3E58124FAF8E608F0A3E608F05E
:10183300A3E608F0A30808E608F0A3E608F0A3155A
:10184300811581D0E0FED0E0F8158115811581E87E
:10185300C0E0EEC0E0222518C582C0E0E51934FFE0
:10186300C583C0E0E518C3958224F910AF088583CA
:10187300198582188008858319858218D2AFCEF026
:10188300A3E520F0A37808E608F0A3DEFAEFF0A3BF
:10189300E58124FBF8E608F0A3E608F0A30808E6D0
:1018A30008F0A3E608F0A315811581D0E0FED0E08F
:1018B300F815811581E8C0E0EEC0E0228519838523
:1018C3001882E0A3FEE0A3F5207808E0A3F608DF82
:1018D300FAE0A3FFE0A3C0E0E0A3C0E0E0A3C0E020
:1018E300E0A3C0E0E0A3C0E010AF088582188583C1
:1018F300198008858218858319D2AFD083D08202DC
:101903000135851983851882E0A3FEE0A3F52078CD
:1019130008E0A3F608DFFAE0A3FFE0A3C0E0E0A33A
:10192300C0E0E0A3C0E0E0A3C0E010AF08858218E8
:101933008583198008858218858319D2AFD083D017
:101943008222C0D02518C582C0E0E51934FFC583C3
:10195300C0E0E518C3958224F310AF088583198589
:1019630082188008858319858218D2AFC8F0A3E94D
:10197300F0A3EAF0A3EBF0A37908E709F0A3D8FA00
:10198300ECF0A3EDF0A3EEF0A3EFF0A3D0E0F0A30F
:10199300D0E0F0A3D0E0F0A3E520F0A3E5F0F0A3BE
:1019A30022851983851882E0C0E0A3E0F9A3E0FA59
:1019B300A3E0FBA37808E0F608A3DFFAE0FCA3E0CA
:1019C300FDA3E0FEA3E0FFA3E0C0E0A3E0C0E0A32B
:1019D300E0F5D0A3E0F520A3E0A3F5F010AF088570
:1019E30083198582188008858319858218D2AFD020
:1019F30082D083D0E0F8D0E0327404800674028091
:101A0300027401C0E0F4041217C6D0E012169C223F
:101A13007404800474028000CCC0E0EDC0E0E518DB
:101A2300C39CCCAD1950011D10AF068C188D1980C5
:101A3300068C188D19D2AF1216A9D0E0FDD0E0FCA8
:101A430022D083D082E9C0E0E493A3C386F0C5F03B
:101A530095F0F908E493A386F0C5F095F0700BE4D4
:101A630093A3C3994005E9048002A3E475F002A49B
:101A73002582F582E5F03583F583D0E0F9E493A37D
:101A8300C0E0E493C0E022D083D082ECC0E0EDC09C
:101A9300E0E493A3FCE493A3FDED4C600D121AD68E
:101AA300EC24FFFCED34FFFD80EFE493A3FCE4930F
:101AB300A3FDED4C600D121B15EC24FFFCED34FF70
:101AC300FD80EFD0E0FDD0E0FCE493A3C0E0E4931D
:101AD300C0E022C0E0C3E4939608740193961840D3
:101AE3000FE4936670080874019366187000701908
:101AF300A3A3C3E49396087401939618A3A3400D7C
:101B0300D0E0D0E0D0E0021AC6A3A3A3A3A3A3D03E
:101B1300E022C0E0C0F088F0E49366700808740126
:101B23009366187000A8F0A3A3700BD0F0D0E0D098
:101B3300E0D0E0021AC6A3A3D0F0D0E02274F512DD
:101B43001859EAFEEBFFEE2434F8EF3400F9880865
:101B53008909EE2435F582EF3400F583E0F8EE24AD
:101B630037F582EF3400F583E0F50AEC850AF0A43B
:101B7300FCAAF0850AF0EDA42AFDE82CF8E43DF96F
:101B83007A257B0012170BEA850882850983F054B6
:101B930007F87401B800028004C333D8FCC0E0E046
:101BA300131313541FF8EE28F8EF3400F9E8245DFB
:101BB300F582E93400F583D0E0F8E0586008EE24BC
:101BC30034F582EF801EEE2436F582EF3400F58380
:101BD300E0F5F0EA84A8F0EE28F8EF3400F9E82401
:101BE30038F582E93400F583E0F97F0402190574BE
:101BF300F5121859EAFEEBFFEE2434F582EF3400B8
:101C0300F583E0C0E0EE2435F582EF3400F583D0B0
:101C1300E0F08E828F83A3A3A3A3A3A3A3C082C058
:101C2300838E828F83A3A3A3A3A3E0F8A3E0F9D0B9
:101C330083D082E0C398F508A3E099F509EE2480E8
:101C4300F582EF3400F583E064017069EE2481F5D9
:101C530082EF3400F583E0F8A3E0F98E828F83A34B
:101C6300A3A3A3A3A3A3E0FCA3E0FD8E828F83A37E
:101C7300A3A3A3A3E0FAA3E0FBC3EA9CEB9D502735
:101C8300C3EC98ED99402EC3EA98EB9950277C3F1B
:101C93007D05EEFAEFFB120C8FEE2480F582EF3414
:101CA30000F583E4F0800EC3EA98EB9940E0C3ECBF
:101CB30098ED9950D9EE2434F8EF3400F9E8FCE9B3
:101CC300FDEE2435F582EF3400F583E0F8EE24379A
:101CD300F582EF3400F583E0F50AE508850AF0A400
:101CE300F508AAF0850AF0E509A42AF509E825080C
:101CF300F8E43509F97A257B0012170BEA8C828DFB
:101D030083F05407F87401B800028004C333D8FC8D
:101D1300C0E0E0131313541FF8EE28F8EF3400F972
:101D2300E8245DF582E93400F583D0E0F8E05860FB
:101D330008EE2434F582EF801EEE2436F582EF346C
:101D430000F583E0F5F0EA84A8F0EE28F8EF34001C
:101D5300F9E82438F582E93400F583E0F91225ED3A
:101D6300021BEDC082C083851882851983E0F8A326
:101D7300E0F9C3EA9CEB9D5012C3EC98ED9940192E
:101D8300C3EA98EB99501279018010C3EA98EB9952
:101D930040F5C3EC98ED9950EE7900D083D08222C0
:101DA300EAC39CFAEB9DFB22008521878522C6228C
:101DB300C0E0C0D0E8C0E0E9C0E0EAC0E0EBC0E0CA
:101DC300ECC0E0EDC0E0C008C009C00AC00BC0828F
:101DD300C083C0F0759B00906182E0A2E6400302DD
:101DE3001E91E591A2E64003021E917591BF9004F6
:101DF30004E064057008120DC7120DD38003120DA1
:101E0300CD752100120E2DE9900405F07900120E14
:101E130021120BFF7A017B00900403E0F91210F109
:101E2300907803E064426003021EDA9005A1E01497
:101E3300F06003021EDAC2AF121E3E00782AD0E021
:101E4300F618D0E0F6E59F5407F9700590817F807E
:101E5300039081AF7808121666E9C4C0E07829E6DA
:101E63005508F50808E65509F509740B78081217A3
:101E730074D0E02508F8906270E0A2E740F8E8C368
:101E830033906272F0906270E0D2E0F08049E0A299
:101E9300E55024E591A2E5501E7591DF900404E01E
:101EA300640D7013900426E004F064287002E4F0DB
:101EB3007A00E0F9120E9F906181E0A2E35009E5F8
:101EC300E9A2E3500375E9F7A3E0A2E75009E5911E
:101ED300A2E7500375917FD0F0D083D082D00BD08E
:101EE3000AD009D008D0E0FDD0E0FCD0E0FBD0E080
:101EF300FAD0E0F9D0E0F8D0D0D0E032C0E0C0D0E2
:101F0300C082C083906183E0A2E05009E5BFA2E0F4
:101F1300500375BFFEE0A2E15009E5BFA2E1500303
:101F230075BFFDE0A2E25009E5BFA2E2500375BF11
:101F3300FBE0A2E35009E5BFA2E3500375BFF7E05E
:101F4300A2E45009E5BFA2E4500375BFEFE0A2E5A8
:101F53005009E5BFA2E5500375BFDFE0A2E65009D3
:101F6300E5BFA2E6500375BFBFD083D0828088C08F
:101F7300E0C0D0E8C0E0E9C0E0EAC0E0EBC0E0ECDC
:101F8300C0E0EDC0E0C0F0E5A7A2E6500FE5A1A2D6
:101F9300E6500953A7BF75A1BF121FD7E5A7A2E556
:101FA300500CE5A1A2E5500653A7DF75A1DFE5A715
:101FB300A2E15009E5A1A2E1500375A1FDE5A7A2A5
:101FC300E2500CE5A1A2E2500653A7FB75A1FBD09A
:101FD300F0021EE874F8121859752101900404E008
:101FE30064067015120D5B8A828B83A3A3A3A3A33C
:101FF300A3E0FAA3E0FB120DB5A2AFE433FED2AF28
:1020030090040AE0640170187A207B00900403E0D6
:10201300F912117B7A207B00900403E0F91210F788
:10202300906182E0D2E6F09005A0E0602185C622AF
:102033008016900409E064017008E5C654F844056D
:10204300F5C653BEFC121DAC7401652160E4EEA21B
:10205300E092AF7F01021905008E238F2485822829
:10206300858327851882851983E0CEA3E0CF852851
:1020730082852783EBC9EAC8EDCBECCA75F010C3A0
:10208300E833C8E933C9EA33CAEB33CBC3EA9EF575
:1020930026EB9FF525B35004AB25AA26EC33CCEDF4
:1020A30033CDD5F0DAAE23AF242274EB1218597472
:1020B300FA1217968A088B098C148D15900404E084
:1020C30024F7C3940550069081F302220F120D5B8F
:1020D3008A0A8B0BAE0AAF0BEE4F700302220CACD5
:1020E30008AD09851882851983AA82AB83120DE591
:1020F3008E828F83A3A378081216669081D77808FF
:10210300121640851882851983780C121666908101
:10211300D7780C1216407808790C121478501F786F
:1021230008790C1216189081737808121498404796
:10213300850810850911850A12850B138041850CCA
:1021430010850D11850E12850F137810790812165C
:10215300189081737810121498501C751000751123
:10216300007512007513017810790C121618781087
:1021730079081215DF80089081F3781012166674BF
:102183000978101215C09081EB7808121666781042
:1021930079081215378E828F83A3A3A3A3A3A3E089
:1021A300F8A3E0F97AD07B0312170B88088909E4B6
:1021B300F50AF50B781079081215DF74041217E18C
:1021C300E0F8A3E0F97AD07B0312170BE8FA8A0848
:1021D300E4F5097810790812147850077810790813
:1021E300121618900404E06408600AE064066005AF
:1021F300E06405701C908177781012149850129047
:10220300817B78101215F2800890819F7810121646
:102213006685148285158378101216757406121755
:10222300AC7F0E02190574F7121859120DF79005B9
:102233009EE064017010906245E4F0A3F053F4F360
:1022430043FE0C5390F3120DA3E5C654804449F5A5
:10225300C6E59E547F644970F8906185740FF090D1
:10226300059CE0F47002A3E0604E90059DE06008D9
:1022730014601B14602E80407508017509009005D9
:102283009CE07808121783E508F45280802A7508C9
:102293000175090090059CE07808121783E508F49E
:1022A3005290801475080175090090059CE0780828
:1022B300121783E508F452A079007F02021905740E
:1022C300F7121859E9FEEAFF74016E700C7A807BED
:1022D30000900403E0F91210F190264CE493F460AB
:1022E30008E493F9120BF3800953C680E59E547FEB
:1022F30070FA120DA990059EE064017003120C118F
:1023030090059CE0F47002A3E0604B90059DE060B3
:102313000814601A14602C803D750801750900903B
:10232300059CE07808121783E50842808028750829
:102333000175090090059CE07808121783E50842AF
:1023430090801375080175090090059CE0780812C8
:102353001783E50842A0120DF7120D5B8A088B095B
:10236300A808A909E8496015E5E170FCE82414F51B
:1023730082E93400F583E0F46003E0F5E174016F72
:10238300700A7A01900403E0F91211450222BD7428
:10239300F11218598A088B098C0A8D0B740F1217C6
:1023A300E1780C1216669081D77808121640908156
:1023B300D7780C1216407808790C121478501578D7
:1023C30008790C1216189081737808121498401526
:1023D30079018013780C7908121618908173780CA0
:1023E30012149840EB79007F0802190574ED121856
:1023F300598A088B098C0A8D0B74131217E1780C18
:102403001216669081D778081216409081D7780CFF
:10241300121640780C790812147840117808790C58
:10242300121618AA08AB09AC0AAD0B80227510006E
:102433007511007512007513017810790C121618B6
:10244300781079081215DFAA10AB11AC12AD137F07
:102453000C0219059081D778081216668A828B833D
:1024630078081216537F0402190574F51218598C53
:10247300828D8378081216668A828B8378081216F7
:102483002CEA2404F8EB3400F98C828D83A3A3A3F4
:10249300A3E0FCA3E0FD88828983C3E09CF0A3E072
:1024A3009DF088828983C3E09420A3E0944E402268
:1024B3009081FB78081216668A828B83780812163D
:1024C300058A828B83A3A3A3A3E02420F0A3E03493
:1024D3004EF0808074F5121859E9FE900556E0FA23
:1024E300A3E0FBEEC333F8E433F974E928F582740F
:1024F3008039F583E02AF508A3E03BF50978081253
:102503001A009081F712168412205C74021217AC21
:102513008A088B098C0A8D0B741078081215A7AAE8
:1025230008AB097F0402190574F11218598A0C8B40
:102533000D8C0E8D0F740F1217E1E0FAA3E0FB74FC
:10254300111217E1E0F508A3E0F50974131217E17E
:10255300E0FEA3E0FF7808121A00EA2401F508EB75
:102563003400F509E4F50AF50B780C79081214B771
:102573009081877808121666780C79081214B7AA26
:102583000CAB0DAC0EAD0F12205C74021217AC8BAA
:1025930009EA450960047A0180027A00EC2AFCED1D
:1025A3003400FDECF8EDF97A717B0212170B880801
:1025B3008909E4F50AF50B8E828F83780812167564
:1025C300ECF8EDF97A717B0212170B8A088B097408
:1025D3000578081217838E828F83A3A3A3A3E5082C
:1025E300F0A3E509F07F08021905C082C083E990D2
:1025F3006000F0D083D08222C0E074F2121945A2A9
:10260300AFE433FED2AFE589A2E04006E589A2E15B
:1026130050031212C5758900758900C2C5751A0069
:10262300EEA2E092AF7F010219A4C0E0C0D0E8C0DF
:10263300E0E5A8D2AFC2C7751A00A2E792AFD0E017
:10264300F8D0D0D0E032020135FFFFFFFFFFFFFFDC
:10265300FFC082C083E9900CB1F00228D874F7124E
:1026630017EDE9900322F07C5A7D037AFF7BFF127A
:10267300091D90032374FFF0A3F0A3E4F0A3F07902
:10268300051208A5900322E0F91207C77A3B7B09DC
:10269300120B030235E674F41217ED8A088B09EB6B
:1026A30054806030900322E0F91210D98A0A8B0B10
:1026B300AE0AAF0BEE4F60138E828F83E064B0706F
:1026C300031208BDEEFAEFFB1210C7AA08E509646E
:1026D30080FB80047A007B000228A774F21217EDB6
:1026E30074FC121796EAFEEBFF74121217E1123A0A
:1026F300CDEE4F700302278174021217E1EEF0A3AF
:10270300EF122AE2ECF0A3ED122AE2AA82AB8312C3
:1027130007C1E9F50A706AE508450960648E828F8E
:1027230083123AB3EE4F60567A067B0012112D8A5C
:102733000C8B0DA80CA90DE8497005750A1380418F
:1027430088828983E412278EEEF0A3EF123ADEE546
:1027530008F0A3E509F090032812281590032870C8
:1027630005123590801B12357E8003EAFCEBFD8C4D
:10277300828D8312281570F38C828D8380E3750A12
:1027830002A90A74041217AC023CCDF0A3123A84D6
:10279300A32274F21217ED890AE975F017A4FEAFAC
:1027A300F0900327E4F0900325122815600A121114
:1027B30033900325E4F0A3F0EEFAEFFB12112D8A18
:1027C300088B09EA4509602FEEFCEFFD7900121032
:1027D300B5900325E508F0A3E509F07B0080081216
:1027E30027FFE4F0A3F00BEBC3950A40F2E50A9050
:1027F3000327F0790080027913023CCDEB75F017C3
:10280300A4F8A9F0900325E028FAA3E0398A82F519
:102813008322123222EA4B2274F41217ED740C1243
:1028230017E1123AA8FEE9FF750800750900800C4C
:10283300E5082401F508E5093400F509C3E5089C1A
:10284300E5099D503285080A85090B7403780A123D
:102853001783EA250AF8EB350BF988828983A3A34A
:10286300A3A3A3A3123665EE650A7003EF650B708D
:10287300BFE8FAE9FB80047A007B00802774F41236
:1028830017ED7900EAA2E0501B75084A75098178B3
:1028930008121A007C047D007AB37B0C12089F7423
:1028A300021217AC7F040218BFC082C083900328B2
:1028B3001228DF601C88828983A3A3E06A7003A3C4
:1028C300E06B8882898370E8A3A3A3A312321E80DE
:1028D300047A007B00D083D082020135123DB3E835
:1028E300492274EE1217ED74FC121796EAFEEBFF01
:1028F300851882851983E4F0A3F0EE240212357063
:10290300EE2405123A8BEE2404F50EEF122E97E017
:1029130024FE603924FC604624FE605224FE605E7F
:1029230024FE70030229F824FE7003022A5C24FEAD
:102933007003022A6B24FE7003022A7A24FC7003BC
:10294300022A8924FE7003022A98022AD5900341A1
:102953007417F0A3E4122AEA1204BB022AD58518DD
:1029630082851983AC82AD831208C3022AA5851818
:1029730082851983AC82AD831208C9022AA5850C0E
:1029830008850D0974021217E1AC82AD83850882B4
:1029930085098312321E1207E58A0C8B0DAC0CAD30
:1029A3000DEC4D603BE4F50CF50D780C121A007537
:1029B3000C41750D03780C121A00750C42750D034A
:1029C300780C121A0074081217E1121A17123F2F0B
:1029D3001217ACE9F50C700B1232141204D3800FEA
:1029E300750C01850882850983122AD812359085D2
:1029F3000C08022AA874021217E1AC82AD83850C7D
:102A030082850D83122FE9603C850C82850D83A39B
:102A1300A3121A177510417511037810121A007555
:102A230010427511037810121A0074081217E1127C
:102A33001A17123F2F1217ACE9F509700B12321453
:102A43001204D9800F750901850C82850D83122A22
:102A5300D8123590850908804C851882851983AC76
:102A630082AD831208CF803A851882851983AC82A0
:102A7300AD831208D5802B851882851983AC82AD6E
:102A8300831208DB801C851882851983AC82AD8391
:102A93001208E1800D851882851983AC82AD8312FB
:102AA30008E7E9F508E50860298E828F83A3E064CF
:102AB30014601F850E82850F83E0900341122AE282
:102AC300123DAF900342123590E508A3122AEA1291
:102AD30004B502347F123DB385188285198322F031
:102AE30085188285198322F07C417D03850A8285BE
:102AF3000B831232222274EE1217ED74FC12179616
:102B03008A0A8B0B8C0E8D0FEA2405F508EB340033
:102B1300F5097C157D0079007A417B031210B5E538
:102B2300082402F50CE509123A8E8518828519836B
:102B33008582108583117810121A00850882850911
:102B430083A3A3A3A3122FE0121A00E5082405F51B
:102B530010E5093400F5117810121A00850C8285EE
:102B63000D831233351207DF74061217AC8A108BEC
:102B730011AE10AF11E50A2402F50AE50B12357305
:102B8300EE4F7003022CB7801774021217E1123252
:102B93001E88828983EAF0A3EBF0900341E004F0FE
:102BA300900341E0C394054003022CB7E4F510F50C
:102BB300117810121A0075102A7511037810121A61
:102BC3000075102B7511037810121A007406121772
:102BD300E1121A177910EEFCEFFD123F311217AC18
:102BE300E9705E850882850983A3A3A3A3A3A3A396
:102BF300E0F890032AE0687048122FE0121A007C74
:102C03002B7D03E5082408FAE5093400FB1210AF15
:102C130074021217ACE960298E828F83A3A3A3A346
:102C230012321E900341E0F51074027810121783DC
:102C330074422510F58274033511F583EAF0A3EB92
:102C4300F074021217E18582108583117810121A2D
:102C53000074021217E1121A17850C82850D831274
:102C630032441217AC8A108B11AE10AF119003418E
:102C7300E0F5107511007402781012178374412562
:102C830010F874033511F988828983A3122815700B
:102C930003022B83E82403080808E93400F9EE4F04
:102CA3006003022B8C8882898374FFF0A3F0900366
:102CB30041E004F0900341E0600A1232141204C7A9
:102CC3007900800B850882850983123587790A028A
:102CD300347F74EA1217ED74FE1217968C128D135B
:102CE300EA2405F50CEB123F19123AB77508007583
:102CF3000900EA2402F510EB3400F51185188285EA
:102D0300198385820A85830B780A121A00850C823F
:102D1300850D83A3A3A3A3122EAD121A00E50C24E1
:102D230005F50AE50D123573780A121A00850C822F
:102D3300850D83122EB11207DF74061217AC8A0AAF
:102D43008B0BEA450B7003022E52EA2404F50EEBBB
:102D5300122E97123AB78A828B83A3A3A3E0F98535
:102D630010828511831232286003022E52E4F51477
:102D7300F5157814121A0075142A751503781412B0
:102D83001A0075142B7515037814121A00740612A1
:102D930017E1121A177913AC0AAD0B85108285114E
:102DA30083123F371217ACE9F5096003022E5290E4
:102DB300032AE0F8E5087009E02402900342F0805A
:102DC30014900342E0FCE82402FAE43400FBEA6CCA
:102DD3007001EB707E850882AA82122FD794141299
:102DE3002FCF506B850E82850F83E0C0E074432A9A
:102DF300122E8ED0E0F00508850E82850F83A3E0A6
:102E0300C0E085080A7443250A122E8ED0E0F0052F
:102E13000890032A122EAD121A007C2B7D0385081D
:102E23000A7443250A122EA11217AC90032AE02537
:102E330008F50874FF6E700374FF6F6012EE2401CF
:102E43000EEF3400FFE508C394145003022CFFE592
:102E530008601312323285108285118312321E12DA
:102E630004CD79008014E509700375090A8512827F
:102E7300851383EEF0A3EFF0A90974021217AC7F58
:102E83000E0218BF85080C7443250CF582740334B5
:102E930000F583223400F50F850E82F58322FA7440
:102EA300033400FB12109D740222123AED22A3A3F5
:102EB300122EB72212357EFDEEFAEFFB2274EE12CC
:102EC30017ED74FE1217968C0E8D0FEA2405F50C80
:102ED300EB123A8E750B00900341E4F0F50AEA24F5
:102EE30002F508EB3400F5098044900341E0FA90C1
:102EF300032AE0F8122FD79417122FCF400D900317
:102F030041E0F87416C39890032AF0122FE0121AC6
:102F1300007C2B7D0374422AFA7403122EA4121729
:102F2300AC90032AE0F8900341E028F0050AE50C91
:102F33002416F582E50D122E92E0F8E50AC39850A7
:102F430074900341E0C39416506BE50AC333F8E46D
:102F530033F9E50C28FEE50D39FF851882851983C1
:102F6300AC82AD838E828F83122FE97008750B01BB
:102F73001235838050E4F510F5117810121A00759C
:102F8300102A7511037810121A0075102B7511038E
:102F93007810121A0074061217E1121A177916859F
:102FA3000882850983123F371217ACE9F50B7003CA
:102FB300022EED80BB7C417D038508828509831247
:102FC300321E1204DFA90B7402023481E99400C398
:102FD30065D03322EA28F8E43400F9E822E0F5105A
:102FE3007511007810221234768A108B11AC10AD53
:102FF30011EC4D2274EA1217ED74FC1217968A0C29
:103003008B0D8C128D13EA2405F50AEB12357375BB
:103013000800750900E50A2402F510E50B3400F5F4
:103023001174021217E185820E85830F780E121A2E
:1030330000850A82850B83A3A3A3A3123A93121AD2
:1030430000E50A2405F50EE50B3400F50F780E12A2
:103053001A008510828511831235791232181207EE
:10306300DF74061217AC8A0E8B0FAE0EAF0FE50C92
:103073002402F50EE50D3400F50F8038888289832C
:1030830074FFF00508122E8774FFF0050890032AD9
:10309300E0F50C750D00780C121A007C2B7D03856E
:1030A300080C7443250C122EA11217AC90032AE0CE
:1030B3002508F508EE4F60278E828F83A3A3A3E034
:1030C300F9850E82850F83123228EE2404123A8B7F
:1030D300E96027850C82850D8312320A123590E54B
:1030E3000870030231F0123232850E82850F83128B
:1030F300321E1204E57900023205E4F514F5157861
:1031030014121A0075142A7515037814121A00750F
:10311300142B7515037814121A0074081217E11290
:103123001A177911EEFCEFFD850E82850F83123F8E
:10313300371217ACE9F509709A850882AA82EA90DA
:10314300032A7009E02404900342F08025E0F890FC
:103153000342E0F514E82404FCE43400FDEC6514B8
:103163007001ED7081122FD79412122FCF400302FA
:1031730030E9850C82850D83E0C0E074432A122E6A
:103183008ED0E0F00508850C82850D83A3E0C0E0B6
:10319300122E87D0E012324D85820C85830D780C78
:1031A300121A0074041217E1121A1785108285117E
:1031B300831232441217AC8A0C8B0DAE0CAF0D8503
:1031C300080C7443250CF874033400F9EE4F7003B4
:1031D30002307F851882851983E0888289831232C1
:1031E3004DA3E0C0E0122E87D0E002308DE50970D8
:1031F3000375090A850A82850B8312320A123590F8
:10320300A9097404022E7F123DB3851282851383AC
:10321300227C417D03850A82850B8312322222E0C0
:10322300FAA3E0FB221232221207CDE9F50922901C
:103233000342E0F5F0E50884900341F07C417D030F
:1032430022122EB71207EB740422F00508851882A8
:103253008519832274EC1217ED74FE1217968A08EF
:103263008B098C0E8D0FEA2405FEEB3400FF12341C
:1032730060EE2418123A8BEA450B700302330312F3
:10328300344950291233288A108B11EA4511606B97
:103293007912AC0AAD0B85088285098312321E852B
:1032A30010828511831217EBE9F50A7058E4F50AC9
:1032B300F50B780A121A008E828F83A3A3E0F50A16
:1032C300780A121A00EE2403123570780A121A00D3
:1032D3008E828F8312333512090B74061217ACE9F1
:1032E300F50A7021850C82850D83E0701F850882A5
:1032F30085098312321E1204EB8011750A0E8009B0
:10330300750A018004E50A6003123583850C828502
:103313000D83E0600479008002A90A74021217ACDD
:103323007F0C0218BF851882851983123222120876
:10333300F92212357EFD8508828509831232222205
:1033430074EE1217ED74FE1217968A088B098C0C13
:103353008D0DEA2405FEEB3400FF750E0012346078
:10336300EA450B7003023427123449502C123328D8
:103373008A0E8B0FEA450F604A7912AC0AAD0B85B2
:10338300088285098312321E850E82850F831217E8
:10339300EBE9F50E600302342A850882850983125E
:1033A3003665AA0AFB12343B70147AFF7BFF123492
:1033B3003B606C88828983E50AF0A3E50BF0750A0C
:1033C300008007750E0E805F050A900327E0FAE57B
:1033D3000AC39A504AE50A75F017A4FAABF088823B
:1033E3008983A3A3E02AFAA3E03BFB8A828B83129F
:1033F3003579EC4D70D2750A17750B00780A121ADD
:1034030000EEFCEFFD12109D74021217ACEEFCEF00
:10341300FD85088285098312321E1204F18014751A
:103423000E098003750E01123DAB850C82850D8359
:10343300123590A90E022FCA1208ED8A108B11A81B
:1034430010A911E84922E5082402F508E50934002A
:10345300F5098A828B83A3A3A3E0A2E522851882C0
:10346300851983AC82AD838E828F831234768A0A68
:103473008B0B22E0FAA3E0FB1207E5227404121778
:10348300AC7F0A0218BF74EC1217ED8C108D11EA91
:103493002405F50CEB123A8E750F00EA2402F50AA7
:1034A300EB123573850A82F58312321E123FBD700B
:1034B30003023565750E008071850C82850D83E0EE
:1034C3006401704F8E828F83A3A3121A178E828F8B
:1034D30083A3A3A3A3E0F5127513007812121A00B5
:1034E300EE2405F512EF3400F5137812121A0012C8
:1034F300321812090B74061217ACE9F50F60148524
:103503000C82850D83E4F0123DAB85108285118317
:103513001235907C177D007900EEFAEFFB1210B59F
:103523008E828F83E4F0A3F0050E900327E0F8E585
:103533000EC398501EE50E75F017A4F8A9F0850880
:1035430082850983A3A3123F23123579EC4D6003CF
:103553000234BC85088285098374FFF0A3F0E50F6C
:1035630070061232181204F7A90F023323F50AEF7B
:103573003400F50B22A312357EFD22E0FCA3E022EA
:103583008E828F83123DB3850E82850F83E8F0A36D
:10359300E9F022C082C083900323E06A7003A3E0B2
:1035A3006B70067A237B0380047A007B000228D8A1
:1035B30074F71217ED7F00EF75F003A4F8A9F0EC90
:1035C30028F8ED39F988828983E06A7003A3E06BF8
:1035D3007006E8FAE9FB800B0FEFC3940240D87A38
:1035E300007B007F010218BF74F61217ED123B9C9B
:1035F30070067A007B008007A3A3A3A312321E02E6
:103603003C5D74F21217EDE9FE740E1217E11236E7
:103613006574101217E1123ACD8C828D83E0640237
:10362300703BA3123DAF88828983E0F50CA3E0F9D8
:10363300A80C74026870037429697021750C0275F3
:103643000D00780C121A007808121A00780A121A60
:1036530000EEF912092F74061217AC8002790102E9
:103663003CCDE0F50AA3E0F50B2274E81217ED74E4
:10367300FB121796E9851882851983F08A168B1732
:103683008C0E8D0F741F1217E1123ACD742112178D
:10369300E112366574231217E1123AB77510008CE4
:1036A300828D83A3A3A3E0A2E4502A741D1217E121
:1036B30012332E8A828B83E5824583700302377926
:1036C300790AAC0EAD0FAA16AB171217EBE9F5107A
:1036D300600302377C850E82850F83E064026003FA
:1036E300023A32A3123DAF850882850983A38582FE
:1036F30012858313E50E2406F50CE50F123A8E8826
:10370300828983E0FAA3E0F9EA2400F514E439F5A9
:10371300157814121A8A010000280128413707007E
:1037230002281838032888370029423901296A39C1
:1037330002291139032942390429D339323AEE4F88
:10374300703E850C82850D83123AA8FAE9FB8A82C2
:103753008B83E0850A82850B83123AE4121A008A6E
:10376300828B83A312357EFDAA08AB0912109D74C8
:10377300021217AC800375100EA9107405023F11D5
:1037830075100B80F4EE4F70F7850A82850B8374F6
:1037930001F0123ABD850882850983F07C007D0023
:1037A300850E82850F83A3A3A3A3E02401FAA3E0DC
:1037B3003400FB1207E5EA4B60418A828B83E024E5
:1037C30002F8850A82850B83E028F0EA2404F8EBEB
:1037D3003400F988828983E0851282851383123A43
:1037E300F6123AE4121A008A828B83123578E508BE
:1037F3002403FAE5093400FB02376F850A82850B3F
:1038030083E02404F07C047D007900AA12AB131238
:1038130010B502377CEE4F6003023783123ABDFEC8
:10382300A3E0FF850A82850B837404F0EE8508828A
:10383300850983F0EF851282851383F074031217D1
:10384300E1AC82AD83EEFAEFFB123B8A70030238E0
:10385300EE8A828B83A3A3123AB374011217E18514
:10386300820E85830F780E121A0074051217E11267
:103873001A177CFF7DFF1207EB74041217AC8B0F32
:10388300EA450F7033850C82850D83123A93121A21
:1038930000850C82850D83A3121A177C027D007AA2
:1038A300267B821205C974041217ACE9700A7401ED
:1038B3001217E174FFF0A3F08E828F83E06402702D
:1038C30034750C02750D00780C121A008E828F83EA
:1038D300123578E5082404FAE509122EA41217AC70
:1038E300850A82850B83E02402800974011217E1A3
:1038F300EEF0A3EFF074011217E1123AA4F0740191
:103903001217E1A3123A9CA3A3A3F002377CEE4F54
:103913006003023783850C82850D83123579AA16DD
:10392300AB17120923850A82850B837402F0EA859B
:103933000882850983F0851282851383EB80CBEEA1
:103943004F6003023783123ABDF8A3E0F9850A8278
:10395300850B837402F0E8850882850983F0E98585
:10396300128285138380A3850C82850D8312321EF8
:10397300121097EAFC8C82A882C39EE49F404BE816
:103983006E7001EF70047C00801F85188285198397
:10399300E0FAEE2AFAEF3400FBC3EA98EB94005006
:1039A30003E08004EECCC39CFCEC850A82850B8388
:1039B300F08C0A750B00780A121A00850C82850DAB
:1039C30083E02EFCA3E03F02376A75100702377CC1
:1039D300EE4F6003023783850C82850D83123DAF62
:1039E300850A82850B837407F088828983123A9C47
:1039F300123A84E0851282851383F0E82402FAE9FF
:103A03003400FB8A828B83123A9C123AD5123AA471
:103A1300A3123ADE123AADF0E82405F8E93400F9CE
:103A230088828983123AADA3123AF6A302390A7443
:103A33001D1217E1123B957003023779123DAF88CF
:103A43000C890DE8450D70030237798E108F1178BC
:103A530010121A00780A121A007808121A00740653
:103A63001217E1E0F9AC0EAD0FAA16AB17850C8265
:103A7300850D831217EB74061217ACE9F5100237A4
:103A83007CF088828983A322F50CEF3400F50D22A4
:103A9300E0F50E750F00780E22E085088285098314
:103AA30022123AFD22123DB3E822123AFDA3A322C9
:103AB300A3A3A3A3E0FEA3E0FF22850C82850D83CD
:103AC300E0F8A3E0F5838882E022E0F508A3E0F5BF
:103AD3000922A3A3F08A828B83A322122790A3A394
:103AE30022F08A828B83123AED22E0F50A750B00ED
:103AF300780A22123A84123AFD22E0850882850967
:103B030083A3A32274EE1217ED74FE1217968A0A8A
:103B13008B0BECFAEDFB74141217E1E0F510A3E044
:103B2300F51174161217E1E0FE74181217E1E0F5AF
:103B33000EA3E0F50F851882851983AC82AD83123D
:103B43003B8A603E851882851983123B95602FA3BB
:103B5300A3123ACDE50845096024780E121A0078BD
:103B630010121A00EEF9AC0CAD0DAA0AAB0B8508C6
:103B7300828509831217EB74041217AC8006790E41
:103B830080027901022FCA1207E58A0C8B0DEA45E0
:103B93000D22123222123B9C221208B78A828B8397
:103BA300E58245832274F61217ED74FE121796749C
:103BB3000C1217E1123AA8851882851983F0740153
:103BC3001217E1E9F0E4F508F5097808121A00750F
:103BD30008027808121A0074041217E18582088516
:103BE30083097808121A0012090B74061217AC74B1
:103BF300021217AC806474F71217EDEAFEEBFF892B
:103C0300087C5A7D03120923EA5402600BA908EECB
:103C1300FAEFFB1207D9800279010235E674F61236
:103C230017ED74FF6A700374FF6B701C7B00EB75F8
:103C3300F003A4F8A9F0EC28F8ED39F9123C620B73
:103C4300EBC39402501480E61208F38A088B09A888
:103C530008A909E8496003123C627F020218BF8881
:103C630082898374FF12278EE4F02274F61217ED13
:103C73001208F38A828B83E58245836006A3A3E05F
:103C8300FA80027A007B0080D174F21217ED8A0861
:103C93008B09ECFEEDFF740E1217E1E0F50A123CFE
:103CA300D2701CEEFCEFFD7AFF7BFF123CD2700456
:103CB3007911801688828983E508F0A3E509F088E5
:103CC300828983A3A3E50AF079007F060218BF1255
:103CD30008F38A0C8B0DA80CA90DE8492274EE1287
:103CE30017EDEAFEEBFF8C088D09890C741212178D
:103CF300E1123DAF74141217E112357974161217DD
:103D0300E112321E750D00EC4D6003023DA37402F7
:103D1300650C6003023D9E8882898312357EF9EC2F
:103D23002400F50EE439F50FEAF4F8EBF4F9EC5856
:103D3300F8E50F59F9E849705DE5082406F8E50947
:103D43003400F9880A890B8882F583122EB312098D
:103D5300238A108B11E50E65107004E50F65116061
:103D630042780E121A00850A82850B83122EB31233
:103D7300092974021217ACE9F50D7027780E121A8F
:103D830000850882850983A3A3122EB11209417409
:103D9300021217AC800D750D808008750D0D800320
:103DA300750D0BA90D0234848E828F83123DB322CD
:103DB300E0F8A3E0F92274E81217ED74E7121796FE
:103DC300851882851983EAF0A3EBF08C168D178989
:103DD3000E74311217E1E0F512A3E0F513743312F8
:103DE30017E1E0F514A3E0F51574351217E1E0F5DA
:103DF3000F750800750900E50975F003A4F8A9F02B
:103E0300851882851983123F23E0F47003A3E0F43D
:103E13007003023F01EE2402F50CEF123F19E0702C
:103E230003023F0185160A85170B780A121A00ACA4
:103E330014AD15AA12AB131208AB74021217AC8A95
:103E43000A8B0BEA450B7003023F01E4F510F511F1
:103E53007810121A0074061217E1858210858311F7
:103E63007810121A0074091217E1858210858311E4
:103E73007810121A00851282851383A3A3A3A312B9
:103E83001A177914AC0AAD0B8E828F83123F371247
:103E930017ACE97069850A82850B83A3A3A3A312D8
:103EA3003DAF74021217E1123590850C82850D83A4
:103EB300E0A2E05018A90E74021217E1AC82AD83A0
:103EC3008E828F8312321E1207FDE94208850C820F
:103ED300850D83E0A2E15026E50FF50A780A121A50
:103EE30004A90E74031217E1AC82AD838E828F8313
:103EF30012321E1207F774011217ACE942080509C2
:103F0300E509C394025003023DFAA9087419121774
:103F1300AC7F100218BF3400F50D850C82F58322A7
:103F2300E028FEA3E039FF8E828F83227916850A6B
:103F330082850B8312322212090574082274F2124D
:103F430017EDEAFEEBFF890B7401650B600E74023B
:103F5300650B70637901120B21E9705BEEFAEFFBDD
:103F6300123FBD6047750A00800B7C177D00790006
:103F73001210B5050A900327E0F8E50AC39850210B
:103F8300E50A75F017A4F8A9F0850882850983A3CB
:103F9300A3E028FAA3E039FB8A828B831228DF701F
:103FA300C985088285098374FFF0A3F07C5A7D03D9
:103FB300EEFAEFFB12091D023CCD1208ED8A088BC5
:103FC30009EA45092274F21217ED8A088B09ECFEFF
:103FD300EDFF740E1217E1123665900CB1E0F46038
:103FE3003D7A097B001210C1EA4B60328A828B83CF
:103FF30074B1F0A3E4123AD7A3123AD5A3E508F0BB
:10400300A3E509124024EEF0A3EF124024A3A3E595
:104013000AF0A3E50BF0900CB1E0F91210CD023CCD
:10402300CDF08A828B83A3A3A3A3A322C082C083E0
:104033009061907404F0A37448F0A37402F090614B
:10404300807440F09061BC7403F09061877419F040
:10405300906265741BF090619C740DF090619A748A
:1040630033F0A37455F09061A0743AF090059EE08C
:1040730064017009C2919004087467800590040874
:104083007461F0902652E493906186F090264CE49C
:1040930093F46027E493540FF8906185E06860120D
:1040A300E5C654804449F5C6E59E547F644970F8DB
:1040B300E8F053C680E59E547F70FA7905120E81AD
:1040C300024271C082C083E9540FF9906185E069AF
:1040D3006012E5C654804449F5C6E59E547F6449A1
:1040E30070F8E9F053C680E59E547F70FA0242717E
:1040F300C082C083E5A8F853A87E906181E4F0A351
:10410300F0A3F0C2BA539AFEC289759B00C2C2756E
:10411300E90075910075BF0075A91175B905906126
:1041230081F0A374C0F0A3E4F0D2BA439A0174807F
:104133005842A8024271C082C08374F81217969045
:104143000406E0F8A3E0F9E849700302426790042B
:1041530006E0544060237908851882851983AA8272
:10416300AB83120CE9851882851983AA82AB83126B
:1041730009B3900406E054BFF0E054806010790C5A
:104183007AC27B05120CE9900406E0547FF0E0A2AA
:10419300E0503190619A7433F0A37455F09061A0AC
:1041A300743AF090059EE064017009C2919004088E
:1041B300746780059004087461F01209B9900406CD
:1041C300E054FEF0E05402603190619A743FF0A332
:1041D300745AF09061A0747FF090059EE0640170C2
:1041E30009D29190040874718005900408746AF0F0
:1041F3001209B9900406E054FDF0E05404601390F2
:104203002650E493906186F01209BF900406E054AF
:10421300FBF0E054086013902651E493906186F01C
:104223001209BF900406E054F7F0E05410601390B5
:104233002652E493906186F01209BF900406E0547D
:10424300EFF0E05420600A1209BF900406E054DF47
:10425300F0A3E05401600D120C111209C59004077C
:10426300E054FEF074081217AC8003F0A3F0D0837F
:10427300D082020135C082C083E9600814600A1449
:10428300600C80139026508008902651800390265E
:1042930052E493906186F080D574EC1217ED74F4B8
:1042A300121796851882851983AC82AD8375838135
:1042B30075829774041216A990265093F460030232
:1042C3004429907808E0C39402500302440974041B
:1042D3001217E1AC82AD8375838175822274081253
:1042E30016A9851882851983858212858313740420
:1042F3001217E1AC82AD83750EFF750FFF7FFF7E52
:1043030000750C48750D78801574086E70030243B0
:104313009C74096E700302439C740A6E607B850C67
:1043230082850D8378081216668C828D83A909E530
:104333000AC9F88810741878081215A7E5104508FB
:10434300F8C3E098A3E099850C82850D8378081261
:10435300166640188C828D83741878081215A7E5A9
:10436300104508F8E0C398F8A3E0801C7418780897
:104373001215A7E5104508FAE9FB8C828D83E0F856
:10438300A3E0F9EAC398F8EB99F9C3E8950EE99528
:104393000F5006880E890FEEFF0EE50C2404F50C72
:1043A300E50D3400F50DEEC39413500302430C7472
:1043B300FF650E700474FF650F60238F0874027825
:1043C3000812178374482508F58274783509F58334
:1043D3007808121666851282851383E508F0EC24AB
:1043E300020C0CED3400FD851282851383A38582B4
:1043F30012858313740C1217E1E5826C7003E58355
:104403006D60030242FA7508017509007808121AF3
:104413000074021217E1AC82AD837A947B09121205
:10442300A174021217AC740C1217AC7F0C0218BFE4
:10443300C082C0839061AE7468F0A3746AF0906226
:104443004574FBF0A304F053F4FD43FE0290059E74
:104453007401F09061A0E0643A90619A7023743320
:10446300F0A37455F09061A0743AF0740164017084
:1044730009C29190040874678028900408746180CD
:1044830021743FF0A3745AF09061A0747FF074011B
:1044930064017009D2919004087471800590040836
:1044A300746A0242707F040218BFC082C083900501
:1044B30050E06401700A900555E06004790C8002B5
:1044C3007900024271C082C08375E1F1900553E027
:1044D30060551460081460591460518059120C23FC
:1044E300900549E0F97A4A7B05120E0390818F12F9
:1044F3001684120E399081DF121684120E0F900566
:1045030054E0F9120E1B7901120E75900547E02451
:1045130016F8A3E03400F988828983743BF0A3740E
:104523000CF07900024271120C2980B4120C2F8016
:10453300AF120C3580AA791280EA74F41217ED7564
:10454300D90D900538E0A2E0E4331313F890054940
:10455300E0C4333354C0484401F5D978477905881A
:10456300828983A3A3A3E0F5D988828983A3A88240
:10457300A983E8644D7003E9640570E3783879052D
:1045830088828983A3E0F5D988828983A3A882A935
:1045930083E8643E7003E9640570E575E195900571
:1045A30038E0F97A397B05120E09900CD374C9F0FF
:1045B300A3740BF0A37431F0A3740DF0A37431F062
:1045C300A3740DF0A37431F0A3740DF0A374CFF0B2
:1045D300A3740BF0A37431F0A3740DF0A374E7F08C
:1045E300A3740BF0900CE17431F0A3740DF0A37479
:1045F30031F0A3740DF0A37431F0A3740DF0A37420
:1046030031F0A3740DF0A37431F0A3740DF0A3740F
:1046130031F0A3740DF0900547E0F8A3E0F583882B
:1046230082A3A3780812166690818B78081215F27C
:104633009081D77808121640900547E0240EF8A31E
:10464300E03400F98882898378081216759005474B
:10465300E02414F8A3E03400F9888289837413F00A
:104663009004047402F00244A8C082C083900559E8
:10467300E02407F5D9900549E0C4333354C0F5D994
:104683007847790588828983A3A3A3E0F5D9888233
:104693008983A3A882A983E8644D7003E964057044
:1046A300E3900559E0601F78477905FAE82413F58C
:1046B30082E93400F583E0F5D988828983A3A8824F
:1046C300A9831AEA70E6900579E02407F5D99005E5
:1046D30049E0C4333354C04404F5D9784779058895
:1046E300828983A3A3A3E0F5D988828983A3A882BF
:1046F300A983E8644D7003E9640570E3900579E0EC
:10470300601F78477905FAE82433F582E93400F528
:1047130083E0F5D988828983A3A882A9831AEA70E2
:10472300E675E195900CD374D5F0A3740BF0A374E4
:1047330031F0A3740DF0A37431F0A3740DF0A374DE
:1047430031F0A3740DF0A374CFF0A3740BF0A37432
:1047530031F0A3740DF0A374E7F0A3740BF0900C85
:10476300E17431F0A3740DF0A37431F0A3740DF070
:10477300A37431F0A3740DF0A37431F0A3740DF09E
:10478300A37431F0A3740DF0A37431F0A3740DF08E
:104793009081FB121684900547E0240EF8A3E034C1
:1047A30000F988828983121690900547E02414F853
:1047B300A3E03400F9888289837412F090040474AE
:1047C30001024270C082C083900559E02407F5D9E5
:1047D300900549E0C4333354C04402F5D97847798E
:1047E3000588828983A3A3A3E0F5D988828983A35B
:1047F300A882A983E8644D7003E9640570E390051A
:1048030059E0601F78477905FAE82413F582E93403
:1048130000F583E0F5D988828983A3A882A9831A46
:10482300EA70E675E195900CD374E1F0A3740BF094
:10483300A374E1F0A3740BF0A374E1F0A3740BF081
:10484300A374E1F0A3740BF0A374E1F0A3740BF071
:10485300A374E1F0A3740BF0A374E7F0A3740BF05B
:10486300900CE17431F0A3740DF0A37431F0A374D0
:104873000DF0A37431F0A3740DF0A37431F0A3749D
:104883000DF0A37431F0A3740DF0A37431F0A3748D
:104893000DF09081FB121684900547E0240EF8A3D7
:1048A300E03400F988828983121690900547E0244A
:1048B30014F8A3E03400F9888289837414F0900417
:1048C300047404024270C082C083900559E0240737
:1048D300F5D9900549E0C4333354C04406F5D9787B
:1048E30047790588828983A3A3A3E0F5D9888289C0
:1048F30083A3A882A983E8644D7003E9640570E388
:10490300900559E0601F78477905FAE82413F5828A
:10491300E93400F583E0F5D988828983A3A882A9C5
:10492300831AEA70E6900579E02407F5D9900549E2
:10493300E0C4333354C04404F5D9784779058882F9
:104943008983A3A3A3E0F5D988828983A3A882A935
:1049530083E8644D7003E9640570E3900579E060D2
:104963001F78477905FAE82433F582E93400F583A3
:10497300E0F5D988828983A3A882A9831AEA70E61D
:1049830075E195900CD374DBF0A3740BF0A3743131
:10499300F0A3740DF0A37431F0A3740DF0A374317C
:1049A300F0A3740DF0A37431F0A3740DF0A374316C
:1049B300F0A3740DF0A374E7F0A3740BF0900CE173
:1049C3007431F0A3740DF0A37431F0A3740DF0A34C
:1049D3007431F0A3740DF0A37431F0A3740DF0A33C
:1049E3007431F0A3740DF0A37431F0A3740DF0903F
:1049F30081FB121684900547E0240EF8A3E03400EF
:104A0300F988828983121690900547E02414F8A34D
:104A1300E03400F9888289837415F09004047403E8
:104A2300024270C082C083900547E0F8A3E0F5839B
:104A33008882A3A3A3A3A3A3E402426E74F712176D
:104A4300ED900432E0F875F004A4C8AAF02AF974D2
:104A53003428F8740439F9E82405FAE93400FB8AA8
:104A6300828B83E0FCA3E0FD88828983A3A3A3A3B5
:104A7300A3A3A3A3A3ECF0A3EDF088828983A3A34C
:104A8300A3A3A3A3A3E024FFF8A3E034FFF98A823E
:104A93008B83E8F0A3E9024CE474F71217EDEAFE06
:104AA300EBFF9061D0E06003024B7975D90E75D9A5
:104AB3000375D904EE248CF582EF3400F583E58287
:104AC3002408F8E5833400F9E0F5D9A3E86582709A
:104AD30003E9658370F2EE2484F582EF3400F583F5
:104AE300E5822404F8E5833400F9E0F5D9A3E86509
:104AF300827003E9658370F275E1957908EE248C81
:104B0300FAEF3400FB120CDD7904EE2484FAEF345F
:104B130000FB120CDD7C00EEF8EFF9ECFAC3E49A2B
:104B2300FA95E0FBEE2AFAEF3BFBEA248BF582EBE6
:104B33003400F583E0C0E0E824ABF582E93400F506
:104B430083D0E0F00C88828983A3A882A983ECC375
:104B5300940840C7EE2470F582EF3400F583E0F843
:104B6300A3E0F9EE2472F582EF3400F583E8F0A3B5
:104B7300E9F0790180027900024CE5C082C08375B7
:104B8300D90275D90375D90575E195EA2470F582C3
:104B9300EB3400F583E0F8A3E0F9EA2472F582EB45
:104BA3003400F583E8F0A3E9F0790102427174F669
:104BB3001217EDEAFEEBFF9005A27406F07508A24A
:104BC3007509057808121A007C017903120D257402
:104BD300021217AC75D90675D9037582A2758305C0
:104BE300E0F5D9A3E58264A77004E583640570F05A
:104BF30075E195900404E06408701EEE2470F5825C
:104C0300EF3400F583E0F8A3E0F9EE2472F582EFC8
:104C13003400F583E8F0A3E9F07901024DB174F6AD
:104C23001217EDEAFEEBFF9061D0E0706678019019
:104C330005A2740BF0900404E0640770197508A2D0
:104C43007509057808121A007C017903120D257481
:104C5300021217AC7805740128F5D975D90375824A
:104C6300A2758305E8FAE0F5D9A31AEA70F875E1AD
:104C730095EE2470F582EF3400F583E0F8A3E0F9B4
:104C8300EE2472F582EF3400F583E8F0A3E9F079BE
:104C93000180027900024DB174F71217EDEAFEEBC1
:104CA300FF75D90375D90375D90DEE24DEF582EFAF
:104CB3003400F583E0F5D975E1957904120E3FEEE2
:104CC3002470F582EF3400F583E0F8A3E0F9EE24D5
:104CD30072F582EF3400F583E8F0A3E9F0790180FF
:104CE30001F07F010218BF74F61217EDEAFEEBFF25
:104CF3009061D0E0F87480C398FAEE2483F582EFD4
:104D03003400F583E06004780480027800E8240B23
:104D1300F8EAC3985003024DAF7D099005A2EDF068
:104D2300EE24E3F8EF3400F97AA37B057C0888824C
:104D33008983E08A828B83F088828983A3A882A9EE
:104D4300838A828B83A3AA82AB831CEC70E0EE245C
:104D530083F582EF3400F583E0601D7508A27509C1
:104D6300057808121A007C097903EEFAEFFB120D9D
:104D73002574021217AC7D0D74012DF5D975D90375
:104D83007582A27583058D08E0F5D9A31508E5089A
:104D930070F675E1957904120E3FEE241DF582EF4E
:104DA3003400F583E4F0A3F07901800279007F02F7
:104DB3000218BF74F61217EDEAFEEBFF9061D0E024
:104DC300F87480C398FAEE2483F582EF3400F583F8
:104DD300E06004780480027800E82408F8EAC398C5
:104DE3005003024EB67D069005A2740CF090042188
:104DF300E09005A3F07A227B0478A479057C028AEB
:104E0300828B83E088828983F08A828B83A3AA8240
:104E1300AB8388828983A3A882A9831CEC70E07A80
:104E2300247B047C028A828B83E088828983F08AD4
:104E3300828B83A3AA82AB8388828983A3A882A956
:104E4300831CEC70E0EE2483F582EF3400F583E0FD
:104E5300601D7508A27509057808121A007C067989
:104E630003EEFAEFFB120D2574021217AC7D0A74E0
:104E7300012DF5D975D9037582A27583058D08E0D7
:104E8300F5D9A31508E50870F675E1957904120EB6
:104E93003FEE2470F582EF3400F583E0F8A3E0F9E8
:104EA300EE2472F582EF3400F583E8F0A3E9F0799C
:104EB3000180027900024DB174F61217EDEAFEEBA0
:104EC300FF9061D0E0F87480C398FAEE2483F582F2
:104ED300EF3400F583E06004780480027800E8246E
:104EE30004F8EAC3985003024F9578029005A2E8AC
:104EF300F0EE24F5F582EF3400F583E09005A3F09E
:104F0300EE2483F582EF3400F583E0601B7508A27D
:104F13007509057808121A007C027903EEFA120D5E
:104F23002574021217AC7806740128F5D975D903D4
:104F33007582A27583058808E0F5D9A31508E508ED
:104F430070F675E195EE2474F582EF3400F583E491
:104F5300F0EE2480F582EF3400F583E4F0EE241DB7
:104F6300F582EF3400F583E4F0A3F07904120E3FE9
:104F7300EE240DF582EF3400F583E0F8A3E0F9EEBB
:104F83002472F582EF3400F583E8F0A3E9F07901A8
:104F930080027900024DB174F61217ED9061D0E0F2
:104FA300F87480C398FCEA2483F582EB3400F5831C
:104FB300E06004780480027800E82404F8ECC398E5
:104FC300405B79029005A27407F0EA24F6F582EBC0
:104FD3003400F583E09005A3F0EA2483F582EB34F3
:104FE30000F583E060187508A27509057808121AA0
:104FF300007C0209120D2574021217AC79067401A4
:1050030029F5D975D9037582A2758305E9F8E0F509
:10501300D9A318E870F875E1957901800279000247
:105023004DB174F51217EDE9FCA2AFE433F50AC2F2
:10503300AF7D0080010DEA246FF582EB3400F58328
:10504300E0F8EDC398501A8D08EA2508F8EB340010
:10505300F9E8246BF582E93400F583E06C70D680BF
:1050630024EA246FF8EB3400F9E0FEEA2EFAEB347D
:1050730000FBEA246BF582EB3400F583ECF08882C5
:105083008983E004F0E50AA2E092AF7F030218BF30
:1050930074F61217EDA2AFE433FDC2AFEA246FF545
:1050A30082EB3400F583E014F07C0060368C08EA70
:1050B3002508F8EB3400F9E8246CF582E93400F5AF
:1050C30083E0C0E0E8246BF582E93400F583D0E0A7
:1050D300F00CEA246FF582EB3400F583E0F8ECC3BF
:1050E3009840CAEA246EF582EB3400F58374FFF02E
:1050F300EA246AF582EB3400F583E4F0EDA2E09252
:10510300AF024DB1C082C083E5A8F8C2AFEA246BF9
:10511300F582EB3400F583E9F0EA246AF582EB3497
:1051230000F583E4F0E8A2E792AF02427174F31250
:1051330017EDEAFEEBFFECFAEDFB8A828B83A3A368
:10514300A3A3E0541FF0EE2436F582EF3400F58379
:10515300E4F0F50AEEFCEFFD8A828B83E0C0E0EC1D
:10516300245DF582ED3400F583D0E0F0750B00E5A6
:105173000A33333354F8F50C8A828B83E0F50875D0
:105183000900E50B7808121764E508A2E0502FEE3A
:105193002436F8EF3400F988828983E0F508EE2598
:1051A30008F508EF3400F509E5082438F582E50928
:1051B3003400F583E50CF088828983E004F0050B65
:1051C300050CE50BC3940840AF050A8A828B83A3C1
:1051D300AA82AB838C828D83A3AC82AD83E50AC3A1
:1051E3009405500302515B7F050218BF74F7121731
:1051F300ED900430E0640170077A007B000253668F
:105203007E00900436E070F17401F0A3E4F0A3F0A3
:1052130090049604F0900499E4F0A3F090049C04A5
:10522300F0900439E4F0A3F0A3F0A3F09004430456
:10523300F0900469E4F090819F12168490044C125C
:105243001690900450E4F0A3F0A3F09004B4F0900F
:1052530004A8F090049D7480F0A3E4F09004A3F0FC
:1052630090049BF090051FF0A3F0A3F0A3F0A3F02C
:10527300A3F0A3F0A3F0900528F09004B7F09005F5
:1052830007F0A3F090819F121684900509121690DF
:1052930090819F12168490050D121690900513E4C9
:1052A300F0900515F0900511F090052BF0A3F0A3F5
:1052B300F0A3F0A3F0A3F0A3F0A3F078307904E80F
:1052C300246FF582E93400F58374FFF00E88828938
:1052D30083A3A882A983EEC3940440E37A307B04BA
:1052E300783F790588828983E0C0E0EA2461F5820A
:1052F300EB3400F583D0E0F088828983A3A882A9E8
:10530300838A828B83A3AA82AB83E864447003E914
:10531300640570D07A307B04781779048882898396
:10532300A3E0C0E0EA24E7F582EB3400F583D0E0A4
:10533300F088828983A3A882A9838A828B83A3AA04
:1053430082AB83E8641F7003E9640470CF90043078
:10535300E004F064017008900438E0900432F07ABD
:10536300347B04024CE5C082C083900437E4F090A0
:105373000436F0900430F0A3F0A374FFF075E1F16C
:10538300024271C082C08378007900900437E060E4
:10539300047834790488828983A3A3A3A3E0F90260
:1053A300427174F61217EDEAFEEBFF8E828F83A330
:1053B300A3A3E0600F8E828F83A3A3A3E4F09004E2
:1053C30031E014F0900430E014F07006900432746D
:1053D300FFF08E828F83A3A3E4F0900544E0700D69
:1053E300900431E0640170057900120E21EE24650A
:1053F300F582EF3400F583E0F8A3E0F9E84960298A
:10540300EE2465F8EF3400F9880889098882F5836A
:10541300E0FCA3E0FD900432E0FA7B001209E98589
:105423000882850983E4F0A3F0EEFAEFFB120D5531
:10543300024DB174F71217EDEAFEEBFF8E828F83F4
:10544300A3A3A3A3E0FA7B00120A2BEEFAEFFB124D
:105453000CA7120D3D024CE5C082C0837817790476
:1054630088828983A3E4F088828983A3A882A9839D
:10547300E8641F7003E9640470E69004180247C2ED
:1054830074F61217EDEAFEEBFFEC2403F8ED34009B
:10549300F988088909EC2407F8ED3400F9E8FCE9F8
:1054A300FD8C828D83E0F8A3E0F98508828509836A
:1054B300E0FAA3E0FB12170BEE240DF582EF3400A4
:1054C300F583E8F0A3E9F08C828D83E0F8A3E0F99B
:1054D300850882850983E0FAA3E0FB12170B8B0989
:1054E300EA45096013EE240DF582EF3400F583E0FD
:1054F3002401F0A3E03400F0024DB174F61217ED6D
:10550300EAFEEBFFEE242EF582EF3400F583E0FC98
:10551300A3E0FD780079FAECFAEDFB12170BEE2409
:1055230070F582EF3400F583E8F0A3E9F0780079B1
:10553300FAECFAEDFB12170B8B09EA45096013EE3F
:105543002470F582EF3400F583E02401F0A3E03406
:1055530000F0024DB174F01217EDEAFEEBFF741088
:105563001217E17808121666120DDF8A0C8B0D8C68
:105573000E8D0F908183780C1215F29081D7780CE1
:10558300121640780C1219FC8E828F83E0F8A3E088
:10559300F5838882A3A3121684122392740412172C
:1055A300ACE960030256A58E828F83E02402F8A340
:1055B300E03400F9E8FAE9FB8A828B837808121653
:1055C300059081D778081216668A828B8378081231
:1055D3001653EE240BF582EF3400F583C082C083AB
:1055E3008E828F83A3A3A3A3A3E02401F8A3E034B3
:1055F30000F9D083D082E0687003A3E06970057975
:10560300010256A78E828F83A3A3A3A3A3A3A3E020
:105613002401F0A3E03400F0EE2474F582EF3400AB
:10562300F583E064017036EE2475F582EF3400F5FE
:1056330083E0F8A3E0F98E828F83A3A3A3A3A3A39C
:10564300A3E0687003A3E0697013EE2475F582EF9D
:105653003400F583E02401F0A3E03400F0EE24806D
:10566300F582EF3400F583E064017036EE2481F5B2
:1056730082EF3400F583E0F8A3E0F98E828F83A3F1
:10568300A3A3A3A3A3A3E0687003A3E0697013EE2D
:105693002481F582EF3400F583E02401F0A3E034A4
:1056A30000F079007F080218BF74F71217ED900419
:1056B30032E0F875F004A4C8AAF02AF9743428FE7D
:1056C300740439FF8028EE2465F8EF3400F98882EA
:1056D3008983E0FCA3E0FD88828983E4F0A3F08E54
:1056E300828F83A3A3A3A3E0FA7B001209E9EE242C
:1056F30065F582EF3400F583E0F8A3E0F9E849604B
:105703004FEE2464F582EF3400F583E0F508780862
:10571300121A04EE2463F582EF3400F583E0F9EE08
:105723002465F582EF3400F583E0FCA3E0FDEEFA97
:10573300EFFB120CD174011217ACE96089EE2465FA
:10574300F582EF3400F583E0F8A3E0F9E84970133C
:105753007C007D008E828F83A3A3A3A3E0FA7B004A
:105763001209E9024CE574F21217EDEAFEEBFF8928
:105773000A740E1217E1E0FAEE2462F582EF3400A8
:10578300F583E0640160030258359061D0E0F8745A
:1057930080C398F50CEE2483F582EF3400F583E0A3
:1057A30060047804800278008908E928F8E434006A
:1057B300F9E824020808E93400F9E50C98E499A211
:1057C300D265D0334068EA7005750B028003750B10
:1057D30001E060397509007808121A007AA27B0586
:1057E300120D0774021217AC7508A2750905780823
:1057F300121A00AC0AA90BEEFAEFFB120D25740284
:105803001217AC7404250AF50A7CA27D05740125E0
:105813000AF5D9850BD9E50A600D8C828D83F8E0F2
:10582300F5D9A318E870F875E19579008006790732
:10583300800279FF7F060218BFC082C083E960201F
:105843008C828D83E08A828B83F08C828D83A3ACE0
:1058530082AD838A828B83A3AA82AB8319E970E02A
:10586300ECFAEDFB02427174EA1217ED907803E053
:105873006442705E9005A1E014F07056C2AF1258F6
:105883008400782AD0E0F618D0E0F6E59F5407F9B3
:10589300700590817F80039081AF7808121666E9C6
:1058A300C4C0E07829E65508F50808E65509F50966
:1058B300740B7808121774D0E02508F8906270E032
:1058C300A2E740F8E8C333906272F0906270E0D2CE
:1058D300E0F0900432E0F47003025C8DE0F875F0C0
:1058E30004A4C8AAF02AF9743428FE740439FFEE1C
:1058F3002402F582EF3401F583E0F8A3E0F9E849E7
:10590300601EEE2402F582EF3401F583E0FAA3E092
:10591300FBEE2401F582EF3401F583E0F91210F177
:105923008E828F83A3A3A3A3A3A3A3E0F8A3E0F989
:105933008E828F83A3A3A3A3A3E8F0A3E9F09060CF
:1059430054E090040BF0906055E090040CF09060EC
:1059530056E090040DF0906057E090040EF09060D4
:1059630058E090040FF0906059E0900410F09060BC
:105973005AE0900411F090605BE0900412F09060A4
:105983005CE0FC900413F090605DE0FB900414F085
:1059930090605EE0FD900415F090605FE0FA900483
:1059A30016F0900411E08C082508F8E43400F98D12
:1059B30008E82508F8E93400F98B08E82508F8E930
:1059C3003400F98A08E82508FAE93400FBEE24F7E5
:1059D300F582EF3400F583E02AF0A3E03BF08C0876
:1059E300EE24F9F582EF3400F583E02508F0A3E017
:1059F3003400F0EE24FBF582EF3400F583E024015C
:105A0300F0A3E03400F0EE24FFF582EF3400F583D9
:105A1300E0F8A3E0F9E8496042906000E0C333FC9A
:105A2300E433FDE82CF582E93DF583E02AF0A3E0B9
:105A33003BF0906000E0FA900413E0FCEAC333FA11
:105A4300E433FBE82AF8E93BF9E8244AF582E93430
:105A530000F583E02CF0A3E03400F0900411E07033
:105A630011900414E0700BA3E07007A3E07003022D
:105A73005B6D8E828F83A3A3A3A3A3E0F8A3E0F9B6
:105A8300EE240DF582EF3400F583E028F8A3E03926
:105A9300F9EE240BF582EF3400F583E8F0A3E9F087
:105AA300EE240FF582EF3400F583E4F0EE241CF5C9
:105AB30082EF3400F583E06401701EEE2420F5824A
:105AC300EF3400F583E0F8A3E0F9EE241DF582EF4F
:105AD3003400F583E8F0A3E9F090040CE06052EEA3
:105AE300241CF582EF3400F5837401F0EE246AF58B
:105AF30082EF3400F583E07038EE2474F582EF34DE
:105B030000F583E0702BEE2480F582EF3400F583FB
:105B1300E0701EEE2420F582EF3400F583E0F8A355
:105B2300E0F9EE241DF582EF3400F583E8F0A3E9F4
:105B3300F0906062E07003025C208E828F83E0F855
