:020000040000FA
:0600000002011D02214275
:03002B000227F3B6
:030033000227D5CC
:030053000221B8CF
:03006B000227ACBD
:10008300022033E5C754F84401F5C7790122000083
:100093000080FB120086B90003020107E47921788E
:1000A30008B800028004F709D8FCE479297802B87B
:1000B30000028004F709D8FCE49002817856790A9B
:1000C3008002F0A3D8FCD9FA781A90014D7A01BACC
:1000D30000028007E493A3F608DAF9900BD6AA820C
:1000E300AB8390014E780579048015E493A3AC8229
:1000F300AD838A828B83F0A3AA82AB838C828D83A8
:10010300D8E9D9E77582917583B7740312012F7506
:100113008291758300740012012F75D00075813FA1
:10012300751881751902759F00020096C09FF59F8F
:10013300E473D09F22D083D082C09FE493C0E07445
:100143000193C0E0740293F59F2201FF0000B40005
:100153000028002800283075A000A000A000A000FF
:1001630000080008E001F00010001000100010006B
:100173001000100050005000500010001000D00775
:100183000000000000000F000100050030750700AB
:100193001000010081FF0000FFB006CE06B606FF87
:1001A30002020208025000A0000000E80302A89225
:1001B300010000949202B2920100002B0C029C9267
:1001C300010000B20202B2920100002C0C029A92CA
:1001D300010000C80202B2920100002D0C02A2929B
:1001E300010000CA0202B2920100002E0C02AE927C
:1001F300080000CB0202B2920100002F0C02B09261
:10020300010000300CFFFF0100FF2002A892010053
:10021300008E9202B292010000950C02D692000069
:10022300000000029E920300005A03400D400D405F
:100233000D400D400D400D400D400D400D400D4053
:100243000D400D400D16102E101010FFFF0202027C
:10025300020202020202010D000000100102A89234
:10026300010000979202B292010000D80C02C492DE
:10027300010000BA0702B292010000D90C02C29237
:100283000100001F9102B292010000DA0C02C09239
:10029300010000039102B292010000DB0C02BE9246
:1002A3000100005A9002B292010000DC0C02BC92E1
:1002B300010000909002B292010000DD0C02BA929C
:1002C3000100007E9002B292010000DE0C02B8929F
:1002D3000100006C9002B292010000DF0C02B692A2
:1002E300010000119102B292010000E00C02B492ED
:1002F300010000E10C01E803053F10FF0001307528
:1003030003020106000000000000000000000000DE
:1003130000000000000000000000000000000000DA
:10032300FFFF0600800CE8031E140953696D706C0F
:1003330065424C455065726970686572616C05125F
:1003430028002800020A000201060302F0FF536995
:100353006D706C6520424C4520506572697068650C
:1003630072616CA8140000AE140A0064000A4368AA
:100373006172616374657269737469632031000229
:10038300436861726163746572697374696320326F
:1003930000084368617261637465726973746963A9
:1003A300203300104368617261637465726973740A
:1003B3006963203400024368617261637465726922
:1003C3007374696320350002A892010000919202C0
:1003D300B292010000F80D02CE92030000C70B0297
:1003E300A092010000F90D02B2920100000A0E0270
:1003F300D092010000C80B02A0920100000B0E0274
:10040300B2920100001C0E02D292020000C90B023C
:10041300A0920100001D0E02B2920100002E0E02F6
:10042300D492000000CA0B029E92030000CB0B0281
:10043300A0920100002F0E02B292010000400E02B2
:10044300C892040000D10B02A092010000410E12D9
:10045300013824B2031201383AB20312013867B2E9
:100463000312013897B203120138B8B203120138EC
:10047300E9B20312013800B30312013888A9031249
:1004830001389FA903120138CEA90312013807AA24
:10049300031201382FAA031201385DAA031201388F
:1004A30074AA031201388BAA03120138A1AA0312FA
:1004B3000138C8AA03120138DBAA03120138F1AAD2
:1004C3000312013804AB0312013829AB03120138BC
:1004D300689902120138679A02120138919A02123E
:1004E3000138E69A02120138079B02120138209B59
:1004F30002120138229B02120138439B0212013877
:10050300469C02120138039D02120138D09D02124B
:100513000138439E02120138469E02120138CC9ED6
:10052300021201380F9F02120138469F021201384E
:10053300CC9F021201389EA002120138A1A0021220
:100543000138FFA00212013817A10212013891A14C
:100553000212013894A10212013897A10212013844
:100563009AA10212013841A20212013854A20212C6
:1005730001386CA2021201389CA202120138A9A20E
:1005830002120138ACA20212013818A30212013878
:1005930006A402120138BCA402120138008003121F
:1005A30001382880031201385680031201388D80E8
:1005B30003120138F580031201383E81031201381A
:1005C300898103120138C78103120138048203129F
:1005D3000138328203120138D98203120138E382CF
:1005E30003120138F0820312013823830312013806
:1005F300E58303120138F1830312013809840312DE
:1006030001381384031201380EB4031201381CB4E9
:100613000312013834B4031201384CB40312013805
:1006230030B201120138CEB20112013846B30112C1
:1006330001385BB40112013895B4011201383EB59B
:100643000112013813B60112013877B701120138CC
:10065300CEB70112013855B8011201383CB9011265
:10066300013889B90112013817BA011201383BBAAE
:100673000112013810BC0112013851BC01120138BA
:1006830073BC01120138F4BC01120138DEBD011242
:100693000138A4BE0112013805E602120138D7E67B
:1006A3000212013880E702120138C3E7021201384F
:1006B30050E802120138DCE802120138BDE90212E7
:1006C3000138ECE902120138E8EA0212013830EB92
:1006D3000212013832EC0212013876EC02120138B0
:1006E3009CEC021201382CB6031201389E8D0312C2
:1006F3000138B48D03120138DA8D03120138028FE9
:10070300031201380C8F031201386590031201386C
:1007130065910312013811ED0212013846EE0212FF
:10072300013879EE02120138C3EE0212013881F06A
:100733000212013857CF01120138E0CF01120138FC
:1007430021D00112013825D201120138DCD3011264
:10075300013858D40112013835D50112013863D854
:100763000112013801D9011201385EDA0112013890
:10077300E7DB011201381EDC01120138C3DC011270
:100783000138D3A20112013836A3011201387BA428
:10079300011201388BA401120138AEA401120138F1
:1007A300F9A4011201389EA50112013894A6011281
:1007B30001385EA701120138D6A80112013818A921
:1007C30001120138B6A90112013803AA0112013836
:1007D30029AA0112013817AC011201381CAC01120D
:1007E3000138FDAD0112013851AE01120138B3AE2B
:1007F30001120138DBAE011201387FAF011201385B
:1008030041B00112013872B00112013875B0011202
:100813000138BDB001120138FFB00112013866B1D1
:100823000112013845A10312013858A103120138FE
:1008330061A1031201387AA103120138C5A1031281
:100843000138A0A2031201382FA3031201387AA39F
:100853000312013818280012013824280012013825
:100863005D2800120138A22800120138592900120C
:100873000138DF2900120138442A00120138702A96
:1008830000120138A92A00120138BD2C00120138C8
:10089300992E00120138843000120138BB31001246
:1008A30001381B34001201380735001201384D3668
:1008B300001201385A370012013877370012013815
:1008C300AF3700120138C93700120138313800122E
:1008D3000138CB3C001201386C3D00120138BD3D9C
:1008E30000120138E43D00120138323E0012013893
:1008F300503E00120138A43E001201387D3F001221
:1009030001380441001201388C410012013837F2DA
:100913000212013841F2021201380CF302120138BB
:1009230027F3021201384DF30212013891F3021238
:100933000138C9F302120138F2F3021201386BF4E1
:100943000212013880F40212013895F402120138C0
:10095300CCF402120138E0F40212013811F502124C
:1009630001384BF50212013877F502120138AFF561
:10097300021201382CF60212013880F602120138F5
:10098300C9F602120138F3F60212013818F70212FF
:10099300013802FC02120138CCFC02120138AFFD0F
:1009A3000212013825FE0212013867FE02120138D5
:1009B30094FF02120138E68C021201380F8D0212E5
:1009C3000138288D021201386D8E021201384B8FC7
:1009D300021201386A8F02120138F78F02120138AE
:1009E3003A900212013887910212013826920212BC
:1009F3000138A594021201383C9502120138109671
:100A030002120138F296021201385E98021201387E
:100A1300F1980212013802B0031201386BB00312CD
:100A23000138BFB003120138E6B003120138498917
:100A330003120138B68903120138018A03120138FF
:100A4300F68A03120138F28B03120138DC8C03128D
:100A530001382BCD021201386DCD0212013847CE79
:100A63000212013820CF021201381BD002120138C2
:100A7300FAD00212013866D1021201382DD20212C5
:100A8300013898D202120138FFD2021201382AD358
:100A9300021201389BD3021201382ED402120138FC
:100AA30097D402120138ACD402120138F4D40212E2
:100AB30001380DD50212013872D50212013875D5ED
:100AC300021201388F9803120138B79803120138C4
:100AD300F59803120138B399031201381E9A0312D1
:100AE30001383A9A03120138629A03120138929A32
:100AF30003120138A19A031201381B9B0312013818
:100B0300419B03120138DA920112013877940112E2
:100B130001385D96011201382797011201386E974B
:100B230001120138B59701120138C7970112013834
:100B33000798011201383698011201388298011280
:100B43000138BA9801120138E8980112013839992D
:100B530001120138C89901120138B69C01120138FB
:100B6300909E01120138CC9E0112013826A0011279
:100B730001386DA001120138E2A00112013830A141
:100B83000112013856A10112013838A201120138AD
:100B930028C40212013845C402120138DFC9021207
:100BA3000138E1CA021201385BCC0212013809CDC7
:100BB30002120138D355001201381C5600120138B5
:100BC3004956001201387C5600120138895600122A
:100BD3000138955600120138A756001201387C5788
:100BE30000120138DA57001201380F580012013889
:100BF300AB5900120138F859001201381C5A00127F
:100C03000138895A001201382E5B00120138EA5B61
:100C130000120138695C001201382D5D00120138A1
:100C23003C5D00120138BD5D001201385C5E0012AC
:100C330001388E5E00120138295F00120138875F88
:100C430000120138C15F00120138426000120138FE
:100C53000B6100120138B461001201383B620012CB
:100C63000138936200120138F462001201381D63E7
:100C730000120138D363001201381D6500120138D8
:100C83006065001201387D65001201389C65001211
:100C93000138E765001201380C6600120138356629
:100CA30000120138A46600120138E666001201380A
:100CB300EA67001201388468001201385069001293
:100CC300013869690012013887BA02120138DABAA9
:100CD30002120138E6BA02120138BBBB0212013814
:100CE300E2BB021201381DBC0212013889BC021298
:100CF3000138BDBC02120138F6BC021201380EBD28
:100D03000212013867BD0212013880BD0212013898
:100D1300C9BD02120138DCBD02120138F6BD021250
:100D230001380CBE0212013828BF0212013839C043
:100D33000212013886C1021201386BC20212013855
:100D4300F47F00120138008002120138348002124D
:100D530001389F8302120138E98402120138B385F6
:100D6300021201383D870212013818880212013835
:100D7300528802120138758802120138B7880212AC
:100D83000138C088021201380A8902120138148915
:100D930002120138C08902120138948A0212013802
:100DA300E88A021201384A8B021201389D8B021223
:100DB3000138CC8B021201380B8C021201389B696B
:100DC30000120138F57100120138FB71001201386D
:100DD300B677001201389C7B001201386F91031221
:100DE3000138E59103120138FB910312013838925F
:100DF30003120138709203120138ED920312013885
:100E0300289303120138A39303120138DF930312CB
:100E13000138E89303120138F493031201380E9456
:100E23000312013833940312013849940312013831
:100E3300729403120138D5940312013840F7021259
:100E4300013853F7021201386DF70212013896F791
:100E530002120138D9F70212013818F802120138C8
:100E630056F802120138BBF802120138D0F8021208
:100E73000138DBF802120138E8F802120138FFF8F2
:100E8300021201380DF90212013818F90212013861
:100E930024F90212013837F90212013842F9021219
:100EA300013865F9021201380EFA021201381EFAEE
:100EB3000212013838FA0212013855FA02120138C7
:100EC30071FA0212013896FA02120138A0FA0212DC
:100ED3000138B4FA02120138D3FA0212013834FB92
:100EE300021201383AFB0212013840FB02120138A8
:100EF30046FB0212013852FB0212013885FB021233
:100F030001387CDD01120138FEDD01120138A7DE54
:100F130001120138EFDF01120138FDE1011201383E
:100F2300E3E20112013818E3011201383AE3011236
:100F33000138E3E301120138B3E501120138DCE5BE
:100F43000112013854E60112013886E60112013814
:100F530093E601120138DEE60112013802E70112BD
:100F6300013853E9011201385DEA01120138B9EA87
:100F730001120138D9C001120138EAC10112013846
:100F8300CEC201120138D8C201120138FAC20112CD
:100F9300013806C301120138AAC401120138D7C4AB
:100FA30001120138EDC50112013842C601120138A0
:100FB30091C70112013866C801120138C2C8011273
:100FC30001382DC90112013862C901120138A5C9BE
:100FD300011201386FCC0112013887CC011201389C
:100FE30018CD0112013826CD0112013873CD01123B
:100FF300013881CD01120138EDCD0112013868CEDF
:1010030001120138BFCE0112013827A5021201389F
:1010130049A5021201385AA70212013819AA02126D
:10102300013843AB0212013801AC02120138EDACB6
:1010330002120138CFA703120138F4A703120138B3
:101043006AA803120138F5F701120138FEF70112FD
:10105300013807F801120138DFF80112013890FA5C
:1010630001120138C0FA01120138EBFA01120138FA
:101073001BFB0112013846FB011201387AFB0112F6
:101083000138A6FB01120138E9FB0112013814FCF7
:10109300011201385BFC01120138B0FC0112013866
:1010A300F2FC011201384CFD0112013877FD0112E7
:1010B3000138C6FD01120138F6FD0112013821FE87
:1010C300011201384FFE0112013872FE011201387C
:1010D300B5B603120138E1B6031201380EB7031295
:1010E300013818B70312013828B70312013899D50C
:1010F30002120138A3D502120138E4D502120138D5
:101103002DD60212013867D602120138BDD602125B
:101113000138DED6021201388DD90212013896D970
:1011230002120138EAD90212013813DA0212013825
:101133001DDA021201388BDA021201381BDB0212AC
:10114300013876DB02120138A4DB021201382CDCF1
:10115300021201386BDC02120138A0DC02120138E2
:10116300B2DC02120138D1DC02120138DADC0212DD
:101173000138A1DD0212013817B303120138DEA5CD
:101183000312013814A60312013848A603120138CA
:1011930095A70312013896B503120138ACB50312B3
:1011A3000138B6B50312013800B60312013832B75D
:1011B30003120138A88403120138BB8403120138D7
:1011C3007C8503120138BB8503120138D8850312CD
:1011D30001381186031201385E86031201389086A6
:1011E30003120138C78603120138D088031201386D
:1011F3003C890312013875AE0312013898AE03120D
:101203000138C7AE031201385FAF0312013877AF5D
:1012130003120138B9AF03120138899B0312013855
:10122300AE9B03120138D89B03120138E9B70312AE
:101233000138F34100120138D143001201387045DF
:10124300001201381B46001201389B460012013878
:10125300204700120138494700120138244B00127D
:1012630001389B4B00120138B24C00120138EC4C90
:10127300001201382D4D00120138744E001201384E
:10128300CA4E00120138134F00120138824F001268
:101293000138EE4F001201381F5000120138375049
:1012A3000012013850510012013860510012013808
:1012B3001653001201382D53001201385F530012E8
:1012C3000138015500120138955500120138E5B473
:1012D30003120138F6B4031201383FB80312013880
:1012E3007EB803120138EFFF0112013812FF011219
:1012F300013822FF0112013837FF01120138E9FFDB
:101303000112013817B1031201389CB103120138DD
:1013130000B2031201383BAB0312013864AB031272
:101323000138CAAB03120138EAAB031201383BACF4
:101333000312013896AC03120138D0AC0312013802
:10134300D3AC03120138EB7B00120138187C001276
:1013530001388A7C001201389F7C00120138C07D5D
:1013630000120138437E00120138BC7E001201389E
:10137300DB7E00120138FE7E001201383B7F001233
:101383000138537F00120138A97F00120138DE7F34
:1013930000120138EE7F00120138F17F001201388C
:1013A300F87F00120138A4A30312013834A50312F5
:1013B300013895A503120138DBA503120138DDAC12
:1013C300031201382FAD03120138A2AD0312013805
:1013D3000FAE031201386D9E03120138979E03125C
:1013E3000138669F0312013842A003120138D3A0CB
:1013F30003120138CFDD021201389BDE02120138DD
:10140300DCDE0212013816DF0212013874DF021229
:101413000138C8DF0212013826E002120138BCE0AD
:1014230002120138C4E1021201384EE302120138FC
:10143300ECE30212013853E40212013866E40212AB
:1014430001385AE502120138A3E50212013806EB0E
:101453000112013838EE01120138C9EF01120138C7
:1014630020F0011201383DF001120138BDF00112E4
:10147300013839F20112013808F30112013875F607
:10148300011201385FF70112013845B00212013829
:10149300E4B202120138CFB40212013858B5021275
:1014A300013864B602120138D2B70212013896B974
:1014B3000212013806BA02120138059503120138E7
:1014C3004A95031201386795031201381D960312DA
:1014D3000138709603120138409703120138569869
:1014E30003120138BEB80312013888B80312013859
:1014F300EBB80312013813B903E066701008A3E0D8
:1015030066700A08A3E066700408A3E06622C3E7D6
:10151300960809E7960809E7960809E79622C3E0C3
:101523009608A3E09608A3E09608A3E09622C008D5
:10153300C3E096F50808A3E096420808A3E09642A4
:101543000808A3E09645087001D3D00822E9799EE4
:10155300C608CAC608CBC608CCC6C370207996CACB
:10156300CBCC7019798ECBCC70137986CC700EF9F5
:10157300802ACA33CACB33CBCC33CC331930E7F20E
:10158300CCCBCA3350147004EA30E00DE4CA3ACA33
:10159300CB3BCBCC3CCC500209C3E913C6CC1823BC
:1015A30013C6CB18C6CA18C6F9221215ED20F014BB
:1015B30030E72B74FFFCFBFA747F8022E4FCFBFA18
:1015C3007480801AB48008BC00F2BB00EF800F5017
:1015D300EBF9E4C39AFAE49BFBE49CFCE499C6CCE4
:1015E30018C6CB18C6CA18C6F922E4C9C608CAC6A3
:1015F30008CBC6D3330308CCC63392F0C3947F40E1
:101603002E94184019C9B90704CACBCC225025C35C
:1016130009CA33CACB33CBCC33CC33D9F422F460ED
:101623000DC9CCC313CB13CBCA13CAD9F6CC22E44E
:10163300FCFBFA2214FCFBFA22E6C33318461846D5
:10164300184622E7C33319471947194722181818B0
:10165300E6084608700AE608C3337005E633F42249
:101663000822191919E7094709700AE709C33370F2
:1016730005E733F4220922E6084608C31346083374
:101683006002E633F422E7094709C31347093360CD
:1016930002E733F4220012167A604F1216896012A1
:1016A300E7548066F61216507011121646703B0905
:1016B3000909F4F618F618F618F6221216657015CD
:1016C30012163C08080860EAE6447FF6187680188C
:1016D300E4F618F62212163C60161216467012E44F
:1016E300F608F608F608E65480F6090909181818EA
:1016F30022EAC0E0EBC0E0ECC0E0EDC0E0E687F03A
:10170300A4FBACF008E687F0A42CFCE435F0FA184F
:1017130009E687F0A42C4B60027401CA35F0FCE49F
:1017230033FB09E687F0D2F7A42CCB35F0FC19087C
:10173300E687F0A42BCC35F0FBE433FD0819E687EC
:10174300F0D2E7A42C4ACB35F0CD3400FC09E68770
:10175300F0D2E7A42DCC35F0FDE433FA0918E6877F
:10176300F0D2F7A42CCD35F0CA3400FC08E687F09C
:10177300D2E7D2F7A42ACC35F07A7E20E70B0ACB46
:1017830033CBCD33CDCC33CC33CB3350147004EDCA
:1017930030E00ED2F1E4CD3DCDCC3CCC3B5005DA6C
:1017A30005C2F1EB547FC63308E63392F0FBE7330F
:1017B30009E733C39A502D2B70190C0D4C4D70153E
:1017C3001806E608C333700D20F10AA2F013F6E4FD
:1017D30018800B4024E4F630F002768018F618F6F1
:1017E30018F68024D33B14501074FFA2F013F6189C
:1017F3007680E418F618F6800FA2F013F618E63395
:1018030003F618ECF618EDF6D0E0FDD0E0FCD0E0DE
:10181300FBD0E0FA22080808EAC0E0EBC0E086F05B
:10182300E7A4FA180986F0E7A42AFA180986F0E76C
:10183300A42AFA180986F0E7A42AFA1986F0E7A47D
:10184300FBE5F02AFA190886F0E7A42BFBE5F03A4A
:10185300FA190886F0E7A42BFBE5F03AFA18180901
:1018630086F0E7A4C5F02BFBE43AFA1908E7C5F0C4
:10187300C6A426F6E5F03BFBE43AFA1886F0E7A4A3
:10188300F6E5F00826F6E43B08F6E43A08F6D0E07D
:10189300FBD0E0FA22E4CFC0E0E4CEC0E0E4CDC068
:1018A300E0E4CCC0E075F020C3E633F608E633F697
:1018B30008E633F608E633F6181818EC33FCED3374
:1018C300FDEE33FEEF33FFC3EC9709ED9709EE9777
:1018D30009EF97191919400FFFEC97FC09ED97FDD4
:1018E30009EE97FE191906D5F0BEECF709EDF709D5
:1018F300EEF709EFF7191919D0E0FCD0E0FDD0E0BD
:10190300FED0E0FF226016080808C6C313C618C637
:1019130013C618C613C618C613C6D5E0EA22700943
:10192300080808226016181818C6C333C608C63339
:10193300C608C633C608C633C6D5E0EA22E627F68C
:101943000809E637F60809E637F60809E637F62206
:10195300E026F608A3E036F608A3E036F608A3E08F
:1019630036F622E026F008A3E036F008A3E036F0CE
:1019730008A3E036F022C3E697F60809E697F608CF
:1019830009E697F60809E697F622C3E096F008A35E
:10199300E096F008A3E096F008A3E096F022E05664
:1019A300F608A3E056F608A3E056F608A3E056F6B9
:1019B30022E056F008A3E056F008A3E056F008A38F
:1019C300E056F022E0F608A3E0F608A3E0F608A349
:1019D300E0F622E6F008A3E6F008A3E6F008A3E6A3
:1019E300F022E0FAA3E0FBA3E0FCA3E0FD22EAF08F
:1019F300A3EBF0A3ECF0A3EDF022CAC0E0E6F0A362
:101A030008DAFAD0E0FA22CAC0E0E0A3C582CCC566
:101A130082C583CDC583F0A3C582CCC582C583CDE2
:101A2300C583DAE6D0E0CA22C3E498F8E499F91250
:101A33001A6C8026C3E49AFAE49BFBE920E7E912D7
:101A43001A6CE498F8E499F922C3E498F8E499F954
:101A5300121A6CE498F8E499F9C3E49AFAE49BFB4C
:101A630022EB20E7CFE920E7E0B90010BB0008E84C
:101A73008AF084F8AAF022E4FBC8FA22EB70227BF6
:101A830010C833C8C933C9335007C39AC3DBF280C4
:101A9300069A50012ADBEAC833F4C8C933F4C9FAF9
:101AA3002275F008E4C833C8C933C933C99AC99B3E
:101AB3005004C92AC93BD5F0ECFBC833F4C8E4C9C8
:101AC300FA22600D08C6A2E713C618C613C6D5E0EE
:101AD300F322600C08C6C313C618C613C6D5E0F4B8
:101AE30022700422600D18C6C333C608C633C6D598
:101AF300E0F41822251810AF08F5184002151980D4
:101B030008F51840021519D2AF22C0D0251810AF1E
:101B130008F518500205198008F51850020519D266
:101B2300AFD0D0222518F58210AF08F51840021562
:101B3300198008F51840021519D2AF85198322259B
:101B430018F582E43519F58322E4732518C582C09C
:101B5300E0E51934FFC583C0E0E518C3958224F896
:101B630010AF0885831985821880088583198582BB
:101B730018D2AFCEF0A3E520F0A37808E608F0A3CF
:101B8300DEFAEFF0A3E58124FAF8E608F0A3E6080D
:101B9300F0A3E608F0A30808E608F0A3E608F0A31C
:101BA30015811581D0E0FED0E0F8158115811581EE
:101BB300E8C0E0EEC0E0222518C582C0E0E5193494
:101BC300FFC583C0E0E518C3958224F910AF0885EB
:101BD30083198582188008858319858218D2AFCE30
:101BE300F0A3E520F0A37808E608F0A3DEFAEFF00F
:101BF300A3E58124FBF8E608F0A3E608F0A30808B0
:101C0300E608F0A3E608F0A315811581D0E0FED025
:101C1300E0F815811581E8C0E0EEC0E02285198364
:101C2300851882E0A3FEE0A3F5207808E0A3F60878
:101C3300DFFAE0A3FFE0A3C0E0E0A3C0E0E0A3C0BD
:101C4300E0E0A3C0E0E0A3C0E010AF088582188500
:101C530083198008858218858319D2AFD083D082F7
:101C6300020135851983851882E0A3FEE0A3F520E0
:101C73007808E0A3F608DFFAE0A3FFE0A3C0E0E002
:101C8300A3C0E0E0A3C0E0E0A3C0E010AF088582FA
:101C9300188583198008858218858319D2AFD0836C
:101CA300D08222C0D02518C582C0E0E51934FFC513
:101CB30083C0E0E518C3958224F310AF0885831928
:101CC3008582188008858319858218D2AFC8F0A34E
:101CD300E9F0A3EAF0A3EBF0A37908E709F0A3D8AE
:101CE300FAECF0A3EDF0A3EEF0A3EFF0A3D0E0F055
:101CF300A3D0E0F0A3D0E0F0A3E520F0A3E5F0F05B
:101D0300A322851983851882E0C0E0A3E0F9A3E04C
:101D1300FAA3E0FBA37808E0F608A3DFFAE0FCA34C
:101D2300E0FDA3E0FEA3E0FFA3E0C0E0A3E0C0E08A
:101D3300A3E0F5D0A3E0F520A3E0A3F5F010AF08EE
:101D43008583198582188008858319858218D2AF07
:101D5300D082D083D0E0F8D0E032740480067402DD
:101D630080027401C0E0F404121B27D0E01219FDB5
:101D7300227404800474028000CCC0E0EDC0E0E56E
:101D830018C39CCCAD1950011D10AF068C188D19CA
:101D930080068C188D19D2AF121A0AD0E0FDD0E05C
:101DA300FC22D083D082E9C0E0E493A3C386F0C5CC
:101DB300F095F0F908E493A386F0C5F095F0700B65
:101DC300E493A3C3994005E9048002A3E475F002F8
:101DD300A42582F582E5F03583F583D0E0F9E49319
:101DE300A3C0E0E493C0E022D083D082ECC0E0ED56
:101DF300C0E0E493A3FCE493A3FDED4C600D121E3D
:101E030037EC24FFFCED34FFFD80EFE493A3FCE407
:101E130093A3FDED4C600D121E76EC24FFFCED3414
:101E2300FFFD80EFD0E0FDD0E0FCE493A3C0E0E44D
:101E330093C0E022C0E0C3E493960874019396181C
:101E4300400FE4936670080874019366187000707D
:101E530019A3A3C3E49396087401939618A3A3400C
:101E63000DD0E0D0E0D0E0021E27A3A3A3A3A3A339
:101E7300D0E022C0E0C0F088F0E4936670080874F4
:101E8300019366187000A8F0A3A3700BD0F0D0E004
:0E1E9300D0E0D0E0021E27A3A3D0F0D0E022C2
:101EA40074F5121BBAEAFEEBFFEE2434F8EF3400AB
:101EB400F988088909EE2435121FDCF8EE2437125C
:101EC4001FDCF50AEC850AF0A4FCAAF0850AF0ED03
:101ED400A42AFDE82CF8E43DF97A257B00121A6C5B
:101EE400EA850882850983F05407F87401B8000272
:101EF4008004C333D8FCC0E0E0131313541FF8EE7E
:101F040028F8EF3400F9E8245DF582E93400F5831C
:101F1400D0E0F8E0586008850882850983801DEECA
:101F24002436121FDCF5F0EA84A8F0EE28F8EF342A
:101F340000F9E82438F582E93400F583E0F97F04F8
:101F4400021C6674F5121BBAEAFEEBFFEE2434128F
:101F54001FDCC0E0EE2435F582EF3400F583D0E0D9
:101F6400F08E828F83A3A3A3A3A3E0FAA3E0FB8E46
:101F7400828F83A3A3A3A3A3A3A3E0FCA3E0FDEC0C
:101F8400C39AF50AED9BF50BEE2480F508EF3400B7
:101F9400F509850882F583E06401702BEE2481F550
:101FA40082EF3400F583121D78121FE57402121BB0
:101FB4000DE960137C3F7D05EEFAEFFB120C6E8594
:101FC4000882850983E4F0AC0AAD0BEEFAEFFB124C
:101FD4001EA412279E021F42F582EF3400F583E00F
:101FE40022C082C083851882851983E0F8A3E0F9B2
:101FF400C3EA9CEB9D5012C3EC98ED994019C3EAD7
:1020040098EB99501279018010C3EA98EB9940F546
:10201400C3EC98ED9950EE7900D083D08222EAC3C4
:102024009CFAEB9DFB2200008521878522C622C0F5
:10203400E074EF121CA6759B00906182E0A2E6405A
:10204400030220F4E591A2E640030220F47591BF57
:10205400900404E064057008120E0C120E1880033C
:10206400120E12752100120E84E9900405F0790015
:10207400120E78120BD87A017B00900403E0F91257
:10208400114E907803E06442600302213D9005A163
:10209400E014F0600302213DC2AF1220A100782AAF
:1020A400D0E0F618D0E0F6E59F5407F97005909259
:1020B40042800390923E78081219C7E9C4C0E078C0
:1020C40029E65508F50808E65509F509740B78085A
:1020D400121AD5D0E02508F8906270E0A2E740F823
:1020E400E8C333906272F0906270E0D2E0F080490D
:1020F400E0A2E55024E591A2E5501E7591DF90041D
:1021040004E0640D7013900426E004F06428700267
:10211400E4F07A00E0F9120EF6906181E0A2E35057
:1021240009E5E9A2E3500375E9F7A3E0A2E7500942
:10213400E591A2E7500375917F7F04021D05C0E07D
:10214400C0D0C082C083906183E0A2E05009E5BFA3
:10215400A2E0500375BFFEE0A2E15009E5BFA2E191
:10216400500375BFFDE0A2E25009E5BFA2E25003AF
:1021740075BFFBE0A2E35009E5BFA2E3500375BFBE
:10218400F7E0A2E45009E5BFA2E4500375BFEFE015
:10219400A2E55009E5BFA2E5500375BFDFE0A2E662
:1021A4005009E5BFA2E6500375BFBFD083D082D0EB
:1021B400D0D0E032C0E074F2121CA6E5A7A2E4502D
:1021C4000FE5A1A2E4500953A7EF75A1EF12220C69
:1021D400E5A7A2E5500CE5A1A2E5500653A7DF75DB
:1021E400A1DFE5A7A2E15009E5A1A2E1500375A191
:1021F400FDE5A7A2E2500CE5A1A2E2500653A7FB1D
:1022040075A1FB7F01021D0574F8121BBA7521012B
:10221400900404E0640670077A007B00120DF4A2B7
:10222400AFE433FED2AF90040AE0640170187A2060
:102234007B00900403E0F91211D87A207B0090040B
:1022440003E0F9121154906182E0D2E6F09005A007
:10225400E0602185C6228016900409E064017008BC
:10226400E5C654F84405F5C653BEFC12202C74018F
:10227400652160E4EEA2E092AF7F01021C660000DB
:102284008E238F2485822885832785188285198348
:10229400E0CEA3E0CF852882852783EBC9EAC8ED89
:1022A400CBECCA75F010C3E833C8E933C9EA33CAC2
:1022B400EB33CBC3EA9EF526EB9FF525B35004AB75
:1022C40025AA26EC33CCED33CDD5F0DAAE23AF24FA
:1022D4002274E9121BBA74FA121AF7EAFEEBFF8CA5
:1022E400088D09900404E024F7C3940550069092E5
:1022F400560223FC120D708A0A8B0BEA450B7003FD
:102304000223F9120E2A8A0C8B0D120E2AEA650C8E
:102314007003EB650D60ECEEFCEFFD85188285190A
:1023240083AA82AB83120E30850A82850B83A3A312
:10233400780C1219C790925A780C1219A185188238
:1023440085198378141219C790925A78141219A116
:10235400780C7914121511501F780C79141219790C
:10236400909212780C1215314047850C10850D118E
:10237400850E12850F13804185141085151185165D
:10238400128517137810790C12197990921278101B
:10239400121531501C75100075110075120075135B
:1023A40001781079141219797810790C1219408077
:1023B4000890925678101219C774097810121921CE
:1023C400909282780C1219C77810790C1218989090
:1023D4000404E06408600AE064066005E0640570D3
:1023E4001C90922E7810121531501290920E781083
:1023F40012195380089091F678101219C785088233
:1024040085098378101219D67406121B0D7F1002E9
:102414001C6674F7121BBA120E4290059EE064010A
:102424007010906245E4F0A3F053F4F343FE0C53B0
:1024340090F3120DE2E5C654804449F5C6E59E5476
:102444007F644970F8906185740FF090059CE0F406
:102454007002A3E0602C75080175090090059CE0EA
:102464007808121AE4E508F4FAA3E0600814600A94
:1024740014600C800DEA52808008EA52908003EACE
:1024840052A079007F02021C6674F7121BBAE9FE9F
:10249400EAFF74016E700C7A807B00900403E0F90B
:1024A40012114E902810E493F46008E493F9120B8F
:1024B400BA800953C680E59E547F70FA120DE890E5
:1024C400059EE064017003120BF090059CE0F4702B
:1024D40002A3E0602A75080175090090059CE07864
:1024E40008121AE4AA08A3E0600814600A14600C35
:1024F400800DEA42808008EA42908003EA42A012FA
:102504000D708A088B09A808A909E8496017E5E154
:1025140070FCE82414F582E93400F583E0F874FFD4
:1025240068600288E174016F700A7A01900403E024
:10253400F91211A202248874F1121BBA8A088B09B9
:102544008C0A8D0B740F121B42780C1219C79092CF
:102554005A78081219A190925A780C1219A1780885
:10256400790C12151150157808790C12197990927A
:10257400127808121531401579018013780C790806
:10258400121979909212780C12153140EB79007F70
:1025940008021C6674ED121BBA8A088B098C0A8D1A
:1025A4000B7413121B42780C1219C790925A7808B4
:1025B4001219A190925A780C1219A1780C79081268
:1025C400151140117808790C121979AA08AB09ACD5
:1025D4000AAD0B8022751000751100751200751379
:1025E400017810790C12197978107908121940AA17
:1025F40010AB11AC12AD137F0C021C6690925A788A
:10260400081219C78A828B8378081219B47F0402CE
:102614001C6674F5121BBA8C828D8378081219C754
:102624008A828B83780812198D12266AC3E098F087
:10263400A3E09912265C401E90925278081219C7A2
:102644008A828B8378081219668E828F83E0242015
:10265400F0A3E0344EF080A4F08E828F83C3E09424
:1026640020A3E0944E22EA2404F8EB3400F9E8FEB7
:10267400E9FF8C828D83A3A3A3A3E0F8A3E0F98EE2
:10268400828F832274F5121BBAE9FE900556E0FA94
:10269400A3E0FBEEC333F8E433F974C428F5827481
:1026A4009039F583E02AF508A3E03BF50978081290
:1026B4001D6190924E1219E51222847402121B0DB0
:1026C4008A088B098C0A8D0B74107808121908AAD1
:1026D40008AB097F04021C6674F1121BBA8A0C8BC6
:1026E4000D8C0E8D0F740F121B42E0FAA3E0FB74E5
:1026F40011121B42E0F508A3E0F5097413121B4202
:10270400E0FEA3E0FF7808121D61EA2401F508EB5E
:102714003400F509E4F50AF50B780C790812181859
:1027240090920A78081219C7780C7908121818AA16
:102734000CAB0DAC0EAD0F1222847402121B0D8B68
:1027440009EA450960047A0180027A00EC2AFCED6A
:102754003400FDECF8EDF97A717B02121A6C8808EA
:102764008909E4F50AF50B8E828F8378081219D64D
:10277400ECF8EDF97A717B02121A6C8A088B0974F1
:10278400057808121AE48E828F83A3A3A3A3E50815
:10279400F0A3E509F07F08021C66C082C083E990BB
:1027A4006000F0D083D08222C0E074F2121CA6A292
:1027B400AFE433FED2AFE589A2E1500312133475BE
:1027C4008900C2C5751A00EEA2E092AF7F01021D16
:1027D40005C0E074F2121CA6A2AFE433FED2AFE54A
:1027E4008BA2E05003121334758B00C2E880D5C06D
:1027F400E0C0D0E8C0E0E5A8D2AFC2C7751A00A215
:0B280400E792AFD0E0F8D0D0D0E03277
:10281000FFFFFFFFFFFFFFFFC082C083E9900C9422
:10282000F0022A9C74F7121B4EE9900322F07C5AA6
:102830007D037AFF7BFF1208E490032374FFF0A36B
:10284000F0A3E4F0A3F0790512086C900322E0F9FC
:1028500012078E7A027B09120ACA0237AA74F4128E
:102860001B4E8A088B09EB54806030900322E0F9FC
:102870001211368A0A8B0BAE0AAF0BEE4F60138E25
:10288000828F83E064B07003120884EEFAEFFB12CB
:102890001124AA08E5096480FB80047A007B000209
:1028A0002A6B74F2121B4E74FC121AF7EAFEEBFF4D
:1028B0007412121B42123C91EE4F700302294574B0
:1028C00002121B42EEF0A3EF122CA6ECF0A3ED12C5
:1028D0002CA6AA82AB83120788E9F50A706AE5087C
:1028E000450960648E828F83123C77EE4F60567A82
:1028F000067B0012118A8A0C8B0DA80CA90DE849E1
:102900007005750A13804188828983E4122952EE8A
:10291000F0A3EF123CA2E508F0A3E509F09003282C
:102920001229D99003287005123754801B123742A0
:102930008003EAFCEBFD8C828D831229D970F38C25
:10294000828D8380E3750A02A90A7404121B0D02AA
:102950003E91F0A3123C48A32274F2121B4E890A46
:10296000E975F017A4FEAFF0900327E4F09003257B
:102970001229D9600A121190900325E4F0A3F0EE19
:10298000FAEFFB12118A8A088B09EA4509602FEEDB
:10299000FCEFFD790012110C900325E508F0A3E58A
:1029A00009F07B0080081229C3E4F0A3F00BEBC30D
:1029B000950A40F2E50A900327F079008002791326
:1029C000023E91EB75F017A4F8A9F0900325E028DA
:1029D000FAA3E0398A82F583221233E6EA4B2274A5
:1029E000F4121B4E740C121B42123C6CFEE9FF7574
:1029F0000800750900800CE5082401F508E5093494
:102A000000F509C3E5089CE5099D503285080A8553
:102A1000090B7403780A121AE4EA250AF8EB350B5D
:102A2000F988828983A3A3A3A3A3A3123829EE65FF
:102A30000A7003EF650B70BFE8FAE9FB80047A00C7
:102A40007B00802774F4121B4E7900EAA2E0501B31
:102A50007508B77509917808121D617C047D007AAC
:102A6000967B0C1208667402121B0D7F04021C2058
:102A7000C082C083900328122AA3601C88828983A5
:102A8000A3A3E06A7003A3E06B8882898370E8A344
:102A9000A3A3A31233E280047A007B00D083D08208
:102AA000020135123F77E8492274EE121B4E74FC86
:102AB000121AF7EAFEEBFF851882851983E4F0A36A
:102AC000F0EE2402123734EE2405123C4FEE2404BB
:102AD000F50EEF12305BE024FE603924FC604624E2
:102AE000FE605224FE605E24FE7003022BBC24FEB6
:102AF0007003022C2024FE7003022C2F24FE70038E
:102B0000022C3E24FC7003022C4D24FE7003022C88
:102B10005C022C999003417417F0A3E4122CAE12BE
:102B20000482022C99851882851983AC82AD8312A8
:102B3000088A022C69851882851983AC82AD8312BC
:102B40000890022C69850C08850D097402121B423D
:102B5000AC82AD838508828509831233E21207AC0B
:102B60008A0C8B0DAC0CAD0DEC4D603BE4F50CF517
:102B70000D780C121D61750C41750D03780C121D3A
:102B800061750C42750D03780C121D617408121BDF
:102B900042121D781240F3121B0DE9F50C700B1256
:102BA00033D812049A800F750C0185088285098339
:102BB000122C9C123754850C08022C6C7402121BC8
:102BC00042AC82AD83850C82850D831231AD603CB1
:102BD000850C82850D83A3A3121D78751041751194
:102BE000037810121D617510427511037810121DC3
:102BF000617408121B42121D781240F3121B0DE97A
:102C0000F509700B1233D81204A0800F75090185E5
:102C10000C82850D83122C9C123754850908804C38
:102C2000851882851983AC82AD83120896803A8517
:102C30001882851983AC82AD8312089C802B85187D
:102C400082851983AC82AD831208A2801C8518820C
:102C5000851983AC82AD831208A8800D8518828502
:102C60001983AC82AD831208AEE9F508E508602946
:102C70008E828F83A3E06414601F850E82850F838C
:102C8000E0900341122CA6123F7390034212375476
:102C9000E508A3122CAE12047C023643123F77855E
:102CA000188285198322F085188285198322F07C89
:102CB000417D03850A82850B831233E62274EE126E
:102CC0001B4E74FC121AF78A0A8B0B8C0E8D0FEABE
:102CD0002405F508EB3400F5097C157D0079007AB0
:102CE000417B0312110CE5082402F50CE509123CA6
:102CF0005285188285198385821085831178101278
:102D00001D61850882850983A3A3A3A31231A412A0
:102D10001D61E5082405F510E5093400F51178106A
:102D2000121D61850C82850D831234F91207A67479
:102D300006121B0D8A108B11AE10AF11E50A24028A
:102D4000F50AE50B123737EE4F7003022E7B801722
:102D50007402121B421233E288828983EAF0A3EBE9
:102D6000F0900341E004F0900341E0C39405400378
:102D7000022E7BE4F510F5117810121D6175102AF2
:102D80007511037810121D6175102B7511037810E1
:102D9000121D617406121B42121D787910EEFCEFB1
:102DA000FD1240F5121B0DE9705E850882850983CE
:102DB000A3A3A3A3A3A3A3E0F890032AE068704809
:102DC0001231A4121D617C2B7D03E5082408FAE56D
:102DD000093400FB1211067402121B0DE960298EE2
:102DE000828F83A3A3A3A31233E2900341E0F510E3
:102DF00074027810121AE474422510F582740335B7
:102E000011F583EAF0A3EBF07402121B42858210E5
:102E10008583117810121D617402121B42121D78F5
:102E2000850C82850D83123408121B0D8A108B11BC
:102E3000AE10AF11900341E0F510751100740278E7
:102E400010121AE474412510F874033511F98882C0
:102E50008983A31229D97003022D47E824030808A7
:102E600008E93400F9EE4F6003022D50888289830F
:102E700074FFF0A3F0900341E004F0900341E060A0
:102E80000A1233D812048E7900800B8508828509D6
:102E90008312374B790A02364374EA121B4E74FED2
:102EA000121AF78C128D13EA2405F50CEB1240DD93
:102EB000123C7B750800750900EA2402F510EB341A
:102EC00000F51185188285198385820A85830B7820
:102ED0000A121D61850C82850D83A3A3A3A3123062
:102EE00071121D61E50C2405F50AE50D12373778DE
:102EF0000A121D61850C82850D831230751207A69A
:102F00007406121B0D8A0A8B0BEA450B7003023004
:102F100016EA2404F50EEB12305B123C7B8A828B9E
:102F200083A3A3A3E0F98510828511831233EC609B
:102F300003023016E4F514F5157814121D617514AA
:102F40002A7515037814121D6175142B75150378F5
:102F500014121D617406121B42121D787913AC0AFB
:102F6000AD0B8510828511831240FB121B0DE9F514
:102F700009600302301690032AE0F8E5087009E0C2
:102F80002402900342F08014900342E0FCE8240203
:102F9000FAE43400FBEA6C7001EB707E850882AACB
:102FA0008212319B9414123193506B850E82850FDF
:102FB00083E0C0E074432A123052D0E0F005088567
:102FC0000E82850F83A3E0C0E085080A7443250ABA
:102FD000123052D0E0F0050890032A123071121D11
:102FE000617C2B7D0385080A7443250A1230651223
:102FF0001B0D90032AE02508F50874FF6E7003741A
:10300000FF6F6012EE24010EEF3400FFE508C39459
:10301000145003022EC3E50860131233F6851082A4
:103020008511831233E212049479008014E509704B
:103030000375090A851282851383EEF0A3EFF0A9C8
:10304000097402121B0D7F0E021C2085080C7443AC
:10305000250CF58274033400F583223400F50F85C6
:103060000E82F58322FA74033400FB1210F474020A
:1030700022123CB122A3A312307B22123742FDEE72
:10308000FAEFFB2274EE121B4E74FE121AF78C0E2E
:103090008D0FEA2405F50CEB123C52750B009003E2
:1030A00041E4F0F50AEA2402F508EB3400F5098062
:1030B00044900341E0FA90032AE0F812319B941700
:1030C000123193400D900341E0F87416C3989003B9
:1030D0002AF01231A4121D617C2B7D0374422AFA5E
:1030E0007403123068121B0D90032AE0F89003411C
:1030F000E028F0050AE50C2416F582E50D1230569D
:10310000E0F8E50AC3985074900341E0C394165068
:103110006BE50AC333F8E433F9E50C28FEE50D3915
:10312000FF851882851983AC82AD838E828F8312CE
:1031300031AD7008750B011237478050E4F510F57A
:10314000117810121D6175102A7511037810121D67
:103150006175102B7511037810121D617406121B16
:1031600042121D7879168508828509831240FB1268
:103170001B0DE9F50B70030230B180BB7C417D0370
:103180008508828509831233E21204A6A90B740212
:10319000023645E99400C365D03322EA28F8E434C6
:1031A00000F9E822E0F51075110078102212363A85
:1031B0008A108B11AC10AD11EC4D2274EA121B4E2B
:1031C00074FC121AF78A0C8B0D8C128D13EA2405ED
:1031D000F50AEB123737750800750900E50A240275
:1031E000F510E50B3400F5117402121B4285820EB6
:1031F00085830F780E121D61850A82850B83A3A338
:10320000A3A3123C57121D61E50A2405F50EE50B38
:103210003400F50F780E121D61851082851183121E
:10322000373D1233DC1207A67406121B0D8A0E8B73
:103230000FAE0EAF0FE50C2402F50EE50D3400F5D0
:103240000F80388882898374FFF0050812304B7430
:10325000FFF0050890032AE0F50C750D00780C12BC
:103260001D617C2B7D0385080C7443250C12306591
:10327000121B0D90032AE02508F508EE4F60278EFB
:10328000828F83A3A3A3E0F9850E82850F83123377
:10329000ECEE2404123C4FE96027850C82850D83F7
:1032A0001233CE123754E50870030233B41233F6EA
:1032B000850E82850F831233E21204AC790002334B
:1032C000C9E4F514F5157814121D6175142A7515E5
:1032D000037814121D6175142B7515037814121DD3
:1032E000617408121B42121D787911EEFCEFFD8506
:1032F0000E82850F831240FB121B0DE9F509709AAF
:10330000850882AA82EA90032A7009E024049003C7
:1033100042F08025E0F8900342E0F514E82404FC34
:10332000E43400FDEC65147001ED708112319B9462
:103330001212319340030232AD850C82850D83E079
:10334000C0E074432A123052D0E0F00508850C82A8
:10335000850D83A3E0C0E012304BD0E0123411851C
:10336000820C85830D780C121D617404121B4212AD
:103370001D78851082851183123408121B0D8A0C6A
:103380008B0DAE0CAF0D85080C7443250CF874033F
:103390003400F9EE4F700302324385188285198399
:1033A000E088828983123411A3E0C0E012304BD050
:1033B000E0023251E509700375090A850A82850B1E
:1033C000831233CE123754A9097404023043123FDA
:1033D00077851282851383227C417D03850A82854D
:1033E0000B831233E622E0FAA3E0FB221233E6124B
:1033F0000794E9F50922900342E0F5F0E50884908E
:103400000341F07C417D032212307B1207B2740429
:1034100022F005088518828519832274EC121B4E50
:1034200074FE121AF78A088B098C0E8D0FEA240598
:10343000FEEB3400FF123624EE2418123C4FEA450E
:103440000B70030234C712360D50291234EC8A1067
:103450008B11EA4511606B7912AC0AAD0B850882BD
:103460008509831233E2851082851183121B4CE992
:10347000F50A7058E4F50AF50B780A121D618E8280
:103480008F83A3A3E0F50A780A121D61EE240312CC
:103490003734780A121D618E828F831234F9120834
:1034A000D27406121B0DE9F50A7021850C82850D78
:1034B00083E0701F8508828509831233E21204B20B
:1034C0008011750A0E8009750A018004E50A6003FF
:1034D000123747850C82850D83E0600479008002F5
:1034E000A90A7402121B0D7F0C021C20851882850C
:1034F00019831233E61208C022123742FD85088272
:103500008509831233E62274EE121B4E74FE121AE2
:10351000F78A088B098C0C8D0DEA2405FEEB34002C
:10352000FF750E00123624EA450B70030235EB12CC
:10353000360D502C1234EC8A0E8B0FEA450F604A80
:103540007912AC0AAD0B8508828509831233E285B6
:103550000E82850F83121B4CE9F50E60030235EED7
:10356000850882850983123829AA0AFB1235FF7063
:10357000147AFF7BFF1235FF606C88828983E50A2D
:10358000F0A3E50BF0750A008007750E0E805F054D
:103590000A900327E0FAE50AC39A504AE50A75F053
:1035A00017A4FAABF088828983A3A3E02AFAA3E0E8
:1035B0003BFB8A828B8312373DEC4D70D2750A1724
:1035C000750B00780A121D61EEFCEFFD1210F47409
:1035D00002121B0DEEFCEFFD850882850983123374
:1035E000E21204B88014750E098003750E01123FB3
:1035F0006F850C82850D83123754A90E02318E120D
:1036000008B48A108B11A810A911E84922E50824F2
:1036100002F508E5093400F5098A828B83A3A3A388
:10362000E0A2E522851882851983AC82AD838E8263
:103630008F8312363A8A0A8B0B22E0FAA3E0FB1240
:1036400007AC227404121B0D7F0A021C2074EC12BA
:103650001B4E8C108D11EA2405F50CEB123C5275B3
:103660000F00EA2402F50AEB123737850A82F58348
:103670001233E21241817003023729750E00807106
:10368000850C82850D83E06401704F8E828F83A349
:10369000A3121D788E828F83A3A3A3A3E0F51275D6
:1036A00013007812121D61EE2405F512EF3400F5B7
:1036B000137812121D611233DC1208D27406121B29
:1036C0000DE9F50F6014850C82850D83E4F0123F3F
:1036D0006F8510828511831237547C177D00790025
:1036E000EEFAEFFB12110C8E828F83E4F0A3F0054B
:1036F0000E900327E0F8E50EC398501EE50E75F016
:1037000017A4F8A9F0850882850983A3A31240E7CE
:1037100012373DEC4D6003023680850882850983AF
:1037200074FFF0A3F0E50F70061233DC1204BEA99B
:103730000F0234E7F50AEF3400F50B22A3123742EB
:10374000FD22E0FCA3E0228E828F83123F77850E5C
:1037500082850F83E8F0A3E9F022C082C083900342
:1037600023E06A7003A3E06B70067A237B03800476
:103770007A007B00022A9C74F7121B4E7F00EF75C3
:10378000F003A4F8A9F0EC28F8ED39F988828983D0
:10379000E06A7003A3E06B7006E8FAE9FB800B0FA8
:1037A000EFC3940240D87A007B007F01021C207492
:1037B000F6121B4E123D6070067A007B008007A354
:1037C000A3A3A31233E2023E2174F2121B4EE9FEC0
:1037D000740E121B421238297410121B42123C91B3
:1037E0008C828D83E06402703BA3123F73888289D0
:1037F00083E0F50CA3E0F9A80C7402687003742947
:10380000697021750C02750D00780C121D61780825
:10381000121D61780A121D61EEF91208F674061283
:103820001B0D80027901023E91E0F50AA3E0F50B41
:103830002274E8121B4E74FB121AF7E98518828570
:103840001983F08A168B178C0E8D0F741F121B4272
:10385000123C917421121B421238297423121B420C
:10386000123C7B7510008C828D83A3A3A3E0A2E49D
:10387000502A741D121B421234F28A828B83E58215
:103880004583700302393D790AAC0EAD0FAA16AB21
:1038900017121B4CE9F5106003023940850E828532
:1038A0000F83E064026003023BF6A3123F738508B6
:1038B00082850983A3858212858313E50E2406F58C
:1038C0000CE50F123C5288828983E0FAA3E0F9EA02
:1038D0002400F514E439F5157814121DEB010000ED
:1038E000280128053907000228DC3903284C390053
:1038F00029063B01292E3B0229D53A0329063B0420
:1039000029973BF63BEE4F703E850C82850D831266
:103910003C6CFAE9FB8A828B83E0850A82850B8303
:10392000123CA8121D618A828B83A3123742FDAA22
:1039300008AB091210F47402121B0D800375100EEF
:10394000A91074050240D575100B80F4EE4F70F786
:10395000850A82850B837401F0123C81850882857B
:103960000983F07C007D00850E82850F83A3A3A3CD
:10397000A3E02401FAA3E03400FB1207ACEA4B6099
:10398000418A828B83E02402F8850A82850B83E0DA
:1039900028F0EA2404F8EB3400F988828983E08572
:1039A0001282851383123CBA123CA8121D618A82CE
:1039B0008B8312373CE5082403FAE5093400FB0247
:1039C0003933850A82850B83E02404F07C047D0072
:1039D0007900AA12AB1312110C023940EE4F6003AA
:1039E000023947123C81FEA3E0FF850A82850B83E2
:1039F0007404F0EE850882850983F0EF85128285D4
:103A00001383F07403121B42AC82AD83EEFAEFFB1A
:103A1000123D4E7003023AB28A828B83A3A3123CFA
:103A2000777401121B4285820E85830F780E121D5A
:103A3000617405121B42121D787CFF7DFF1207B2D4
:103A40007404121B0D8B0FEA450F7033850C8285B1
:103A50000D83123C57121D61850C82850D83A312C4
:103A60001D787C027D007AA67B9212059074041268
:103A70001B0DE9700A7401121B4274FFF0A3F08E53
:103A8000828F83E064027034750C02750D00780C2F
:103A9000121D618E828F8312373CE5082404FAE5FB
:103AA00009123068121B0D850A82850B83E02402FF
:103AB00080097401121B42EEF0A3EFF07401121B97
:103AC00042123C68F07401121B42A3123C60A3A393
:103AD000A3F0023940EE4F6003023947850C82851E
:103AE0000D8312373DAA16AB171208EA850A8285A4
:103AF0000B837402F0EA850882850983F0851282BF
:103B0000851383EB80CBEE4F6003023947123C8173
:103B1000F8A3E0F9850A82850B837402F0E8850832
:103B200082850983F0E985128285138380A3850C41
:103B300082850D831233E21210EEEAFC8C82A88299
:103B4000C39EE49F404BE86E7001EF70047C0080E0
:103B50001F851882851983E0FAEE2AFAEF3400FBFC
:103B6000C3EA98EB94005003E08004EECCC39CFCC5
:103B7000EC850A82850B83F08C0A750B00780A129B
:103B80001D61850C82850D83E02EFCA3E03F023988
:103B90002E751007023940EE4F6003023947850C3D
:103BA00082850D83123F73850A82850B837407F02B
:103BB00088828983123C60123C48E085128285131A
:103BC00083F0E82402FAE93400FB8A828B83123CFA
:103BD00060123C99123C68A3123CA2123C71F0E8BE
:103BE0002405F8E93400F988828983123C71A31214
:103BF0003CBAA3023ACE741D121B42123D59700307
:103C000002393D123F73880C890DE8450D7003029F
:103C1000393D8E108F117810121D61780A121D61C6
:103C20007808121D617406121B42E0F9AC0EAD0F4C
:103C3000AA16AB17850C82850D83121B4C740612D5
:103C40001B0DE9F510023940F088828983A322F523
:103C50000CEF3400F50D22E0F50E750F00780E2202
:103C6000E085088285098322123CC122123F77E851
:103C700022123CC1A3A322A3A3A3A3E0FEA3E0FFBF
:103C800022850C82850D83E0F8A3E0F5838882E02D
:103C900022E0F508A3E0F50922A3A3F08A828B8332
:103CA000A322122954A3A322F08A828B83123CB14F
:103CB00022E0F50A750B00780A22123C48123CC13A
:103CC00022E0850882850983A3A32274EE121B4E8D
:103CD00074FE121AF78A0A8B0BECFAEDFB741412BD
:103CE0001B42E0F510A3E0F5117416121B42E0FE32
:103CF0007418121B42E0F50EA3E0F50F85188285BB
:103D00001983AC82AD83123D4E603E8518828519C1
:103D100083123D59602FA3A3123C91E50845096029
:103D200024780E121D617810121D61EEF9AC0CADF5
:103D30000DAA0AAB0B850882850983121B4C7404FB
:103D4000121B0D8006790E8002790102318E120756
:103D5000AC8A0C8B0DEA450D221233E6123D60222F
:103D600012087E8A828B83E58245832274F6121BB9
:103D70004E74FE121AF7740C121B42123C6C85181A
:103D800082851983F07401121B42E9F0E4F508F50D
:103D9000097808121D617508027808121D61740403
:103DA000121B428582088583097808121D6112085A
:103DB000D27406121B0D7402121B0D806474F7126C
:103DC0001B4EEAFEEBFF89087C5A7D031208EAEAE3
:103DD0005402600BA908EEFAEFFB1207A0800279EB
:103DE000010237AA74F6121B4E74FF6A700374FF47
:103DF0006B701C7B00EB75F003A4F8A9F0EC28F8BD
:103E0000ED39F9123E260BEBC39402501480E612F2
:103E100008BA8A088B09A808A909E8496003123E74
:103E2000267F02021C208882898374FF122952E4B3
:103E3000F02274F6121B4E1208BA8A828B83E58236
:103E400045836006A3A3E0FA80027A007B0080D15C
:103E500074F2121B4E8A088B09ECFEEDFF740E12F1
:103E60001B42E0F50A123E96701CEEFCEFFD7AFF55
:103E70007BFF123E9670047911801688828983E553
:103E800008F0A3E509F088828983A3A3E50AF07905
:103E9000007F06021C201208BA8A0C8B0DA80CA900
:103EA0000DE8492274EE121B4EEAFEEBFF8C088DE2
:103EB00009890C7412121B42123F737414121B42B4
:103EC00012373D7416121B421233E2750D00EC4D91
:103ED0006003023F677402650C6003023F628882E0
:103EE0008983123742F9EC2400F50EE439F50FEA24
:103EF000F4F8EBF4F9EC58F8E50F59F9E849705D7E
:103F0000E5082406F8E5093400F9880A890B888257
:103F1000F5831230771208EA8A108B11E50E6510CE
:103F20007004E50F65116042780E121D61850A82EA
:103F3000850B831230771208F07402121B0DE9F51D
:103F40000D7027780E121D61850882850983A3A351
:103F50001230751209087402121B0D800D750D8048
:103F60008008750D0D8003750D0BA90D0236488E66
:103F7000828F83123F7722E0F8A3E0F92274E812DF
:103F80001B4E74E7121AF7851882851983EAF0A38D
:103F9000EBF08C168D17890E7431121B42E0F5126E
:103FA000A3E0F5137433121B42E0F514A3E0F515FA
:103FB0007435121B42E0F50F750800750900E5091C
:103FC00075F003A4F8A9F08518828519831240E7DB
:103FD000E0F47003A3E0F470030240C5EE2402F5A0
:103FE0000CEF1240DDE070030240C585160A85170C
:103FF0000B780A121D61AC14AD15AA12AB1312088E
:10400000727402121B0D8A0A8B0BEA450B700302B5
:1040100040C5E4F510F5117810121D617406121BED
:10402000428582108583117810121D617409121B5C
:10403000428582108583117810121D618512828558
:104040001383A3A3A3A3121D787914AC0AAD0B8E1E
:10405000828F831240FB121B0DE97069850A8285ED
:104060000B83A3A3A3A3123F737402121B42123744
:1040700054850C82850D83E0A2E05018A90E7402CD
:10408000121B42AC82AD838E828F831233E2120701
:10409000C4E94208850C82850D83E0A2E15026E543
:1040A0000FF50A780A121D65A90E7403121B42ACA3
:1040B00082AD838E828F831233E21207BE740112A7
:1040C0001B0DE942080509E509C394025003023FAC
:1040D000BEA9087419121B0D7F10021C203400F5B4
:1040E0000D850C82F58322E028FEA3E039FF8E8245
:1040F0008F83227916850A82850B831233E6120894
:10410000CC74082274F2121B4EEAFEEBFF890B748A
:1041100001650B600E7402650B70637901120AE889
:10412000E9705BEEFAEFFB1241816047750A00808F
:104130000B7C177D00790012110C050A900327E013
:10414000F8E50AC3985021E50A75F017A4F8A9F01C
:10415000850882850983A3A3E028FAA3E039FB8AB6
:10416000828B83122AA370C985088285098374FF14
:10417000F0A3F07C5A7D03EEFAEFFB1208E4023E56
:10418000911208B48A088B09EA45092274F2121BBD
:104190004E8A088B09ECFEEDFF740E121B4212389A
:1041A00029900C94E0F4603D7A097B0012111EEA1C
:1041B0004B60328A828B8374B1F0A3E4123C9BA3E0
:1041C000123C99A3E508F0A3E5091241E8EEF0A33B
:1041D000EF1241E8A3A3E50AF0A3E50BF0900C94DD
:1041E000E0F912112A023E91F08A828B83A3A3A3E5
:1041F000A3A32274F4121B4EE9FF7E008A088B09E8
:104200007808121DA500040DA443264242425742DD
:104210006C4281429642B242CB42DD420B432D4377
:1042200049436543834374016F70128C828D83E030
:10423000C394035008E0900D80F00243C27E180240
:1042400043C274026F70F68C828D83124B00900D06
:1042500081E8F0A3E980E274016F70E18C828D83C4
:10426000E0C3940250D7E09007C380CD74016F7013
:10427000CC8C828D83E0C3940550C2E09007C4804B
:10428000B874016F70B78C828D83E0C3940250AD17
:10429000E09007C580A374106F70A27508108E0996
:1042A0007808121D617AC67B07124EC4121B0D02DC
:1042B00043C274016F70868C828D83E0C394024088
:1042C0000302423DE09007D602423974016F600359
:1042D00002423D8C828D83E0900D84808D74046F4A
:1042E000600302423D90924E78081219C78D838C6C
:1042F000827808121521400302423D8C828D831280
:1043000019E59007D81219F10243C2EF6003024287
:104310003D1206FEE9700E121298795012144812DE
:10432000128C0243C290086B740102423974016F0F
:10433000600302423D8C828D83E0C39402400302FD
:10434000423DE09007D702423974016F6003024298
:104350003D8C828D83E0C3940A400302423DE0908D
:104360000D8302423974016F600302423D8C828DDD
:1043700083E024F9C3940A400302423DE0900D8596
:1043800002423974016F600302423D90086AE0F80E
:104390008C828D83E090086AF0E87026E0640170FA
:1043A0002102431FC3EA9426EB9400501374026F5A
:1043B000700E8C828D83124AFA12059CE9FE8002EF
:1043C0000E0EEEF90243CC740E121B0D7F04021C7C
:1043D0002074F0121B4E74CC121AF78C0A8D0B74D9
:1043E00044121B42E0FE7420121B42AC82AD837566
:1043F00083917582C97406121A0A7420121B42AC8A
:1044000082AD8312123EE9F508C3940A40030245C7
:104410003575F006E9A4F5097426121B42AC82AD8D
:10442000837A0E74202509124F7C70097432121B96
:1044300042E0FF80027F00900D80E064027004740F
:10444000018001E4F50D780D121D65EEFDEFFCA96C
:1044500008AA0AAB0B1212C27401121B0D7C147D48
:10446000007900740C121B42AA82AB8312110C74E7
:104470000C121B42AC82AD837A1074242509124FB2
:104480007C70377C1079FF740C121B42124CA9709F
:1044900029741C121B42AC82AD837A047425250951
:1044A000F9121442740C121B42AC82AD83EFA2E0ED
:1044B000E433F9AA0AAB0B12062685188285198304
:1044C000AC82AD837A0C74702508124F7C705585D0
:1044D0001882851983AA82AB8312126E750800E5D3
:1044E0000875F003A4F8A9F0851882851983E58280
:1044F00028F8E583124CE5124AFAEC4D601D8882DB
:104500008983A3A3E0F50E750F00780E121D61AA32
:104510000AAB0B1208D87402121B0D0508E508C37C
:10452000940440BBEFA2E1500C9007C2E0F9AA0A44
:10453000AB0B1208DE74046E702A900D80E06402EA
:1045400070229007D6E060047A0180027A0090071A
:10455000C3E06004780480027800E84AF9AA0AAB54
:104560000B1206E679007434121B0D7F08021C2022
:1045700074F0121B4EEAFEEBFF8C088D09750A0AD7
:10458000E9600C14600914602E14607F0246161254
:104590001280E9F50AC3940A507CE5084509607663
:1045A000750E06750F00780E121D61EEFCEFFD1200
:1045B0004EC0121B0D805F750B00750E06750F0047
:1045C000780E121D61EEFCEFFDE50B75F00EA4F800
:1045D000A9F074E428FA740739FB12110674021268
:1045E0001B0DE9601B850B0AE50AC3940A5027E5F9
:1045F0000845096021AA08AB09A90A12127A801697
:10460000050BE50BC3940A500D80AF121286E9F535
:104610000AC3940A40D9A90A02456B74F4121B4ECE
:10462000890875091574FF6A700374FF6B70277E23
:1046300000AC087A027B00EEF912125CE9600375A7
:1046400009000EEEC3940A40E8E50860497AB07BA1
:1046500012120AFA8040120ADC8A0A8B0BAE0AAFE9
:104660000BEE4F602E7C007D00EE2405FAEF340047
:10467000FB8E828F83124712500CAC087A027B00AB
:1046800012125C750900E508600CEEFAEFFB1212DD
:10469000B08003750914A9090243CC74F2121B4EB1
:1046A000ECFEEDFF740E121B42124AED75081574F4
:1046B000FF6A700374FF6B7021750900AC0AAD0BC3
:1046C000EEFAEFFBA909121262E960037508000512
:1046D00009E509C3940A503580E2120ADC8A828B0C
:1046E00083E582458360237C007D00E5822405FA12
:1046F000E5833400FB1247125013AC0AAD0BEEFAFF
:10470000EFFB1212627508008003750814A90802F5
:1047100054EBA3A3A3A3E0F912123EE9C3940A2227
:10472000C082C0839007DCEAF0A3EBF09007C2E000
:10473000FC7D007A257B0012059C9007C2E0F912EF
:104740000854D083D08202013574EA121B4E74ECF7
:10475000121AF7EAFEEBFFEE240CF514EF3400F525
:1047600015EE240AF510EF3400F511EE2405F50ED0
:10477000EF3400F50FEE2409F50AEF3400F50BEEE7
:104780002403F508EF3400F5098E828F83A3A3E09C
:1047900024FA7003024AB624FD70030249E514703E
:1047A0000302483414601024FD70030249B61470EB
:1047B00003024A1A024AD4124B19604AE0F5838870
:1047C00082124B00880C890DE8450D6039851482F2
:1047D000851583E0F50E780E121D65EE240BF5822B
:1047E000EF3400F583E0F9850A82850B83124AFADB
:1047F0000A0A0AAB09850C82850D83121B4C7401D1
:10480000121B0D024AD4850A82850B83121D7890F3
:1048100007D81219E51206387402121B0DE970034D
:10482000024AD47901850A82850B8312531012063D
:1048300032024AD48E828F83A3858212858313E04D
:10484000600302498F850E82850F83E0A2E040035A
:1048500002498F7C0E7D007900851882851983AA14
:1048600082AB8312110CEE2408F50AEF3400F50B2D
:10487000850A82F583124B1C6019750C06750D00B4
:10488000780C121D61850A82850B83E02410FCA33D
:10489000E0801A124ADEEA4B7003024AD4750C0615
:1048A000750D00780C121D61EA2405FCEB3400FD47
:1048B0007402121B42AA82AB83124EC4121B0D85D6
:1048C0000E82850F83E0A2E25004D2F08002C2F093
:1048D000A2F0E433F8740C121B42E048F085108219
:1048E000851183124B1C6015851082851183E0248D
:1048F00010F8A3E03400F9888289838003909252F3
:10490000780C1219C7851082851183124B1C600F19
:10491000851082851183E0F510A3E0F511800675FE
:104920001000751100850A82850B83124B1C600BE9
:10493000850A82850B83124AED8006750A00750B85
:1049400000780C121D5D7810121D61780A121D612D
:10495000851482851583121D788E828F83A3124A57
:10496000F5740A121B42AA82AB83121274740A12E3
:104970001B0D850882850983124B0090086CE8F0B6
:10498000A3E9F07A017B009007C2E0F912114E1200
:104990004B197003024AD4124B067003024AD485A5
:1049A0001282851383E0FC790112530A8E828F8371
:1049B000121B4C024AD4124B197003024AD4E0F580
:1049C000838882A3A3124B00890BE8450B70030276
:1049D0004AD48E828F83A3E0FC790212530A888224
:1049E000850B8380CB7C007D00EE2404FAEF34003D
:1049F000FB850882850983E0F912123EE9F8C39429
:104A00000A4003024AD4AC10AD117A0475F006E8EE
:104A1000A42425F912143C024AD49007D7E0600E72
:104A2000900D83E0F985088285098302482B900D5B
:104A300080E07004790580ED124ADE8A0C8B0DA8A7
:104A40000CA90DE82404F50CE93400F50D8E828FD5
:104A500083A3A3A3A3A3A3A3E0A2E05036E84960E5
:104A600073850C82850D83E0FE6028850A82850BA4
:104A700083E05410701D740E121B42AC82AD83E8AB
:104A80002405FAE93400FBEEF912123EE9700479CC
:104A9000038092AC0EAD0F850C82850D83E0F91278
:104AA000530A1212BC124B19602A124B0660257C65
:104AB0000079000249A91206FEE9701890086BE01F
:104AC0006401700812129890086BE4F07950121487
:104AD0004812128C7414121B0D7F0E021C208508C4
:104AE00082850983E0FAA3E0FB120ADC22E0F50AE2
:104AF000A3E0F50B22A3A3A3A3A3E0FCA3E0FD2264
:104B0000E0F8A3E0F922E0F5838882A3A3E0F8A30C
:104B1000E0F9E8FEE9FFEE4F229007DCE0F8A3E0C1
:104B2000F9E8492274F4121B4E74F2121AF7EAFEE5
:104B30008C0B75F006E9A42420F5088518828519E8
:104B400083AC82AD837A0E124F7C704A7C06124C85
:104B5000A17043740C121B42124B00E8F509E50BDF
:104B60006005EE42098004EEF45209850982AA82AA
:104B7000E86A7001E9601B740C121B42EAF0A3E4BE
:104B8000F0851882851983AC82AD837A0EA908124C
:104B9000143C7901800279000243C774F2121B4E63
:104BA00074E6121AF7890A8A088B09ECFEEDFF7485
:104BB0000C121B42124F6F6003024C557C0679FFAA
:104BC000740C121B42124CA96003024C55747025E0
:104BD0000AF50B851882851983AC82AD837A0C1295
:104BE0004F7C6003024C9A851882851983AA82AB98
:104BF0008312126EE508450970217C0C7900124C75
:104C0000A36003024C9A7C0C7D0079008518828594
:104C10001983AA82AB8312110C80618518828519D1
:104C200083AC82AD83AA08AB091212688A0C8B0D83
:104C3000A80CA90DE849702CEE4F601985188285E3
:104C40001983AC82AD837A007B00121268EAF8EB1C
:104C5000F9EA4B70047900804388828983E508F083
:104C6000A3E509F0124D21FAEE6A7001EF602BEE18
:104C7000F04F700888828983E4F0A3F0851882855C
:104C80001983AA82AB8312126E851882851983ACB0
:104C900082AD837A0CA90B12143C7901741A025468
:104CA000E879FF851882851983AA82AB8312117275
:104CB000E92274F7121B4E7F00EF75F003A4F8A9E8
:104CC000F0EC28F8ED124CE5E06A7003A3E06B709D
:104CD00006E8FAE9FB800B0FEFC3940440DB7A008F
:104CE0007B0002501A39F9888289832274F7121BDB
:104CF0004E7E00EE75F003A4F8A9F0EA28F8EB1256
:104D00004CE5E0F4FCA3E0F4FD88828983ECF0A399
:104D1000EDF0124D21F4F00EEEC3940440D5025094
:104D20001AE82402F582E93400F583E02274EE12D9
:104D30001B4E74F4121AF7EAFEEBFF8C0A8D0B740B
:104D40001E121B42E0F50CA3E0F50D7420121B426D
:104D5000E0F508A3E0F5097422121B42E0F510A368
:104D6000E0F511EE4F7005790A024E52121280E9F9
:104D7000F50EC3940A4023750F007C0679FFE50FFA
:104D800075F00EA4FAABF074DE2AFA74073BFB123E
:104D90004CAD7003024E5C850F0EE50EC3940A40C5
:104DA00003024E5075F006E50EA4F50FEEFCEFFD84
:104DB0007A0E7420124E6DE50A450B600BAC0AADFD
:104DC0000B7A1B7421124E6DE50C450D600BAC0C7B
:104DD000AD0D7A1B7422124E6DE5084509600BACCF
:104DE00008AD097A107423124E6DE5104511601B51
:104DF000AC10AD117A107424124E6D7424121B4243
:104E0000AC82AD837A047425124E6D7C0C7D0079E2
:104E1000FF1255797A0C7470250EF912143C75083E
:104E20000E7509007808121D61EEFCEFFDE50E75A8
:104E3000F00EA4F8A9F074DE28FA740739FB124EBC
:104E4000C4121B0D90086AE060031212C81212B659
:104E5000A90E740C121B0D7F0A021C20050FE50F12
:104E6000C3940A5003024D7A750E0A80E3250FF9A8
:104E700012143C2274F4121B4E74F2121AF7EAFE5A
:104E8000EBFFE9C3940A5004EE4F70047902802DC1
:104E9000851882851983124F6FF508701E750A06F2
:104EA000750B00780A121D617402121B42AC82ADB0
:104EB00083EEFAEFFB124EC4121B0DA9080243C782
:104EC000AA08AB091210F474022274F4121B4EEA01
:104ED000FEEBFF750800750A06750B00780A121DB7
:104EE00061EEFCEFFDE50875F00EA4F8A9F074DEA4
:104EF00028FA740739FB1211067402121B0DE960BF
:104F000004A908800B0508E508C3940A40C8790A7B
:104F10000243CC74F7121B4E74F0121AF7EAFEEB40
:104F2000FF750800851882851983AC82AD837A10DD
:104F300075F006E508A42423124F7C701F7C101224
:104F40004CA17018EEFCEFFD851882851983AA82AA
:104F5000AB83120608E97004A908800B0508E50870
:104F6000C3940A40BF790A7410121B0D02501AAC88
:104F700082AD837A0E75F006E9A42420F91214425A
:104F8000E92274F7121B4E750800E50875F00EA4AF
:104F9000F8A9F074DE28FE740739FFEEFCEFFD7A05
:104FA0000E75F006E508124F79602C7C067D0079BD
:104FB000FFEEFAEFFB12110C7C067D0079FFEE2468
:104FC00006FAEF3400FB12110CEE240CF582EF34DC
:104FD00000F583E4F0A3F00508E508C3940A40AAAD
:104FE00090086AE060031212C81212B6802C74F79F
:104FF000121B4E7E007F007C0679FFEF75F00EA439
:10500000FAABF074DE2AFA74073BFB124CAD700168
:105010000E0FEFC3940A40DFEEF97F01021C2074EB
:10502000F7121B4E7E00EEF912129E0EEEC3940A8A
:105030005003E960F180E374F3121B4E74CB121A33
:10504000F7E9FF75F006A4F50874202508FE74271B
:10505000121B42AC82AD837A0EEE124F7C600302CB
:1050600051397C0679FF7427121B42124CA9600348
:105070000251397C0E7D0079FF7427121B42AA82EF
:10508000AB8312110C7C1B7D0079FF740C121B4248
:10509000AA82AB8312110C7C0C7D0079FF851882EB
:1050A000851983AA82AB8312110C7427121B42ACA0
:1050B00082AD837A0EEEF912143CE9F509740C12F4
:1050C0001B42AC82AD837A1B7421125148FE740CD2
:1050D000121B42AC82AD837A1B7422125148F50A2E
:1050E000740C121B42AC82AD837A107423125148A7
:1050F000F50B740C121B42AC82AD837A107424122F
:105100005148F50C740C121B42AC82AD837A0474C6
:1051100025125148F508851882851983AC82AD8324
:105120007A0C74702FF912143CE9F8EE450A450B1D
:10513000450C45084842098003750900A9097435E2
:10514000121B0D7F05021C202508F912143CE922D0
:1051500074F7121B4EE99007C2F012128C02501A1B
:1051600074F2121B4E74FB121AF78A088B09EB5467
:105170008070030252049007C2E0F91211368A0AC5
:105180008B0BA80AA90BE8FEE9FFE849606CEE2446
:1051900004F8EF3400F98E828F83E02450603814D5
:1051A000600624E1604A804B88828983E070448EE7
:1051B000828F83A3A3A3A3A3A3A3121D788E828FA0
:1051C00083124AF58E828F83A3A312531012124AC0
:1051D0007402121B0D801C88828983E0641E701388
:1051E00079008E828F83A3A312531012124480037E
:1051F000121256EEFAEFFB121124AA08E509648098
:10520000FB025305EAA2E0400302530190086C122E
:105210004AED7403121B4285820C85830D780C12B3
:105220001D61750C02750D00780C121D61750C9EC8
:10523000750D92780C121D617CFF7DFF7A017B0059
:105240001207A67406121B0D0252E9E4F50CF50DC7
:10525000780C121D617404121B4285820C85830D2B
:10526000780C121D617404121B4285820C85830D1B
:10527000780C121D617409121B42121D787902EE1E
:10528000FCEFFDAA0AAB0B1208CC7408121B0DE947
:105290007035851882851983E0FA7401121B42E08B
:1052A000F9EA2400F50CE439F50DEA450D601878AB
:1052B0000C121D618E828F83124AF6AA0AAB0B1262
:1052C000124A7402121B0DE4F50CF50D780C121D38
:1052D000617405121B42121D787CFF7DFFEEFAEF10
:1052E000FB1207B27404121B0D8A0C8B0DAE0CAFAF
:1052F0000DEE4F600302524BE5086401FAAB0980E2
:10530000047A007B0074050254E8850882850983CD
:10531000E0FAA3E0FB22C082C0839007C2E0F98AD2
:10532000828B83A31253101208DE024742C082C050
:105330008374FF121AF7121292E9C394028518823D
:10534000851983400474028002740AF0AC82AD8334
:105350007A0179051207167401121B0D0247427477
:10536000F2121B4E74E8121AF7EAFEEBFF890A8C60
:10537000088D097C187D007900125581EEF0A3EFAD
:10538000F09007C4E0C0E07402121B42D0E0F0903D
:1053900007C5E0C0E07403121B42D0E0F0900D8519
:1053A000E0C0E07417121B42D0E0F07415121B42EB
:1053B000E054FEF8A3E0F9900D84E0A2E0E433FAB3
:1053C000E84AF87415121B421254F7A2E15004D2B5
:1053D000F08002C2F0E854FDFAA2F0E43333F8EAB8
:1053E00048F87415121B421254F7A2E35004D2F08D
:1053F0008002C2F0E854F7FAA2F0E433F50C750D20
:10540000007403780C121AE41254F0121B42125466
:10541000F7A2E45004D2F08002C2F0E854EFFAA2FE
:10542000F0E433F50C7404780C121AE41254F01200
:105430001B421254F7A2E55004D2F08002C2F0E8F9
:1054400054DFFAA2F0E433F50C7405780C121AE478
:105450001254F0121B421254F7A2E25004D2F08010
:1054600002C2F0E854FBFAA2F0E433F50C740278BF
:105470000C121AE41254F0121B42E8F0A3E9F09067
:1054800007C5E0601B750C10780C121D617CC67D91
:10549000077406121B42AA82AB83124EC4121B0D64
:1054A0009007D6E06011E50A60097415121B42E00E
:1054B0004402F07801800278007414121B42E04824
:1054C000F09007C3E060047804800278007414123E
:1054D0001B42E048F0AC08AD09851882851983AA03
:1054E00082AB8312062C7418121B0D7F06021C203F
:1054F000EA450CF8741522E8F0A3E9F0900D84E079
:105500002274F3121B4E74E5121AF7EAFEEBFF8CBD
:10551000098D0A7428121B42E0F50C75F006E9A407
:10552000F87408650A700474228002742128F50B4F
:105530007C1B7D0079001255797A1BA90B124F7DD7
:105540007032741A121B42E024F9C3940A5025E504
:105550000CF50B780B121D657401121B42AC82AD69
:1055600083E509A2E0E433F9EEFAEFFB12063E749C
:1055700001121B0D741B025140125581AC82AD8388
:1055800022851882851983AA82AB8312110C851893
:10559000828519832274F7121B4E12095075080078
:1055A000E50875F00EA4F8A9F074DE28FE7407393A
:1055B000FF7C0679FFEEFAEFFB124CAD7009EEFAB4
:1055C000EFFB79001209560508E508C3940A40D09C
:1055D00002501AC082C0839061907404F0A3744892
:1055E000F0A3E4F09061807440F09061BC7407F027
:1055F0009061877469F09061B67416F07900120BAF
:10560000DE7902120BE4902810E493F46006E49330
:10561000F9120BBA7905120ED8025A15C082C0834E
:10562000E9540FF9906185E0696012E5C654804441
:1056300049F5C6E59E547F644970F8E9F053C68089
:10564000E59E547F70FA025A1574F7121B4EE5A8B6
:10565000FE53A87E120BC6C2BA539AFEC289759B2E
:1056600000C2C2120BCC75A91175B905120BD2D2AA
:10567000BA439A0174805E42A8025FA2C082C083CE
:10568000906181E4F0A3025A1275E90075910075EA
:10569000BF00020135C082C083906181E4F0A37431
:1056A000C0F0A3E4025A14C082C08374F8121AF73F
:1056B000900406125E84E849700302575E90040667
:1056C000E0544060237908851882851983AA82AB4B
:1056D00083120CD4851882851983AA82AB831209A0
:1056E0007A900406E054BFF0E054806010790C7AA0
:1056F000C27B05120CD4900406E0547FF0E0A2E0D7
:105700005008790012576654FEF0E05402600879A0
:105710000112576654FDF0E05404600879001257F6
:105720007154FBF0E054086008790112577154F786
:10573000F0E054106008790212577154EFF0E05411
:10574000206008790312577154DFF0A3E054016020
:105750000D120BF012098C900407E054FEF074084F
:10576000121B0D025A15120BDE120980900406E07E
:1057700022120BE4120986900406E022C082C08344
:10578000E9600514602A804F90619A7433F0A37425
:1057900055F09061A0743AF090059EE064017009A4
:1057A000C2919004087467802D900408746180266B
:1057B00090619A743FF0A3745AF09061A0747FF0E6
:1057C00090059EE064017009D29190040874718084
:1057D00005900408746AF0025A15C082C083E9601B
:1057E0000B14600D14600F14601180209028148039
:1057F000159028158010902816800B90059EE06467
:105800000160F3902817E493906186F0025A1574B2
:10581000EE121B4E74F4121AF7851882851983ACA8
:1058200082AD837583927582067404121A0A9028D9
:105830001493F460030259A1907808E0C3940250D5
:10584000030259817404121B42AC82AD83758391AB
:105850007582A27408121A0AF97AFF7BFF7FFF7E15
:10586000008982858210801874086E700302593690
:1058700074096E7003025936740A6E700302593649
:10588000E510C333FCE433FD7404121B42E5822CA3
:10589000F582E5833DF583E0F50EA3E0F50F8E0874
:1058A00075090074027808121AE474482508FC741B
:1058B000783509FD8C828D8378081219C7740878B1
:1058C0000812190885080C85090D8C828D837808CB
:1058D0001219C774187808121908E50C4508F5085C
:1058E000E50DF509C3E50E9508E50F95098C828D48
:1058F0008378081219C78C828D8378081219C774AF
:105900001878084014121908E50C4508FCAD0DE59F
:105910000EC39CFCE50F9D800F121908E50C45088D
:10592000C3950EFCE50D950FFDC3EC9AED9B50065B
:10593000ECFAEDFBEEFF0EEEC39413500302586831
:1059400074FF6A700374FF6B602D8F08740278080F
:10595000121AE4744812663074783509F5837808B1
:105960001219C7851882851983E5822510F582E50D
:10597000831263BDE508F009E9C39404500302589B
:10598000597508017509007808121D617402121B0F
:1059900042AC82AD837A057B0A12130A7402121B91
:1059A0000D740C121B0D7F0A021C20C082C0839054
:1059B0006186E0F8902817E493687009902816E44F
:1059C00093906186F09061AE7468F0A3746AF09071
:1059D000624574FBF0A304F053F4FD43FE0290050E
:1059E0009E7401F09061A0E0643A70047900800236
:1059F0007901120BDE025A15C082C083900550E077
:105A00006401700A900555E06004790C8002790009
:105A10008003F0A3F0D083D082020135C082C0831E
:105A200075E1F1900553E0604D1460081460511465
:105A300060498051120C02900549E0F97A4A7B05D1
:105A4000120E5A9092461219E5120E90909232124E
:105A500019E5120E66900554E0F9120E72790112E2
:105A60000ECC900547E02416125BAA741AF0A374BA
:105A70000CF07900809F120C0880BC120C0E80B7CD
:105A8000120C1480B2791280EB74F4121B4E75D98B
:105A90000D900538E0A2E0E4331313F8125B1648CA
:105AA0004401F5D97800125B9440FB7800880874B3
:105AB000391266307405125B9E40F275E1959005CF
:105AC00038E0F97A397B05120E60900CB67490F0CC
:105AD000A3740B125BB9125BD9125BD0125D111269
:105AE0005B2078081219C790928A7808121953908F
:105AF000925A78081219A1125BA478081219D6904C
:105B00000547E02414125BAA7413F0900404740295
:105B1000F07F04021C20900549E0C4333354C022B6
:105B2000900547E0F8A3E0F5838882A3A32274F6EA
:105B3000121B4E125CE28AD97800125B9440FB780B
