:020000040000FA
:0600000002011D02222690
:03002B000228D7D1
:030033000228B9E7
:0300530002229CEA
:03006B00022890D8
:10008300022117E5C754F84401F5C779012200009E
:100093000080FB120086B90003020107E47921788E
:1000A30008B800028004F709D8FCE479297802B87B
:1000B30000028004F709D8FCE490028178F3790AFE
:1000C3008002F0A3D8FCD9FA781A90014D7A01BACC
:1000D30000028007E493A3F608DAF9900C73AA826E
:1000E300AB8390014E780B79048015E493A3AC8223
:1000F300AD838A828B83F0A3AA82AB838C828D83A8
:10010300D8E9D9E77582B07583D8740312012F75C6
:100113008291758300740012012F75D00075813FA1
:10012300751881751902759F00020096C09FF59F8F
:10013300E473D09F22D083D082C09FE493C0E07445
:100143000193C0E0740293F59F2201B405C005FF3B
:100153000000B4000028002800283075A000A0008B
:10016300A000A00000080008E001F000100010004B
:10017300100010001000100050005000500010003C
:100183001000D0070000000000000F000100050070
:10019300307507001000010081FF0000FFF806160C
:1001A30007FE06FF02020208025000A0000000E85A
:1001B30003020E93010000F092020893010000CCA9
:1001C3000C020093010000B702020893010000CD66
:1001D3000C02FE92010000CD02020893010000CE42
:1001E3000C02FC92010000CF02020893010000CF31
:1001F3000C020493080000D002020893010000D00F
:100203000C020693010000D10CFFFF0100FF200246
:100213000E93010000F392020893010000360D02D1
:10022300129300000000000202930300005F03BE6C
:100233000DBE0DBE0DBE0DBE0DBE0DBE0DBE0DBE63
:100243000DBE0DBE0DBE0DBE0DE210FA10DC10FF8B
:10025300FF020202020202020202010D000000106C
:1002630001020E93010000F6920208930100007947
:100273000D02289301000013080208930100007A7D
:100283000D02269301000071910208930100007B87
:100293000D0224930100002D910208930100007CBC
:1002A3000D022293010000A8900208930100007D33
:1002B3000D022093010000BA900208930100007E12
:1002C3000D021E9301000084900208930100007F39
:1002D3000D021C9301000096900208930100008018
:1002E3000D021A930100003B910208930100008163
:1002F3000D021893010000820D01E803053F10FF72
:100303000001307503020106000000000000000038
:1003130000000000000000000000000000000000DA
:1003230000000000FFFF0600800CE8031E140953C1
:10033300696D706C65424C45506572697068657291
:10034300616C051228002800020A0002010603025C
:10035300F0FF53696D706C6520424C452050657207
:100363006970686572616C8615000098158C150AB2
:100373000064000A4368617261637465726973742F
:100383006963203100024368617261637465726955
:100393007374696320320008436861726163746532
:1003A3007269737469632033001043686172616317
:1003B30074657269737469632034000243686172FF
:1003C30061637465726973746963203500020E9307
:1003D300010000F9920208930100009B0E02309382
:1003E300030000640C0216930100009C0E020893A4
:1003F300010000AD0E023293010000650C0216935A
:10040300010000AE0E020893010000BF0E023493F8
:10041300020000660C021693010000C00E0208934E
:10042300010000D10E023693000000670C02029314
:10043300030000680C021693010000D20E02089319
:10044300010000E30E022C930400006E0C021693CD
:10045300010000E40E120138EFD10312013805D276
:100463000312013832D20312013862D20312013867
:1004730083D203120138B4D203120138CBD2031250
:10048300013868CA031201387FCA03120138AECAA1
:1004930003120138E7CA031201380FCB03120138E4
:1004A3003DCB0312013854CB031201386BCB03123B
:1004B300013881CB03120138A8CB03120138BBCB1F
:1004C30003120138D1CB03120138E4CB03120138F4
:1004D30009CC03120138BFA802120138BEA90212C7
:1004E3000138E8A9021201383DAA021201385EAAB6
:1004F3000212013877AA0212013879AA02120138CE
:100503009AAA021201389DAB021201385AAC0212A8
:10051300013827AD021201389AAD021201389DADA0
:100523000212013823AE0212013866AE02120138FC
:100533009DAE0212013823AF02120138F5AF021249
:100543000138F8AF0212013856B0021201386EB00A
:1005530002120138E8B002120138EBB0021201387E
:10056300EEB002120138F1B00212013898B1021252
:100573000138ABB102120138C3B102120138F3B131
:100583000212013800B20212013803B2021201381A
:100593006FB2021201385DB30212013813B40212B2
:1005A30001383DC90212013818CA0212013846CA7D
:1005B30002120138C6CA0212013804CB02120138F2
:1005C3006CCB02120138FDCB02120138C8CC0212E7
:1005D3000138D7CF0212013843D10212013866D154
:1005E300021201384C9D03120138749D0312013825
:1005F300A29D03120138D99D03120138419E0312B3
:1006030001388A9E03120138D59E03120138139FC5
:1006130003120138509F031201387E9F03120138E1
:1006230025A0031201382FA0031201383CA00312A6
:1006330001386FA00312013831A1031201383DA123
:100643000312013855A1031201385FA103120138C7
:10065300B6D403120138C4D403120138DCD4031214
:100663000138F4D40312013884C60112013822C7B9
:10067300011201389AC701120138AFC801120138BB
:10068300E9C80112013892C90112013867CA01127F
:100693000138CBCB0112013822CC01120138A9CC8D
:1006A3000112013890CD01120138DDCD011201385C
:1006B3006BCE011201388FCE0112013864D00112C2
:1006C3000138A5D001120138C7D00112013848D131
:1006D3000112013832D201120138F8D20112013865
:1006E300008003120138D280031201387B81031288
:1006F3000138BE81031201384B8203120138D782BD
:1007030003120138B88303120138E7830312013857
:10071300E384031201382B85031201382D8603125B
:100723000138718603120138978603120138D4D633
:100733000312013874AE031201388AAE0312013872
:10074300B0AE03120138D8AF03120138E2AF03127F
:1007530001383BB1031201383BB20312013845B2F1
:10076300031201382593031201385A9403120138F6
:100773008D9403120138D79403120138959603120E
:100783000138008002120138898002120138CA80C0
:1007930002120138CE820212013885840212013816
:1007A300018502120138DE85021201380C8902121A
:1007B3000138AA8902120138078B02120138908C82
:1007C30002120138C78C021201386C8D02120138F3
:1007D30027B7011201388AB701120138CFB80112C5
:1007E3000138DFB80112013802B9011201384DB9DD
:1007F30001120138F2B901120138E8BA01120138C5
:10080300B2BB011201382ABD011201386CBD0112BD
:1008130001380ABE0112013857BE011201387DBEEC
:10082300011201386BC00112013870C00112013886
:1008330051C201120138A5C20112013807C30112C6
:1008430001382FC301120138D3C30112013895C4F3
:1008530001120138C6C401120138C9C4011201389A
:1008630011C50112013853C501120138BAC501126D
:10087300013825C20312013838C20312013841C2BC
:10088300031201385AC203120138A5C203120138F8
:1008930080C3031201380FC4031201385AC4031270
:1008A3000138FC28001201380829001201384129B7
:1008B300001201388629001201383D2A001201383E
:1008C300C32A00120138282B00120138542B0012BE
:1008D30001388D2B00120138A12D001201387D2F14
:1008E300001201386831001201389F3200120138BA
:1008F300FF3400120138EB35001201383137001292
:1009030001383E38001201385B3800120138933841
:1009130000120138AD3800120138153900120138C0
:10092300AF3D00120138503E00120138A13E0012C3
:100933000138C83E00120138163F00120138343F17
:1009430000120138883F001201386140001201385B
:10095300E84100120138704200120138CE8D0312B3
:100963000138D88D03120138A38E03120138BE8ECD
:1009730003120138E48E03120138288F0312013861
:10098300608F03120138898F03120138029003121A
:1009930001381790031201382C9003120138549038
:1009A300031201389D9003120138B29003120138EB
:1009B300C69003120138F7900312013831910312E4
:1009C30001385D9103120138949103120138119299
:1009D30003120138659203120138AE9203120138F3
:1009E300D89203120138FD920312013888AA031228
:1009F300013852AB0312013835AC03120138ABACEA
:100A030003120138EDAC031201381AAE0312013898
:100A1300ABE301120138D4E301120138EDE3011213
:100A2300013832E50112013810E6011201382FE6D0
:100A330001120138BCE601120138FFE60112013848
:100A43004CE801120138D9E801120138D7EA011242
:100A5300013856ED01120138EDED01120138C1EEF6
:100A630001120138A3EF011201380FF1011201380D
:100A7300A2F101120138CE7E00120138377F001235
:100A830001388B7F00120138B27F0012013898FBC6
:100A93000212013805FC0212013850FC021201381F
:100AA30045FD0212013841FE021201382BFF0212EA
:100AB3000138A1DB02120138E3DB02120138BDDC8D
:100AC3000212013896DD0212013891DE021201385A
:100AD30070DF02120138DCDF02120138A3E00212D8
:100AE30001380EE10212013875E102120138A0E16A
:100AF3000212013811E202120138A4E20212013893
:100B03000DE30212013822E3021201386AE30212F2
:100B1300013883E302120138E8E302120138EBE300
:100B2300021201386FB90312013897B90312013861
:100B3300D5B90312013893BA03120138FEBA03126E
:100B430001381ABB0312013842BB0312013872BBCE
:100B53000312013881BB03120138FBBB03120138B6
:100B630021BC03120138F86B00120138C86D001262
:100B73000138AE6F001201387C7000120138C37067
:100B830000120138F970001201380B71001201389C
:100B93004B71001201387A7100120138C6710012CC
:100BA300013816720012013844720012013895722E
:100BB300001201382473001201380C760012013838
:100BC300E077001201381C780012013837790012DF
:100BD30001387E79001201386B7A001201385D7C8E
:100BE30000120138D37C00120138217D0012013834
:100BF300477D00120138297E001201389ED202126D
:100C03000138BBD20212013855D80212013857D924
:100C130002120138D1DA021201387FDB02120138E5
:100C2300D742001201382043001201384D4300120D
:100C330001388043001201388D4300120138994373
:100C430000120138AB43001201388044001201380E
:100C5300DE4400120138134500120138AF4600127A
:100C63000138FC46001201383247001201389D4713
:100C7300001201382F4800120138D54800120138FC
:100C83005A4900120138DC49001201382F4A001278
:100C93000138914B001201389E4B00120138EC4B86
:100CA300001201383B4C00120138DA4C00120138B3
:100CB3000C4D00120138A74D00120138044E0012EA
:100CC30001383E4E00120138BF4E00120138884FE2
:100CD30000120138315000120138B85000120138A7
:100CE3001051001201387151001201389A5100124B
:100CF3000138505200120138A35300120138E65351
:100D03000012013803540012013822540012013832
:100D13006D5400120138925400120138B25400127B
:100D23000138215500120138635500120138675606
:100D330000120138015700120138CD570012013853
:100D4300E657001201389CBF02120138EFBF0212AE
:100D53000138FBBF02120138D0C002120138F7C0BC
:100D63000212013832C1021201389EC10212013847
:100D7300D2C1021201380BC20212013823C202127D
:100D830001387CC20212013895C202120138DEC258
:100D930002120138F1C2021201380BC302120138E8
:100DA30021C3021201383DC4021201384EC502129A
:100DB30001389BC60212013880C702120138F47F42
:100DC300001201384B9803120138F69803120138C8
:100DD300A69903120138CB9903120138C29B03125F
:100DE3000138159D031201388CA501120138C0A5E5
:100DF300011201389DAD01120138E9AE011201382B
:100E0300EDAF0112013877B10112013859B2011265
:100E1300013893B201120138B6B201120138F8B2A7
:100E23000112013801B3011201384BB30112013829
:100E330055B30112013801B401120138D5B40112BE
:100E4300013829B5011201388BB501120138DEB51D
:100E5300011201380DB6011201384CB601120138E6
:100E63003C9301120138969B011201389C9B01129D
:100E7300013857A1011201383DA5011201384FB2C3
:100E830003120138C5B203120138DBB20312013871
:100E930018B30312013850B303120138CDB3031250
:100EA300013808B40312013883B403120138BFB404
:100EB30003120138C8B403120138D4B40312013841
:100EC300EEB40312013813B50312013829B5031226
:100ED300013852B503120138B5B5031201380C8736
:100EE300031201381F8703120138398703120138AF
:100EF300628703120138A58703120138E4870312BE
:100F030001382288031201388788031201389C882C
:100F130003120138A78803120138B4880312013879
:100F2300CB8803120138D98803120138E8880312E9
:100F33000138FD88031201381289031201381D8913
:100F4300031201382989031201383C89031201383D
:100F53004789031201386A8903120138138A03127D
:100F63000138238A03120138388A03120138528A5E
:100F7300031201386D8A031201388A8A0312013879
:100F8300958A03120138518B031201383D8C0312E9
:100F93000138628C031201386C8C03120138808C87
:100FA300031201389F8C03120138008D031201389C
:100FB300068D031201380C8D03120138128D0312B2
:100FC30001381E8D03120138518D03120138258E0D
:100FD30002120138A78E02120138508F0212013813
:100FE300989002120138A692021201388C930212D1
:100FF3000138C19302120138E393021201388C9431
:10100300021201385C9602120138859602120138E9
:10101300FD96021201382F97021201383C970212F3
:101023000138879702120138AB9702120138FC99F5
:1010330002120138069B02120138629B0212013828
:101043002DD5011201383ED60112013822D70112E3
:1010530001382CD7011201384ED7011201385AD763
:1010630001120138FED8011201382BD901120138BF
:1010730041DA0112013896DA01120138E5DB011277
:101083000138BADC0112013816DD0112013881DDA5
:1010930001120138B6DD01120138F9DD0112013800
:1010A300C3E001120138DBE0011201386CE10112E7
:1010B30001387AE101120138C7E101120138D5E1A3
:1010C3000112013841E201120138BCE20112013878
:1010D30013E3011201387EB402120138A0B40212E4
:1010E3000138B1B60212013870B9021201389ABA46
:1010F3000212013858BB0212013844BC02120138F3
:10110300AFC803120138D4C8031201384AC9031205
:1011130001387BF40212013884F4021201388DF491
:101123000212013865F50212013816F7021201386E
:1011330046F70212013871F702120138A1F70212C1
:101143000138CCF70212013800F8021201382CF8EA
:10115300021201386FF8021201389AF802120138AC
:10116300E1F80212013836F90212013878F9021255
:101173000138D2F902120138FDF9021201384CFA92
:10118300021201387CFA02120138A7FA021201385E
:10119300D5FA02120138F8FA021201385DD70312A8
:1011A300013889D703120138B6D703120138C0D7E3
:1011B30003120138D0D7031201380FE402120138A9
:1011C30019E4021201385AE402120138A3E40212AC
:1011D3000138DDE40212013833E50212013854E527
:1011E3000212013803E8021201380CE80212013836
:1011F30060E80212013889E80212013893E802120A
:10120300013801E90212013891E902120138ECE9CF
:10121300021201381AEA02120138A2EA0212013854
:10122300E1EA0212013816EB0212013828EB02122E
:10123300013847EB0212013850EB0212013817EC68
:1012430002120138E2D203120138BEC6031201387A
:10125300F4C60312013828C70312013875C80312F4
:1012630001383ED60312013854D6031201385ED634
:1012730003120138A8D60312013851D803120138DA
:10128300F4A10312013807A203120138C8A2031202
:10129300013807A30312013824A3031201385DA305
:1012A30003120138AAA303120138DCA30312013885
:1012B30013A4031201381CA60312013888A60312D3
:1012C300013855CF0312013878CF03120138A7CF65
:1012D300031201383FD00312013857D003120138EB
:1012E30099D00312013869BC031201388EBC031272
:1012F3000138B8BC03120138DAD703120138185881
:1013030000120138F65900120138955B00120138BA
:10131300405C00120138C05C00120138455D0012C8
:1013230001386E5D00120138496100120138C06155
:1013330000120138D762001201381163001201381C
:10134300526300120138996400120138EF640012ED
:101353000138386500120138A76500120138136699
:10136300001201384466001201385C66001201382D
:101373007567001201388567001201383B69001256
:101383000138526900120138846900120138266B52
:1013930000120138BA6B001201388DD503120138DF
:1013A3009ED503120138ACFF01120138EBFF011285
:1013B3000138E37F00120138D9D303120138E9D38E
:1013C30003120138FED303120138B0D403120138DB
:1013D300E2D00312013867D103120138CBD10312D3
:1013E30001381BCC0312013844CC03120138AACCB8
:1013F30003120138CACC031201381BCD0312013882
:1014030076CD03120138B0CD03120138B3CD0312E8
:10141300013895A603120138C2A60312013834A776
:101423000312013849A7031201386AA803120138CD
:10143300EDA80312013866A90312013885A9031226
:101443000138A8A903120138E5A903120138FDA93F
:101453000312013853AA03120138B1D90312013818
:10146300C1D903120138C4D903120138F87F00121D
:10147300013884C40312013814C60312013875C637
:1014830003120138BBC603120138BDCD0312013864
:101493000FCE0312013882CE03120138EFCE0312AE
:1014A30001384DBF0312013877BF0312013846C01C
:1014B3000312013822C103120138B3C103120138E8
:1014C30045EC0212013811ED0212013852ED0212FD
:1014D30001388CED02120138EAED021201383EEEBA
:1014E300021201389CEE0212013832EF0212013867
:1014F3003AF002120138C4F10212013862F2021208
:101503000138C9F202120138DCF202120138D0F3B9
:101513000212013819F40212013819F201120138CA
:101523007DF5011201380EF70112013868F7011237
:10153300013885F70112013805F80112013869F9FC
:10154300011201383FFA01120138D6FD01120138A8
:10155300C0FE0112013856FF011201389DFF01122E
:101563000138AF9B02120138A19E0212013834A048
:1015730002120138E0A002120138F4A1021201386C
:10158300A2A30212013858A4021201381CA60212A7
:10159300013892A60212013813A702120138E5B5E9
:1015A300031201382AB60312013847B60312013871
:1015B300FDB60312013850B70312013820B80312E5
:1015C300013836B9031201383ED90312013808D95C
:1015D300031201386BD90312013893D903E0667003
:1015E3001008A3E066700A08A3E066700408A3E08D
:1015F3006622C3E7960809E7960809E7960809E70C
:101603009622C3E09608A3E09608A3E09608A3E019
:101613009622C008C3E096F50808A3E0964208089E
:10162300A3E096420808A3E09645087001D3D008CA
:1016330022E9799EC608CAC608CBC608CCC6C370C1
:10164300207996CACBCC7019798ECBCC701379865E
:10165300CC700EF9802ACA33CACB33CBCC33CC330C
:101663001930E7F2CCCBCA3350147004EA30E00DE2
:10167300E4CA3ACACB3BCBCC3CCC500209C3E913F6
:10168300C6CC182313C6CB18C6CA18C6F92212161D
:10169300D120F01430E72B74FFFCFBFA747F802217
:1016A300E4FCFBFA7480801AB48008BC00F2BB002F
:1016B300EF800F50EBF9E4C39AFAE49BFBE49CFC44
:1016C300E499C6CC18C6CB18C6CA18C6F922E4C911
:1016D300C608CAC608CBC6D3330308CCC63392F0B8
:1016E300C3947F402E94184019C9B90704CACBCCC0
:1016F300225025C309CA33CACB33CBCC33CC33D91D
:10170300F422F4600DC9CCC313CB13CBCA13CAD9CB
:10171300F6CC22E4FCFBFA2214FCFBFA22E6C333E8
:1017230018461846184622E7C3331947194719477D
:1017330022181818E6084608700AE608C33370052D
:10174300E633F4220822191919E7094709700AE751
:1017530009C3337005E733F4220922E6084608C3B8
:10176300134608336002E633F422E7094709C3133B
:101773004709336002E733F4220012175E604F1209
:10178300176D6012E7548066F61217347011121742
:101793002A703B090909F4F618F618F618F622120E
:1017A3001749701512172008080860EAE6447FF607
:1017B30018768018E4F618F622121720601612170E
:1017C3002A7012E4F608F608F608E65480F60909CA
:1017D3000918181822EAC0E0EBC0E0ECC0E0EDC045
:1017E300E0E687F0A4FBACF008E687F0A42CFCE469
:1017F30035F0FA1809E687F0A42C4B60027401CA8D
:1018030035F0FCE433FB09E687F0D2F7A42CCB35A3
:10181300F0FC1908E687F0A42BCC35F0FBE433FD8C
:101823000819E687F0D2E7A42C4ACB35F0CD340073
:10183300FC09E687F0D2E7A42DCC35F0FDE433FABA
:101843000918E687F0D2F7A42CCD35F0CA3400FC92
:1018530008E687F0D2E7D2F7A42ACC35F07A7E20C7
:10186300E70B0ACB33CBCD33CDCC33CC33CB335097
:10187300147004ED30E00ED2F1E4CD3DCDCC3CCC80
:101883003B5005DA05C2F1EB547FC63308E63392C9
:10189300F0FBE73309E733C39A502D2B70190C0D76
:1018A3004C4D70151806E608C333700D20F10AA2DB
:1018B300F013F6E418800B4024E4F630F00276804F
:1018C30018F618F618F68024D33B14501074FFA2B0
:1018D300F013F6187680E418F618F6800FA2F013CA
:1018E300F618E63303F618ECF618EDF6D0E0FDD063
:1018F300E0FCD0E0FBD0E0FA22080808EAC0E0EB05
:10190300C0E086F0E7A4FA180986F0E7A42AFA18DB
:101913000986F0E7A42AFA180986F0E7A42AFA1937
:1019230086F0E7A4FBE5F02AFA190886F0E7A42B72
:10193300FBE5F03AFA190886F0E7A42BFBE5F03A49
:10194300FA18180986F0E7A4C5F02BFBE43AFA1954
:1019530008E7C5F0C6A426F6E5F03BFBE43AFA181F
:1019630086F0E7A4F6E5F00826F6E43B08F6E43A49
:1019730008F6D0E0FBD0E0FA22E4CFC0E0E4CEC02A
:10198300E0E4CDC0E0E4CCC0E075F020C3E633F67C
:1019930008E633F608E633F608E633F6181818ECCB
:1019A30033FCED33FDEE33FEEF33FFC3EC9709ED6C
:1019B3009709EE9709EF97191919400FFFEC97FC58
:1019C30009ED97FD09EE97FE191906D5F0BEECF760
:1019D30009EDF709EEF709EFF7191919D0E0FCD073
:1019E300E0FDD0E0FED0E0FF226016080808C6C381
:1019F30013C618C613C618C613C618C613C6D5E031
:101A0300EA227009080808226016181818C6C3339A
:101A1300C608C633C608C633C608C633C6D5E0EA09
:101A230022E627F60809E637F60809E637F6080935
:101A3300E637F622E026F608A3E036F608A3E036FA
:101A4300F608A3E036F622E026F008A3E036F00815
:101A5300A3E036F008A3E036F022C3E697F60809C0
:101A6300E697F60809E697F60809E697F622C3E033
:101A730096F008A3E096F008A3E096F008A3E0969A
:101A8300F022E056F608A3E056F608A3E056F6085F
:101A9300A3E056F622E056F008A3E056F008A3E0D0
:101AA30056F008A3E056F022E0F608A3E0F608A3F8
:101AB300E0F608A3E0F622E6F008A3E6F008A3E6C2
:101AC300F008A3E6F022E0FAA3E0FBA3E0FCA3E026
:101AD300FD22EAF0A3EBF0A3ECF0A3EDF022CAC0E1
:101AE300E0E6F0A308DAFAD0E0FA22CAC0E0E0A305
:101AF300C582CCC582C583CDC583F0A3C582CCC5C1
:101B030082C583CDC583DAE6D0E0CA22C3E498F860
:101B1300E499F9121B508026C3E49AFAE49BFBE98B
:101B230020E7E9121B50E498F8E499F922C3E498FA
:101B3300F8E499F9121B50E498F8E499F9C3E49A8C
:101B4300FAE49BFB22EB20E7CFE920E7E0B90010A2
:101B5300BB0008E88AF084F8AAF022E4FBC8FA2262
:101B6300EB70227B10C833C8C933C9335007C39AFB
:101B7300C3DBF280069A50012ADBEAC833F4C8C9F2
:101B830033F4C9FA2275F008E4C833C8C933C9333A
:101B9300C99AC99B5004C92AC93BD5F0ECFBC83389
:101BA300F4C8E4C9FA22600D08C6A2E713C618C632
:101BB30013C6D5E0F322600C08C6C313C618C613B8
:101BC300C6D5E0F422700422600D18C6C333C608DC
:101BD300C633C6D5E0F41822251810AF08F518400F
:101BE3000215198008F51840021519D2AF22C0D08A
:101BF300251810AF08F518500205198008F518507C
:101C0300020519D2AFD0D0222518F58210AF08F5FE
:101C130018400215198008F51840021519D2AF852E
:101C23001983222518F582E43519F58322E47325F7
:101C330018C582C0E0E51934FFC583C0E0E518C3C9
:101C4300958224F810AF088583198582188008854A
:101C53008319858218D2AFCEF0A3E520F0A37808CC
:101C6300E608F0A3DEFAEFF0A3E58124FAF8E6082C
:101C7300F0A3E608F0A3E608F0A30808E608F0A33B
:101C8300E608F0A315811581D0E0FED0E0F81581B8
:101C930015811581E8C0E0EEC0E0222518C582C099
:101CA300E0E51934FFC583C0E0E518C3958224F944
:101CB30010AF08858319858218800885831985826A
:101CC30018D2AFCEF0A3E520F0A37808E608F0A37E
:101CD300DEFAEFF0A3E58124FBF8E608F0A3E608BB
:101CE300F0A30808E608F0A3E608F0A31581158120
:101CF300D0E0FED0E0F815811581E8C0E0EEC0E049
:101D030022851983851882E0A3FEE0A3F5207808D5
:101D1300E0A3F608DFFAE0A3FFE0A3C0E0E0A3C07E
:101D2300E0E0A3C0E0E0A3C0E0E0A3C0E010AF08A0
:101D33008582188583198008858218858319D2AF17
:101D4300D083D082020135851983851882E0A3FEF2
:101D5300E0A3F5207808E0A3F608DFFAE0A3FFE0AC
:101D6300A3C0E0E0A3C0E0E0A3C0E0E0A3C0E010B4
:101D7300AF088582188583198008858218858319A1
:101D8300D2AFD083D08222C0D02518C582C0E0E56F
:101D93001934FFC583C0E0E518C3958224F310AF5F
:101DA300088583198582188008858319858218D24E
:101DB300AFC8F0A3E9F0A3EAF0A3EBF0A37908E737
:101DC30009F0A3D8FAECF0A3EDF0A3EEF0A3EFF043
:101DD300A3D0E0F0A3D0E0F0A3D0E0F0A3E520F09F
:101DE300A3E5F0F0A322851983851882E0C0E0A360
:101DF300E0F9A3E0FAA3E0FBA37808E0F608A3DF89
:101E0300FAE0FCA3E0FDA3E0FEA3E0FFA3E0C0E053
:101E1300A3E0C0E0A3E0F5D0A3E0F520A3E0A3F5A1
:101E2300F010AF088583198582188008858319858A
:101E33008218D2AFD082D083D0E0F8D0E0327404DD
:101E43008006740280027401C0E0F404121C0BD0FB
:101E5300E0121AE1227404800474028000CCC0E012
:101E6300EDC0E0E518C39CCCAD1950011D10AF06C1
:101E73008C188D1980068C188D19D2AF121AEED0DA
:101E8300E0FDD0E0FC22D083D082E9C0E0E493A35C
:101E9300C386F0C5F095F0F908E493A386F0C5F086
:101EA30095F0700BE493A3C3994005E9048002A362
:101EB300E475F002A42582F582E5F03583F583D03D
:101EC300E0F9E493A3C0E0E493C0E022D083D0829E
:101ED300ECC0E0EDC0E0E493A3FCE493A3FDED4C80
:101EE300600D121F1BEC24FFFCED34FFFD80EFE4BB
:101EF30093A3FCE493A3FDED4C600D121F5AEC2455
:101F0300FFFCED34FFFD80EFD0E0FDD0E0FCE49377
:101F1300A3C0E0E493C0E022C0E0C3E49396087456
:101F230001939618400FE493667008087401936652
:101F33001870007019A3A3C3E493960874019396D1
:101F430018A3A3400DD0E0D0E0D0E0021F0BA3A361
:101F5300A3A3A3A3D0E022C0E0C0F088F0E493667B
:101F630070080874019366187000A8F0A3A3700B9F
:101F7300D0F0D0E0D0E0D0E0021F0BA3A3D0F0D08C
:021F8300E0225A
:101F880074F5121C9EEAFEEBFFEE2434F8EF3400E1
:101F9800F988088909EE24351220C0F8EE24371292
:101FA80020C0F50AEC850AF0A4FCAAF0850AF0ED39
:101FB800A42AFDE82CF8E43DF97A257B00121B5091
:101FC800EA850882850983F05407F87401B800028D
:101FD8008004C333D8FCC0E0E0131313541FF8EE99
:101FE80028F8EF3400F9E8245DF582E93400F58338
:101FF800D0E0F8E0586008850882850983801DEEE6
:1020080024361220C0F5F0EA84A8F0EE28F8EF3460
:1020180000F9E82438F582E93400F583E0F97F0413
:10202800021D4A74F5121C9EEAFEEBFFEE243412E0
:1020380020C0C0E0EE2435F582EF3400F583D0E00F
:10204800F08E828F83A3A3A3A3A3E0FAA3E0FB8E61
:10205800828F83A3A3A3A3A3A3A3E0FCA3E0FDEC27
:10206800C39AF50AED9BF50BEE2480F508EF3400D2
:10207800F509850882F583E06401702BEE2481F56B
:1020880082EF3400F583121E5C1220C97402121B01
:10209800F1E960137C447D05EEFAEFFB120CEC8548
:1020A8000882850983E4F0AC0AAD0BEEFAEFFB1267
:1020B8001F88122882022026F582EF3400F583E07B
:1020C80022C082C083851882851983E0F8A3E0F9CD
:1020D800C3EA9CEB9D5012C3EC98ED994019C3EAF2
:1020E80098EB99501279018010C3EA98EB9940F562
:1020F800C3EC98ED9950EE7900D083D08222EAC3E0
:102108009CFAEB9DFB2200008521878522C622C010
:10211800E074EF121D8A759B00906182E0A2E64090
:10212800030221D8E591A2E640030221D87591BFA8
:10213800900409E064057008120EAE120EBA80030E
:10214800120EB4752100120F38E990040AF07900D4
:10215800120F1A120C447A017B00900408E0F9125D
:10216800121A907803E0644260030222219005BDB0
:10217800E014F06003022221C2AF12218500782A00
:10218800D0E0F618D0E0F6E59F5407F97005909274
:1021980068800390926C7808121AABE9C4C0E078A2
:1021A80029E65508F50808E65509F509740B780875
:1021B800121BB9D0E02508F8906270E0A2E740F859
:1021C800E8C333906272F0906270E0D2E0F0804928
:1021D800E0A2E55024E591A2E5501E7591DF900438
:1021E80009E0640D701390042BE004F06428700279
:1021F800E4F07A00E0F9120FC2906181E0A2E350A6
:1022080009E5E9A2E3500375E9F7A3E0A2E750095D
:10221800E591A2E7500375917F7F04021DE9C0E0B4
:10222800C0D0C082C083906183E0A2E05009E5BFBE
:10223800A2E0500375BFFEE0A2E15009E5BFA2E1AC
:10224800500375BFFDE0A2E25009E5BFA2E25003CA
:1022580075BFFBE0A2E35009E5BFA2E3500375BFD9
:10226800F7E0A2E45009E5BFA2E4500375BFEFE030
:10227800A2E55009E5BFA2E5500375BFDFE0A2E67D
:102288005009E5BFA2E6500375BFBFD083D082D006
:10229800D0D0E032C0E074F2121D8AE5A7A2E45063
:1022A8000FE5A1A2E4500953A7EF75A1EF1222F0A0
:1022B800E5A7A2E5500CE5A1A2E5500653A7DF75F6
:1022C800A1DFE5A7A2E15009E5A1A2E1500375A1AC
:1022D800FDE5A7A2E2500CE5A1A2E2500653A7FB38
:1022E80075A1FB7F01021DE974F8121C9E7521017E
:1022F800900409E0640670077A007B00120E96A22B
:10230800AFE433FED2AF90040FE0640170187A2076
:102318007B00900408E0F91212A47A207B00900454
:1023280008E0F9121220906182E0D2E6F09005BC34
:10233800E0602185C622801690040EE064017008D2
:10234800E5C654F84405F5C653BEFC1221107401C5
:10235800652160E4EEA2E092AF7F01021D4A000011
:102368008E238F2485822885832785188285198363
:10237800E0CEA3E0CF852882852783EBC9EAC8EDA4
:10238800CBECCA75F010C3E833C8E933C9EA33CADD
:10239800EB33CBC3EA9EF526EB9FF525B35004AB90
:1023A80025AA26EC33CCED33CDD5F0DAAE23AF2415
:1023B8002274E9121C9E74FA121BDBEAFEEBFF8CF6
:1023C800088D09900409E024F7C3940550069092FB
:1023D800600224E0120E128A0A8B0BEA450B700386
:1023E8000224DD120ECC8A0C8B0D120ECCEA650C81
:1023F8007003EB650D60ECEEFCEFFD851882851926
:1024080083AA82AB83120ED2850A82850B83A3A38B
:10241800780C121AAB90928C780C121A8585188257
:102428008519837814121AAB90928C7814121A8535
:10243800780C79141215F5501F780C7914121A5D5E
:102448009092B8780C1216154047850C10850D111E
:10245800850E12850F138041851410851511851678
:10246800128517137810790C121A5D9092B87810AB
:10247800121615501C751000751100751200751391
:102488000178107914121A5D7810790C121A2480C8
:10249800089092607810121AAB74097810121A0515
:1024A8009092DC780C121AAB7810790C12197C9087
:1024B8000409E06408600AE064066005E0640570E9
:1024C8001C909238781012161550129092BC781001
:1024D800121A3780089092407810121AAB85088239
:1024E8008509837810121ABA7406121BF17F10023C
:1024F8001D4A74F7121C9E120EE49005BAE064019E
:102508007010906245E4F0A3F053F4F343FE0C53CB
:1025180090F3120E84E5C654804449F5C6E59E54EE
:102528007F644970F8906185740FF09005B8E0F405
:102538007002A3E0602C7508017509009005B8E0E9
:102548007808121BC8E508F4FAA3E0600814600ACA
:1025580014600C800DEA52808008EA52908003EAE9
:1025680052A079007F02021D4A74F7121C9EE9FEF0
:10257800EAFF74016E700C7A807B00900408E0F921
:1025880012121A9028F4E493F46008E493F9120CF8
:1025980026800953C680E59E547F70FA120E8A90F1
:1025A80005BAE064017003120C5C9005B8E0F470A1
:1025B80002A3E0602A7508017509009005B8E07863
:1025C80008121BC8AA08A3E0600814600A14600C6B
:1025D800800DEA42808008EA42908003EA42A01215
:1025E8000E128A088B09A808A909E8496017E5E1CD
:1025F80070FCE82414F582E93400F583E0F874FFF0
:1026080068600288E174016F700A7A01900408E03A
:10261800F912126E02256C74F1121C9E8A088B093D
:102628008C0A8D0B740F121C26780C121AAB909220
:102638008C7808121A8590928C780C121A85780872
:10264800790C1215F550157808790C121A5D9092CC
:10265800B87808121615401579018013780C790896
:10266800121A5D9092B8780C12161540EB79007F1B
:1026780008021D4A74ED121C9E8A088B098C0A8D6B
:102688000B7413121C26780C121AAB90928C7808D3
:10269800121A8590928C780C121A85780C79081287
:1026A80015F540117808790C121A5DAA08AB09AC27
:1026B8000AAD0B8022751000751100751200751394
:1026C800017810790C121A5D78107908121A24AA68
:1026D80010AB11AC12AD137F0C021D4A90928C788E
:1026E80008121AAB8A828B837808121A987F040220
:1026F8001D4A74F5121C9E8C828D837808121AABC1
:102708008A828B837808121A7112274EC3E098F0D8
:10271800A3E099122740401E90929C7808121AABA9
:102728008A828B837808121A4A8E828F83E024204B
:10273800F0A3E0344EF080A4F08E828F83C3E0943F
:1027480020A3E0944E22EA2404F8EB3400F9E8FED2
:10275800E9FF8C828D83A3A3A3A3E0F8A3E0F98EFD
:10276800828F832274F5121C9EE9FE90055BE0FAC5
:10277800A3E0FBEEC333F8E433F974EE28F5827472
:102788009039F583E02AF508A3E03BF509780812AB
:102798001E45909298121AC91223687402121BF1EE
:1027A8008A088B098C0A8D0B741078081219ECAA08
:1027B80008AB097F04021D4A74F1121C9E8A0C8B17
:1027C8000D8C0E8D0F740F121C26E0FAA3E0FB741B
:1027D80011121C26E0F508A3E0F5097413121C2653
:1027E800E0FEA3E0FF7808121E45EA2401F508EB95
:1027F8003400F509E4F50AF50B780C79081218FC91
:102808009092A07808121AAB780C79081218FCAAD2
:102818000CAB0DAC0EAD0F1223687402121BF18BBA
:1028280009EA450960047A0180027A00EC2AFCED85
:102838003400FDECF8EDF97A717B02121B50880820
:102848008909E4F50AF50B8E828F837808121ABA83
:10285800ECF8EDF97A717B02121B508A088B097427
:10286800057808121BC88E828F83A3A3A3A3E5084B
:10287800F0A3E509F07F08021D4AC082C083E990F1
:102888006000F0D083D08222C0E074F2121D8AA2C8
:10289800AFE433FED2AFE589A2E15003121400750C
:1028A8008900C2C5751A00EEA2E092AF7F01021D31
:1028B800E9C0E074F2121D8AA2AFE433FED2AFE59C
:1028C8008BA2E05003121400758B00C2E880D5C0BB
:1028D800E0C0D0E8C0E0E5A8D2AFC2C7751A00A230
:0B28E800E792AFD0E0F8D0D0D0E03293
:1028F400FFFFFFFFFFFFFFFFC082C083E9900D359C
:10290400F0022B8074F7121C32E9900327F07C5FED
:102914007D037AFF7BFF12093290032874FFF0A332
:10292400F0A3E4F0A3F079051208BA900327E0F9C4
:102934001207DC7A507B09120B2A02388E74F412C7
:102944001C328A088B09EB54806030900327E0F92D
:102954001212028A0A8B0BAE0AAF0BEE4F60138E73
:10296400828F83E064B070031208D2EEFAEFFB1298
:1029740011F0AA08E5096480FB80047A007B000258
:102984002B4F74F2121C3274FC121BDBEAFEEBFFB9
:102994007412121C26123D75EE4F7003022A29741C
:1029A40002121C26EEF0A3EF122D8AECF0A3ED1216
:1029B4002D8AAA82AB831207D6E9F50A706AE50864
:1029C400450960648E828F83123D5BEE4F60567AB8
:1029D400067B001212568A0C8B0DA80CA90DE8492F
:1029E4007005750A13804188828983E4122A36EEC1
:1029F400F0A3EF123D86E508F0A3E509F090032D5E
:102A0400122ABD90032D7005123838801B12382607
:102A14008003EAFCEBFD8C828D83122ABD70F38C5B
:102A2400828D8380E3750A02A90A7404121BF102E1
:102A34003F75F0A3123D2CA32274F2121C32890AB2
:102A4400E975F017A4FEAFF090032CE4F090032A8C
:102A5400122ABD600A12125C90032AE4F0A3F0EE7D
:102A6400FAEFFB1212568A088B09EA4509602FEE29
:102A7400FCEFFD79001211D890032AE508F0A3E5D4
:102A840009F07B008008122AA7E4F0A3F00BEBC343
:102A9400950A40F2E50A90032CF07900800279133C
:102AA400023F75EB75F017A4F8A9F090032AE0280B
:102AB400FAA3E0398A82F583221234CAEA4B2274DB
:102AC400F4121C32740C121C26123D50FEE9FF75E0
:102AD4000800750900800CE5082401F508E50934AF
:102AE40000F509C3E5089CE5099D503285080A856F
:102AF400090B7403780A121BC8EA250AF8EB350B94
:102B0400F988828983A3A3A3A3A3A312390DEE6535
:102B14000A7003EF650B70BFE8FAE9FB80047A00E2
:102B24007B00802774F4121C327900EAA2E0501B67
:102B34007508097509927808121E457C047D007A8F
:102B4400377B0D1208B47402121BF17F04021D04BA
:102B5400C082C08390032D122B87601C88828983D6
:102B6400A3A3E06A7003A3E06B8882898370E8A35F
:102B7400A3A3A31234C680047A007B00D083D0823E
:102B840002013512405BE8492274EE121C3274FCD7
:102B9400121BDBEAFEEBFF851882851983E4F0A3A0
:102BA400F0EE2402123818EE2405123D33EE24040C
:102BB400F50EEF12313FE024FE603924FC60462418
:102BC400FE605224FE605E24FE7003022CA024FEEC
:102BD4007003022D0424FE7003022D1324FE7003DF
:102BE400022D2224FC7003022D3124FE7003022DD9
:102BF40040022D7D9003467417F0A3E4122D921227
:102C04000488022D7D851882851983AC82AD8312D8
:102C140008D8022D4D851882851983AC82AD8312A4
:102C240008DE022D4D850C08850D097402121C2640
:102C3400AC82AD838508828509831234C61207FAF3
:102C44008A0C8B0DAC0CAD0DEC4D603BE4F50CF532
:102C54000D780C121E45750C46750D03780C121E6A
:102C640045750C47750D03780C121E457408121C2B
:102C740026121E5C1241D7121BF1E9F50C700B12DF
:102C840034BC1204A0800F750C0185088285098369
:102C9400122D80123838850C08022D507402121C33
:102CA40026AC82AD83850C82850D83123291603C03
:102CB400850C82850D83A3A3121E5C7510467511C5
:102CC400037810121E457510477511037810121EF3
:102CD400457408121C26121E5C1241D7121BF1E91E
:102CE400F509700B1234BC1204A6800F7509018516
:102CF4000C82850D83122D80123838850908804C8A
:102D0400851882851983AC82AD831208E4803A85E4
:102D14001882851983AC82AD831208EA802B85184A
:102D240082851983AC82AD831208F0801C851882D9
:102D3400851983AC82AD831208F6800D85188285CF
:102D44001983AC82AD831208FCE9F508E508602913
:102D54008E828F83A3E06414601F850E82850F83A7
:102D6400E0900346122D8A124057900347123838D8
:102D7400E508A3122D9212048202372712405B85C4
:102D8400188285198322F085188285198322F07CA4
:102D9400467D03850A82850B831234CA2274EE129F
:102DA4001C3274FC121BDB8A0A8B0B8C0E8D0FEA0F
:102DB4002405F508EB3400F5097C157D0079007ACB
:102DC400467B031211D8E5082402F50CE509123DEF
:102DD40036851882851983858210858311781012AF
:102DE4001E45850882850983A3A3A3A312328812F2
:102DF4001E45E5082405F510E5093400F5117810A1
:102E0400121E45850C82850D831235DD1207F4747C
:102E140006121BF18A108B11AE10AF11E50A2402C1
:102E2400F50AE50B12381BEE4F7003022F5F801773
:102E34007402121C261234C688828983EAF0A3EB3A
:102E4400F0900346E004F0900346E0C39405400389
:102E5400022F5FE4F510F5117810121E4575102F3E
:102E64007511037810121E45751030751103781012
:102E7400121E457406121C26121E5C7910EEFCEF1D
:102E8400FD1241D9121BF1E9705E85088285098320
:102E9400A3A3A3A3A3A3A3E0F890032FE06870481F
:102EA400123288121E457C307D03E5082408FAE5B9
:102EB400093400FB1211D27402121BF1E960298E4D
:102EC400828F83A3A3A3A31234C6900346E0F51014
:102ED40074027810121BC874472510F582740335E8
:102EE40011F583EAF0A3EBF07402121C268582101C
:102EF4008583117810121E457402121C26121E5C62
:102F0400850C82850D831234EC121BF18A108B110F
:102F1400AE10AF11900346E0F510751100740278FD
:102F240010121BC874462510F874033511F98882F1
:102F34008983A3122ABD7003022E2BE824030808F8
:102F440008E93400F9EE4F6003022E348882898345
:102F540074FFF0A3F0900346E004F0900346E060B1
:102F64000A1234BC1204947900800B850882850906
:102F74008312382F790A02372774EA121C3274FE3E
:102F8400121BDB8C128D13EA2405F50CEB1241C1E4
:102F9400123D5F750800750900EA2402F510EB3450
:102FA40000F51185188285198385820A85830B783B
:102FB4000A121E45850C82850D83A3A3A3A3123197
:102FC40055121E45E50C2405F50AE50D12381B784B
:102FD4000A121E45850C82850D831231591207F49D
:102FE4007406121BF18A0A8B0BEA450B700302303C
:102FF400FAEA2404F50EEB12313F123D5F8A828B0C
:1030040083A3A3A3E0F98510828511831234D060D1
:10301400030230FAE4F514F5157814121E457514FC
:103024002F7515037814121E457514307515037821
:1030340014121E457406121C26121E5C7913AC0A67
:10304400AD0B8510828511831241DF121BF1E9F566
:103054000960030230FA90032FE0F8E5087009E0F4
:103064002402900347F08014900347E0FCE8240214
:10307400FAE43400FBEA6C7001EB707E850882AAE6
:103084008212327F9414123277506B850E82850F30
:1030940083E0C0E074482A123136D0E0F005088598
:1030A4000E82850F83A3E0C0E085080A7448250AD0
:1030B400123136D0E0F0050890032F123155121E5C
:1030C400457C307D0385080A7448250A123149126B
:1030D4001BF190032FE02508F50874FF6E7003744C
:1030E400FF6F6012EE24010EEF3400FFE508C39475
:1030F400145003022FA7E50860131234DA851082F6
:103104008511831234C612049A79008014E509707B
:103114000375090A851282851383EEF0A3EFF0A9E3
:10312400097402121BF17F0E021D0485080C7448F9
:10313400250CF58274033400F583223400F50F85E1
:103144000E82F58322FA74033400FB1211C0740258
:1031540022123D9522A3A312315F22123826FDEEDE
:10316400FAEFFB2274EE121C3274FE121BDB8C0E7F
:103174008D0FEA2405F50CEB123D36750B00900318
:1031840046E4F0F50AEA2402F508EB3400F5098078
:1031940044900346E0FA90032FE0F812327F94172C
:1031A400123277400D900346E0F87416C3989003EA
:1031B4002FF0123288121E457C307D0374472AFAA0
:1031C400740312314C121BF190032FE0F890034664
:1031D400E028F0050AE50C2416F582E50D12313AD3
:1031E400E0F8E50AC3985074900346E0C39416507F
:1031F4006BE50AC333F8E433F9E50C28FEE50D3931
:10320400FF851882851983AC82AD838E828F8312E9
:1032140032917008750B0112382B8050E4F510F5CB
:10322400117810121E4575102F7511037810121E97
:10323400457510307511037810121E457406121C62
:1032440026121E5C79168508828509831241DF12D5
:103254001BF1E9F50B700302319580BB7C467D03BD
:103264008508828509831234C61204ACA90B740242
:10327400023729E99400C365D03322EA28F8E434FC
:1032840000F9E822E0F51075110078102212371EBB
:103294008A108B11AC10AD11EC4D2274EA121C3261
:1032A40074FC121BDB8A0C8B0D8C128D13EA240523
:1032B400F50AEB12381B750800750900E50A2402AB
:1032C400F510E50B3400F5117402121C2685820EEC
:1032D40085830F780E121E45850A82850B83A3A36E
:1032E400A3A3123D3B121E45E50A2405F50EE50B8A
:1032F4003400F50F780E121E458510828511831255
:1033040038211234C01207F47406121BF18A0E8B92
:103314000FAE0EAF0FE50C2402F50EE50D3400F5EB
:103324000F80388882898374FFF0050812312F7466
:10333400FFF0050890032FE0F50C750D00780C12D2
:103344001E457C307D0385080C7448250C123149D8
:10335400121BF190032FE02508F508EE4F60278E2D
:10336400828F83A3A3A3E0F9850E82850F83123491
:10337400D0EE2404123D33E96027850C82850D8349
:103384001234B2123838E50870030234981234DA71
:10339400850E82850F831234C61204B2790002347A
:1033A400ADE4F514F5157814121E4575142F751532
:1033B400037814121E457514307515037814121E03
:1033C400457408121C26121E5C7911EEFCEFFD8573
:1033D4000E82850F831241DF121BF1E9F509709A01
:1033E400850882AA82EA90032F7009E024049003DE
:1033F40047F08025E0F8900347E0F514E82404FC46
:10340400E43400FDEC65147001ED708112327F9498
:10341400121232774003023391850C82850D83E0CA
:10342400C0E074482A123136D0E0F00508850C82D9
:10343400850D83A3E0C0E012312FD0E01234F5856E
:10344400820C85830D780C121E457404121C2612FE
:103454001E5C8510828511831234EC121BF18A0CD8
:103464008B0DAE0CAF0D85080C7448250CF8740355
:103474003400F9EE4F7003023327851882851983CF
:10348400E0888289831234F5A3E0C0E012312FD0A2
:10349400E0023335E509700375090A850A82850B54
:1034A400831234B2123838A9097404023127124045
:1034B4005B851282851383227C467D03850A82857F
:1034C4000B831234CA22E0FAA3E0FB221234CA129C
:1034D40007E2E9F50922900347E0F5F0E508849056
:1034E4000346F07C467D032212315F120800740407
:1034F40022F005088518828519832274EC121C3287
:1035040074FE121BDB8A088B098C0E8D0FEA2405CE
:10351400FEEB3400FF123708EE2418123D33EA455F
:103524000B70030235AB1236F150291235D08A10D4
:103534008B11EA4511606B7912AC0AAD0B850882D8
:103544008509831234C6851082851183121C30E9E3
:10355400F50A7058E4F50AF50B780A121E458E82B6
:103564008F83A3A3E0F50A780A121E45EE24031202
:103574003818780A121E458E828F831235DD12099F
:10358400207406121BF1E9F50A7021850C82850D61
:1035940083E0701F8508828509831234C61204B83B
:1035A4008011750A0E8009750A018004E50A60031A
:1035B40012382B850C82850D83E06004790080022B
:1035C400A90A7402121BF17F0C021D04851882855E
:1035D40019831234CA12090E22123826FD85088274
:1035E4008509831234CA2274EE121C3274FE121B33
:1035F400DB8A088B098C0C8D0DEA2405FEEB340064
:10360400FF750E00123708EA450B70030236CF121D
:1036140036F1502C1235D08A0E8B0FEA450F604AD2
:103624007912AC0AAD0B8508828509831234C685EC
:103634000E82850F83121C30E9F50E60030236D228
:1036440085088285098312390DAA0AFB1236E370B4
:10365400147AFF7BFF1236E3606C88828983E50A63
:10366400F0A3E50BF0750A008007750E0E805F0568
:103674000A90032CE0FAE50AC39A504AE50A75F069
:1036840017A4FAABF088828983A3A3E02AFAA3E003
:103694003BFB8A828B83123821EC4D70D2750A175A
:1036A400750B00780A121E45EEFCEFFD1211C07472
:1036B40002121BF1EEFCEFFD8508828509831234AA
:1036C400C61204BE8014750E098003750E011240E3
:1036D40053850C82850D83123838A90E023272127A
:1036E40009028A108B11A810A911E84922E50824BF
:1036F40002F508E5093400F5098A828B83A3A3A3A4
:10370400E0A2E522851882851983AC82AD838E827E
:103714008F8312371E8A0A8B0B22E0FAA3E0FB1276
:1037240007FA227404121BF17F0A021D0474EC12BE
:103734001C328C108D11EA2405F50CEB123D367504
:103744000F00EA2402F50AEB12381B850A82F5837E
:103754001234C6124265700302380D750E00807172
:10376400850C82850D83E06401704F8E828F83A364
:10377400A3121E5C8E828F83A3A3A3A3E0F512750C
:1037840013007812121E45EE2405F512EF3400F5ED
:10379400137812121E451234C01209207406121B2B
:1037A400F1E9F50F6014850C82850D83E4F0124075
:1037B400538510828511831238387C177D00790077
:1037C400EEFAEFFB1211D88E828F83E4F0A3F0059A
:1037D4000E90032CE0F8E50EC398501EE50E75F02C
:1037E40017A4F8A9F0850882850983A3A31241CB05
:1037F400123821EC4D600302376485088285098301
:1038040074FFF0A3F0E50F70061234C01204C4A9CB
:103814000F0235CBF50AEF3400F50B22A31238263C
:10382400FD22E0FCA3E0228E828F8312405B850E92
:1038340082850F83E8F0A3E9F022C082C08390035D
:1038440028E06A7003A3E06B70067A287B03800487
:103854007A007B00022B8074F7121C327F00EF7514
:10386400F003A4F8A9F0EC28F8ED39F988828983EB
:10387400E06A7003A3E06B7006E8FAE9FB800B0FC3
:10388400EFC3940240D87A007B007F01021D0474C8
:10389400F6121C32123E4470067A007B008007A3A5
:1038A400A3A3A31234C6023F0574F2121C32E9FE2C
:1038B400740E121C2612390D7410121C26123D753A
:1038C4008C828D83E06402703BA312405788828906
:1038D40083E0F50CA3E0F9A80C7402687003742962
:1038E400697021750C02750D00780C121E4578085C
:1038F400121E45780A121E45EEF912094474061286
:103904001BF180027901023F75E0F50AA3E0F50B93
:103914002274E8121C3274FB121BDBE985188285C1
:103924001983F08A168B178C0E8D0F741F121C26A8
:10393400123D757421121C2612390D7423121C2693
:10394400123D5F7510008C828D83A3A3A3E0A2E4D3
:10395400502A741D121C261235D68A828B83E58266
:1039640045837003023A21790AAC0EAD0FAA16AB57
:1039740017121C30E9F5106003023A24850E828583
:103984000F83E064026003023CDAA3124057850807
:1039940082850983A3858212858313E50E2406F5A7
:1039A4000CE50F123D3688828983E0FAA3E0F9EA38
:1039B4002400F514E439F5157814121ECF01000023
:1039C400280128E93907000228C03A0328303A00C0
:1039D40029EA3B0129123C0229B93B0329EA3B04A9
:1039E400297B3CDA3CEE4F703E850C82850D8312B8
:1039F4003D50FAE9FB8A828B83E0850A82850B833A
:103A0400123D8C121E458A828B83A3123826FDAA8E
:103A140008AB091211C07402121BF1800375100E59
:103A2400A91074050241B975100B80F4EE4F70F7BC
:103A3400850A82850B837401F0123D6585088285B1
:103A44000983F07C007D00850E82850F83A3A3A3E8
:103A5400A3E02401FAA3E03400FB1207FAEA4B6066
:103A6400418A828B83E02402F8850A82850B83E0F5
:103A740028F0EA2404F8EB3400F988828983E0858D
:103A84001282851383123D9E123D8C121E458A823A
:103A94008B83123820E5082403FAE5093400FB027D
:103AA4003A17850A82850B83E02404F07C047D00A8
:103AB4007900AA12AB131211D8023A24EE4F600314
:103AC400023A2B123D65FEA3E0FF850A82850B8333
:103AD4007404F0EE850882850983F0EF85128285EF
:103AE4001383F07403121C26AC82AD83EEFAEFFB51
:103AF400123E327003023B968A828B83A3A3123D4B
:103B04005B7401121C2685820E85830F780E121EAB
:103B1400457405121C26121E5C7CFF7DFF120800F2
:103B24007404121BF18B0FEA450F7033850C8285E8
:103B34000D83123D3B121E45850C82850D83A31215
:103B44001E5C7C027D007A0C7B9312059674041231
:103B54001BF1E9700A7401121C2674FFF0A3F08EA5
:103B6400828F83E064027034750C02750D00780C4A
:103B7400121E458E828F83123820E5082404FAE54C
:103B84000912314C121BF1850A82850B83E0240251
:103B940080097401121C26EEF0A3EFF07401121CCC
:103BA40026123D4CF07401121C26A3123D44A3A31B
:103BB400A3F0023A24EE4F6003023A2B850C82856F
:103BC4000D83123821AA16AB17120938850A82858B
:103BD4000B837402F0EA850882850983F0851282DA
:103BE400851383EB80CBEE4F6003023A2B123D65C5
:103BF400F8A3E0F9850A82850B837402F0E885084E
:103C040082850983F0E985128285138380A3850C5C
:103C140082850D831234C61211BAEAFC8C82A88202
:103C2400C39EE49F404BE86E7001EF70047C0080FB
:103C34001F851882851983E0FAEE2AFAEF3400FB17
:103C4400C3EA98EB94005003E08004EECCC39CFCE0
:103C5400EC850A82850B83F08C0A750B00780A12B6
:103C64001E45850C82850D83E02EFCA3E03F023ABD
:103C740012751007023A24EE4F6003023A2B850CAA
:103C840082850D83124057850A82850B837407F061
:103C940088828983123D44123D2CE085128285136B
:103CA40083F0E82402FAE93400FB8A828B83123D14
:103CB40044123D7D123D4CA3123D86123D55F0E861
:103CC4002405F8E93400F988828983123D55A3124A
:103CD4003D9EA3023BB2741D121C26123E3D70038E
:103CE400023A21124057880C890DE8450D700302F1
:103CF4003A218E108F117810121E45780A121E4533
:103D04007808121E457406121C26E0F9AC0EAD0F9D
:103D1400AA16AB17850C82850D83121C307406120B
:103D24001BF1E9F510023A24F088828983A322F575
:103D34000CEF3400F50D22E0F50E750F00780E221D
:103D4400E085088285098322123DA52212405BE8A2
:103D540022123DA5A3A322A3A3A3A3E0FEA3E0FFF5
:103D640022850C82850D83E0F8A3E0F5838882E048
:103D740022E0F508A3E0F50922A3A3F08A828B834D
:103D8400A322122A38A3A322F08A828B83123D95A0
:103D940022E0F50A750B00780A22123D2C123DA58B
:103DA40022E0850882850983A3A32274EE121C32C3
:103DB40074FE121BDB8A0A8B0BECFAEDFB741412F3
:103DC4001C26E0F510A3E0F5117416121C26E0FE83
:103DD4007418121C26E0F50EA3E0F50F85188285F1
:103DE4001983AC82AD83123E32603E8518828519F8
:103DF40083123E3D602FA3A3123D75E5084509607B
:103E040024780E121E457810121E45EEF9AC0CAD46
:103E14000DAA0AAB0B850882850983121C30740431
:103E2400121BF18006790E800279010232721207A8
:103E3400FA8A0C8B0DEA450D221234CA123E442232
:103E44001208CC8A828B83E58245832274F6121C85
:103E54003274FE121BDB740C121C26123D508518A2
:103E640082851983F07401121C26E9F0E4F508F543
:103E7400097808121E457508027808121E45740454
:103E8400121C268582088583097808121E451209AA
:103E9400207406121BF17402121BF1806474F71271
:103EA4001C32EAFEEBFF89087C5F7D03120938EAC5
:103EB4005402600BA908EEFAEFFB1207EE800279B8
:103EC4000102388E74F6121C3274FF6A700374FF98
:103ED4006B701C7B00EB75F003A4F8A9F0EC28F8D8
:103EE400ED39F9123F0A0BEBC39402501480E61229
:103EF40009088A088B09A808A909E8496003123F40
:103F04000A7F02021D048882898374FF122A36E420
:103F1400F02274F6121C321209088A828B83E5821D
:103F240045836006A3A3E0FA80027A007B0080D177
:103F340074F2121C328A088B09ECFEEDFF740E1227
:103F44001C26E0F50A123F7A701CEEFCEFFD7AFFA6
:103F54007BFF123F7A70047911801688828983E589
:103F640008F0A3E509F088828983A3A3E50AF07920
:103F7400007F06021D041209088A0C8B0DA80CA9E7
:103F84000DE8492274EE121C32EAFEEBFF8C088D18
:103F940009890C7412121C261240577414121C2620
:103FA4001238217416121C261234C6750D00EC4DFD
:103FB400600302404B7402650C6003024046888231
:103FC4008983123826F9EC2400F50EE439F50FEA5A
:103FD400F4F8EBF4F9EC58F8E50F59F9E849705D99
:103FE400E5082406F8E5093400F9880A890B888273
:103FF400F58312315B1209388A108B11E50E6510B6
:104004007004E50F65116042780E121E45850A8220
:10401400850B8312315B12093E7402121BF1E9F520
:104024000D7027780E121E45850882850983A3A387
:104034001231591209567402121BF1800D750D804C
:104044008008750D0D8003750D0BA90D02372C8E9C
:10405400828F8312405B22E0F8A3E0F92274E81215
:104064001C3274E7121BDB851882851983EAF0A3DE
:10407400EBF08C168D17890E7431121C26E0F512A4
:10408400A3E0F5137433121C26E0F514A3E0F51530
:104094007435121C26E0F50F750800750900E50952
:1040A40075F003A4F8A9F08518828519831241CB11
:1040B400E0F47003A3E0F470030241A9EE2402F5D6
:1040C4000CEF1241C1E070030241A985160A85175D
:1040D4000B780A121E45AC14AD15AA12AB131208C4
:1040E400C07402121BF18A0A8B0BEA450B7003029F
:1040F40041A9E4F510F5117810121E457406121C3E
:10410400268582108583117810121E457409121CAD
:10411400268582108583117810121E4585128285AA
:104124001383A3A3A3A3121E5C7914AC0AAD0B8E54
:10413400828F831241DF121BF1E97069850A82853F
:104144000B83A3A3A3A31240577402121C26123894
:1041540038850C82850D83E0A2E05018A90E740204
:10416400121C26AC82AD838E828F831234C6120851
:1041740012E94208850C82850D83E0A2E15026E510
:104184000FF50A780A121E49A90E7403121C26ACF4
:1041940082AD838E828F831234C612080C7401128E
:1041A4001BF1E942080509E509C3940250030240E2
:1041B400A2A9087419121BF17F10021D043400F522
:1041C4000D850C82F58322E028FEA3E039FF8E8260
:1041D4008F83227916850A82850B831234CA1209C9
:1041E4001A74082274F2121C32EAFEEBFF890B7473
:1041F40001650B600E7402650B70637901120B4844
:10420400E9705BEEFAEFFB1242656047750A0080C5
:104214000B7C177D0079001211D8050A90032CE05D
:10422400F8E50AC3985021E50A75F017A4F8A9F037
:10423400850882850983A3A3E028FAA3E039FB8AD1
:10424400828B83122B8770C985088285098374FF4A
:10425400F0A3F07C5F7D03EEFAEFFB120932023F1C
:10426400751209028A088B09EA45092274F2121CA4
:10427400328A088B09ECFEEDFF740E121C261239EB
:104284000D900D35E0F4603D7A097B001211EAEAE5
:104294004B60328A828B8374B1F0A3E4123D7FA316
:1042A400123D7DA3E508F0A3E5091242CCEEF0A38C
:1042B400EF1242CCA3A3E50AF0A3E50BF0900D3571
:1042C400E0F91211F6023F75F08A828B83A3A3A34F
:1042D400A3A322C082C0839061907404F0A37448A5
:1042E400F0A3E4F09061807440F09061BC7407F036
:1042F4009061877469F09061B67416F07900120CBD
:104304004A7902120C509028F4E493F46006E49382
:10431400F9120C267905120FA4024A28C082C08320
:10432400E9540FF9906185E0696012E5C654804450
:1043340049F5C6E59E547F644970F8E9F053C68098
:10434400E59E547F70FA024A2874F7121C32E5A8DD
:10435400FE53A87E120C32C2BA539AFEC289759BD0
:1043640000C2C2120C3875A91175B905120C3ED2DF
:10437400BA439A0174805E42A8024E1FC082C08371
:10438400906181E4F0A3024A2575E90075910075F6
:10439400BF00020135C082C083906181E4F0A37440
:1043A400C0F0A3E4024A27C082C08374F8121BDB66
:1043B40090040B124D02E849700302446290040B0E
:1043C400E0544060237908851882851983AA82AB5A
:1043D40083120D52851882851983AA82AB83120930
:1043E400D490040BE054BFF0E054806010790C7A50
:1043F400DE7B05120D5290040BE0547FF0E0A2E046
:104404005008790012446A54FEF0E05402600879BE
:104414000112446A54FDF0E0540460087900124427
:104424007554FBF0E054086008790112447554F7A0
:10443400F0E054106008790212447554EFF0E0542F
:10444400206008790312447554DFF0A3E05401603E
:104454000D120C5C1209E690040CE054FEF0740892
:10446400121BF1024A28120C4A1209DA90040BE0DA
:1044740022120C501209E090040BE022C082C08387
:10448400E9600514602A804F90619A7433F0A37434
:1044940055F09061A0743AF09005BAE06401700997
:1044A400C29190040D7467802D90040D7461802670
:1044B40090619A743FF0A3745AF09061A0747FF0F5
:1044C4009005BAE064017009D29190040D74718072
:1044D4000590040D746AF0024A28C082C083E96022
:1044E4000B14600D14600F14601180209028F88064
:1044F400159028F980109028FA800B9005BAE06492
:104504000160F39028FBE493906186F0024A2874DA
:10451400EE121C3274F4121BDB851882851983ACED
:1045240082AD837583927582647404121AEE9028A6
:10453400F893F460030246A5907808E0C39402500F
:10454400030246857404121C26AC82AD83758391E4
:104554007582FA7408121AEEF97AFF7BFF7FFF7EE8
:10456400008982858210801874086E700302463AAE
:1045740074096E700302463A740A6E700302463A76
:10458400E510C333FCE433FD7404121C26E5822CCD
:10459400F582E5833DF583E0F50EA3E0F50F8E0883
:1045A40075090074027808121BC874482508FC7445
:1045B400783509FD8C828D837808121AAB740878DB
:1045C400081219EC85080C85090D8C828D837808F6
:1045D400121AAB741878081219ECE50C4508F508A2
:1045E400E50DF509C3E50E9508E50F95098C828D57
:1045F400837808121AAB8C828D837808121AAB74F4
:1046040018780840141219ECE50C4508FCAD0DE5CA
:104614000EC39CFCE50F9D800F1219ECE50C4508B8
:10462400C3950EFCE50D950FFDC3EC9AED9B50066A
:10463400ECFAEDFBEEFF0EEEC39413500302456C4F
:1046440074FF6A700374FF6B602D8F08740278081E
:10465400121BC8744812538274783509F58378089C
:10466400121AAB851882851983E5822510F582E537
:104674008312523AE508F009E9C394045003024551
:104684005D7508017509007808121E457402121C34
:1046940026AC82AD837A3E7B0A1213D67402121BB7
:1046A400F1740C121BF17F0A021D04C082C08390B6
:1046B4006186E0F89028FBE4936870099028FAE496
:1046C40093906186F09061AE7468F0A3746AF09080
:1046D400624574FBF0A304F053F4FD43FE0290051D
:1046E400BA7401F09061A0E0643A70047900800229
:1046F4007901120C4A024A28C082C0839005ABE0BB
:10470400640170179005B1E0F87401686009E870FD
:104714000AA3E064017004790C8010900555E064EC
:1047240001700690055AE070EE7900024A28C082B2
:10473400C08375E1F1900558E0604B146008146083
:104744004F146047804F120C6E90054EE0F97A4F7B
:104754007B05120EFC909250121AC9124B1D121AAC
:10476400C9120F08900559E0F9120F147901120FBC
:104774009890054CE024161249357492F0A3740CF9
:10478400F07900024A28120C7480BE120C7A80B9A7
:10479400120C8080B4791280EA74F4121C3275D938
:1047A4000D90053DE0A2E0E4331313F812489F484E
:1047B4004401F5D978001248A940FB7800880874B0
:1047C4003E12538274051248B340F275E195900588
:1047D4003DE0F97A3E7B05120F02900D5774FCF010
:1047E400A3740B1248B9124B36741AF0A3740C124A
:1047F4004B4990054C124B827808121AAB90925494
:104804007808121A3790928C7808121A8590054C01
:10481400E0240E1249357808121ABA12492F74137B
:104824001249D77402F07F04021D0474F6121C327C
:10483400124895FA8AD978001248A940FB7800807A
:1048440006124924124C12E8C39940F51249C512C4
:1048540048A940FB7800800812537E7405124C125C
:10486400E8C39940F375E195900D577408F0A3746B
:104874000C1248B91248C3121AC990054CE0240E10
:10488400124935121AD512492F74121249D7024D02
:10489400FC90055EE0F9740729F5D990054EE0C453
:1048A400333354C0228808744F2508F582740512E6
:1048B4004D6E940622124B667402F0A3740C2212FD
:1048C4004B3CF0A3741AF0A3740C124B4D90929CC1
:1048D4002274F6121C321248954402F5D97800125B
:1048E40048A940FB78008006124924124C12E8C300
:1048F4009940F575E195900D57124944F0A312497A
:10490400441248C6121AC990054CE0240E124935C7
:10491400121AD512492F74141249D77404024DFE89
:104924008808745F2508F58274052290054CE024FC
:1049340014F8A3E012493C223400F98882898322C6
:104944007414124951124951F0A3740C22F0A37447
:104954000CF0A374142274F6121C32124895FA74E3
:10496400064AF5D978001248A940FB78008006125F
:104974004924124C12E8C39940F51249C51248A9BA
:1049840040FB7800800812537E7405124C12E8C371
:104994009940F375E195900D57740EF0A3740C12C1
:1049A4004B5F1248C3121AC990054CE0240E1249F9
:1049B40035121AD512492F74151249D77403024DB2
:1049C400FE90057EE0F9740729F5D974044AF5D9F7
:1049D400780022F090040922C082C0839005B57447
:1049E40025F09005B37401F0A3E4F07A01FB120FF3
:1049F400269005A1E02416124935749EF0A3740C88
:104A0400F09005B2E0640170169005B1E070107981
:104A140001120F80120F50120F7A7900120F8C803E
:104A240003F0A3F0D083D08202013574F6121C3255
:104A340074FA121BDB9005AAE064017008120C865C
:104A44009005AAE4F075E1F19005A1E0241512495E
:104A5400357401F09005ACE064017053909221C06C
:104A640082851882851983AC82AD83758392D08246
:104A74007406121AEE75D90D9005A31248A24403C8
:104A8400F5D97800880874A412538274051248B3C7
:104A940040F278008808851882851983E5821253CC
:104AA40082E5831248B340EC75E19579018002797F
:104AB40000120F2C900D5774C4F0A3740DF0A3745E
:104AC400CAF0A3740D124B2D124B2D124B36124B00
:104AD40042F0A374D0F0A3740D124B499005A3E0E7
:104AE400F97AA47B05120EFC124B247901120F32C1
:104AF400909250121AC9124B1D121AC9120F08793A
:104B040000120F989005A112493274161249D774F5
:104B140005F004121BF1024DFF120F4490927C2207
:104B24009005B5E0F912288222F0A374C4F0A374AE
:104B34000D22124B3CF0A322124B4022F0A374BE70
:104B4400F0A3740D22124B4D22F0900D65124B42CE
:104B5400124B6A124B42124B40F022124B66124B1C
:104B64004222124B6A22124B7774BEF0A3740D12C8
:104B74004B7722F0A374BEF0A3740DF0A322124B62
:104B84008622E0F8A3E0F5838882A3A322C082C032
:104B94008390054C124BFF024A2574F7121C321203
:104BA40056EFF8740439F9E82405FAE93400FB8A6D
:104BB400828B8312546788828983A3A3A3A3A3A3AC
:104BC400A3A3A3ECF0A3EDF088828983A3A3A3A3FA
:104BD400A3A3A3E024FFF8A3E034FFF98A828B8324
:104BE400E8F0A3E9F0024E1FC082C0839005A11231
:104BF4004BFFF0A3F0124B24024A28124B86A3A3C6
:104C0400A3A3E422880874BE2508F5827405125310
:104C14008EF5D90822EAFEEBFF9061D0E0F87480AB
:104C2400C398FAEE248322124C319404221252487F
:104C3400E0F5D90AEAC32274F6121C32EAFEEBFF4D
:104C44009061D0E0707575D90E75D90375D9047A61
:104C5400008A08EE25081257BD248C124CD440F16A
:104C64007A008A08EE25081257BD2484124C2B4082
:104C7400F175E1957908EE248C124CCD2484124C04
:104C8400C47C008C82AA82C3E49AF895E0F9EE28E9
:104C9400F8EF39F9E8248BF582E912538AC0E0EE83
:104CA4002A1257BD24ABF582E912523AD0E0F00C37
:104CB400ECC3940840CD124D8A80027900024DFF66
:104CC400FAEF3400FB120D4622124CC47904EE2292
:104CD400124C31940822C082C08375D90275D9035D
:104CE40075D90575E195EA2470F582EB124CFFEA5B
:104CF4002472F582EB124D9C024A2812524B124D3B
:104D04000622E0F8A3E0F92274F6121C32EAFEEB64
:104D1400FF9005BE7406124D78121E457C0179037E
:104D24001250A3121BF175D90675D9037800124DE0
:104D34005E40FB75E195900409E064087017EE2469
:104D440070F582EF124CFFEE2472F582EF12523AA4
:104D5400E8F0A3E9F07901024DFF880874BE250844
:104D6400F5827405124D6E94052212524BE0F5D96A
:104D740008E8C322F07508BE75090578082275E1B4
:104D8400957904120F4AEE2470F582EF12524B12F9
:104D94004D06EE2472F582EF12524BE8F0A3E9F0CF
:104DA40079012274F6121C32EAFEEBFF9061D0E026
:104DB400704279019005BE740B1249D7E064077004
:104DC400177508BE7509057808121E457C01090986
:104DD4001250A3121BF17905740129F5D975D90371
:104DE40078008003124C08E8C39940F875E19512E5
:104DF4004D8A8002790080037401F07F02021D0451
:104E040074F7121C32EAFEEBFF75D90375D90375EA
:104E1400D90DEE24DE124E24124D827F01021D04B0
:104E2400F582EF12538EF5D9227F03021D0474011B
:104E3400250AF5D975D90378002274F5121C3212AB
:104E44004EB36004780480027800E8240BF8EAC3C7
:104E5400984041750A099005BE7409F07908124E0C
:104E64009C60147508BE7509057808121E45125019
:104E74009B121BF1750A0D124E328003124C08E886
:104E8400C3950A40F775E1957904120F4A12501838
:104E94007901800279008091EE24E3FCEF3400FD77
:104EA4007ABF7B05120D40850882850983E02212B2
:104EB4004C19F8EF12545BF583E02274F3121C32A0
:104EC4008A088B091250AEFAE5082483F50AEB121E
:104ED4004F7D6004780480027800E82408F8EAC36F
:104EE400985003024F76750C069005BE740CF09032
:104EF4000426E09005BFF07402C0E0F97C277D042D
:104F04007AC07B05120D40D0E0F97C297D04120D96
:104F140040850A82850B83E0601C750ABE750B050B
:104F2400780A121E457C067903AA08AB091250A31D
:104F3400121BF1750C0A7401250CF5D975D9037887
:104F4400008009880A74BE250A124C0EE8C3950C29
:104F540040F175E1957904120F4AE5082470F58251
:104F6400E509124CFFE5082472F582E509124D9C0F
:104F7400800279007F05021D043400F50B850A8246
:104F8400F583E02274F6121C32EAFEEBFF1250AEF7
:104F9400FCEE2483F8EF1250A960047A0480027AAC
:104FA40000EA2404FAECC39A405E7A029005BEEA51
:104FB400F0EE24F5F582EF12502460197508BE75E1
:104FC40009057808121E457C027903EEFA1250A3F3
:104FD400121BF17A0674012AF5D975D90378008079
:104FE40003124C08E8C39A40F875E195EE24741254
:104FF4005011EE24801250111250187904120F4AE5
:10500400EE240D124D8D80027900024DFFF582EFE2
:1050140012519422EE241DF582EF125194A3F02232
:1050240012538E9005BFF088828983E02274F612B1
:105034001C321250AEFEEA2483F8EB1250A960042D
:105044007C0480027C00EC2404FCEEC39C40437C82
:10505400029005BE7407F0EA24F6F582EB125024A0
:1050640060157508BE7509057808121E4579031286
:1050740050A3121BF17C0674012CF5D975D9037861
:10508400008003124C08E8C39C40F875E19579014F
:1050940080027900024DFF7C097903EEFAEFFB12DE
:1050A4000DB274022212493CE0229061D0E0F874FF
:1050B40080C3982274F5121C32E9FEA2AFE433F5E2
:1050C4000AC2AF7F00EA246FF8EB3400F980010FC5
:1050D40088828983E0FCEFC39C50188F08EA250876
:1050E400FCEB3400FDEC246BF582ED12538A6E70F8
:1050F400DE8010EA2CFAEB3400FB125234EE12502C
:105104002A04F0E50AA2E092AF024E2D74F6121CB6
:1051140032A2AFE433FFC2AFEA246FF8EB1257BFF9
:10512400FCE9FD8C828D83E014F07E0080218E08E2
:10513400EA2508F8EB1257BF246CF582E912538A6A
:10514400C0E0E8246BF582E912523AD0E0F00E8C0C
:10515400828D83E0F8EEC39840D4EA246E1252376D
:1051640074FF125189EFA2E092AF024DFFC082C0DA
:1051740083E5A8F8C2AF125234E9125189E8A2E7D4
:1051840092AF024A28F0EA246AF582EB1251942283
:1051940012524BE4F02274F2121C328C828D83A3DF
:1051A400A3A3A3E0541FF0EA24361254F68E828F90
:1051B40083E4F0F50C850C8285820AEC250AF8ED6F
:1051C400125457F583E0C0E0EA250AF8EB12523E88
:1051D400D0E0F0750D00850882850983E0F50A7535
:1051E4000B00E50D780A121BA9E50AA2E0502AE596
:1051F4000C33333354F8250DC0E08E828F83E0F8EE
:10520400EA28F8EB1257BF2438F582E912523AD053
:10521400E0F08E828F83E004F0050DE50DC3940861
:1052240040B4050CE50CC39405408A7F06021D04B6
:10523400EA246BF582EB12524B223400F9E8245D28
:1052440012524822F582E93400F5832274F6121CC6
:1052540032900435E0640170077A007B0002537BCE
:105264007E0090043BE070F17401F0A3E4F0A3F03D
:1052740090049B04F090049EE4F0A3F09004A10435
:10528400F090043EE412539B90044804F090046EA2
:10529400E4F0909240121AC9900451121AD5900465
:1052A40055E4F0A3F0A3F09004B9F09004ADF090AD
:1052B40004A27480F0A3E4F09004A8F09004A0F099
:1052C40090052412539390052DF09004BCF09005A2
:1052D4000CF0A3F0909240121AC990050E121AD540
:1052E400909240121AC9900512121AD5900518E42A
:1052F400F090051AF0900516F09005301253938E35
:105304000874A4125382740412523A74FFF00EEE1D
:10531400C3940440EA7E008E82A882744428F582F5
:10532400740512538AC0E0749628F58274041252EC
:105334003AD0E0F00EEEC3940540DC7E008E82A8E5
:1053440082741D28F582740412538AC0E0741C28E8
:10535400F582740512523AD0E0F00EEEC394084080
:10536400DC900435E004F06401700890043DE090A2
:105374000437F07A397B04024DFF8808747F2508CE
:10538400F58222F582EF12538E2212524BE0221242
:10539400539BA312539B22F0A3F0A3F0A3F022C0CB
:1053A40082C083EA2403F582EB12538A6008E4F096
:1053B400900436E014F0900435E014F07006900484
:1053C4003774FFF08A828B83A3A3E4F0900549E04D
:1053D400700D900436E0640170057900120F1A0212
:1053E4004A28C082C08390043CE4F090043BF090CF
:1053F4000435F0A3F0A374FFF075E1F1024A28C06C
:1054040082C0837800790090043CE06004783979A4
:105414000488828983A3A3A3A3E0F9024A2874F62B
:10542400121C32EAFEEBFF120CF8EE2465F8EF12C0
:105434005457125465EC4D60109004371256E785AA
:105444000882850983E4F0A3F0EEFAEFFB120E0C58
:10545400024DFF12545B223400F9880889098882BE
:1054640022F583E0FCA3E0FD2274F7121C32EAFE6D
:10547400EBFF8E828F83A3A3A3A3E0FA7B00120A1F
:1054840052EEFAEFFB120D0A120DEE024E1F74F6E5
:10549400121C3278008808741D125382740412504E
:1054A4001408E8C3940840ED90041D024DFC74F602
:1054B400121C32EA240D1254F6EC2403F8ED3400E5
:1054C400F988088909EC2407F8ED1257BFFCE9FDB7
:1054D400125500121B508E828F83E8F0A3E9F0125C
:1054E4005500121B508B09EA45096003125513023B
:1054F4004DFFF8EB3400F9E8FEE9FF228C828D833E
:10550400124D06850882850983E0FAA3E0FB228E0A
:10551400828F83E02401F0A3E03400F02274F612B9
:105524001C32EA242EF582EB3400125465EA24700E
:105534001254F6780079FAECFAEDFB121B508E82C5
:105544008F83E8F0A3E9F0780079FAECFAEDFB1226
:105554001B508B09EA45096003125513024DFF7471
:10556400F0121C32EAFEEBFF7410121C26780812AB
:105574001AAB120EC68A0C8B0D8C0E8D0F9092589E
:10558400780C121A3790928C780C121A85780C12B7
:105594001E418E828F83124B82121AC912261F74E7
:1055A40004121BF1E9600302564B8E828F83E024C0
:1055B40002F8A3E01257BFFAE9FB8A828B837808CA
:1055C400121A4A90928C7808121AAB8A828B8378CA
:1055D40008121A98EE240BF582EF12523AC082C0D8
:1055E400838E828F83A3A3A3A3A3E02401F8A3E063
:1055F4003400F9D083D082E0687003A3E0697004BA
:1056040079018045EE2407F8EF12493C125517EE54
:1056140024741257C47014EE24751256527003A3E6
:10562400E06D70078A828B83125517EE248012571F
:10563400C47014EE24811256527003A3E06D7007F7
:105644008A828B8312551779007F08021D04FAEFB2
:105654003400FB8A828B83E0FCA3E0FD888289838B
:10566400E06C2274F3121C321256EFFE740439FFFC
:10567400EE2404F50AEF3400F50BEE2465F508EF8B
:105684003400F5098010125467850882850983E483
:10569400F0A3F01256E1850882850983125467EC61
:1056A4004D6030EE2464125387F50C780C121E49B9
:1056B400EE2463125387F9EEFAEFFB120D347401F2
:1056C400121BF1E985088285098360BA124D02E84C
:1056D4004970077C007D001256E1024F78850A82EA
:1056E400850B83E0FA7B00120A0A22900437E0F863
:1056F40075F004A4C8AAF02AF97439282274F212A5
:105704001C32EAFEEBFF890A740E121C26E0FAEE44
:1057140024621257C460030257B81250AEF50CEE5F
:105724002483125387FB600478048002780089087C
:10573400E928F8E41257BF24020808E93400F9E51F
:105744000C98E499A2D265D0334065EA7005750BD4
:10575400028003750B01EB60337509007808121E93
:10576400457ABE7B05120D7C7402121BF17508BECE
:105774007509057808121E45AC0AA90B12509F1230
:105784001BF17404250AF50A7CBE7D057401250A03
:10579400F5D9850BD97800800A8808EC125382ED7C
:1057A400124C12E8C3950A40F075E1957900800621
:1057B4007907800279FF02522FF8EF3400F9E822CA
:1057C400F582EF12538E640122C082C083800312DB
:1057D40057FBE9F874FF28190470F4ECFAEDFB02A6
:1057E4004A28C082C08380031257FBE9F874FF285B
:1057F400190470F4024A288C828D83E08A828B8398
:10580400F08C828D83A3AC82AD838A828B83A3AA1E
:1058140082AB832274F4121C32E9FF7E008A088B67
:10582400097808121E8900040DC9594B5867587C21
:10583400589158A658BB58D758F058025930595265
:10584400596E598A59A85974016F70128C828D83CC
:10585400E0C394035008E0900E21F00259E77E184B
:105864000259E774026F70F68C828D831261259061
:105874000E22E8F0A3E980E274016F70E18C828D5E
:1058840083E0C3940250D7E090081C80CD74016F6C
:1058940070CC8C828D83E0C3940550C2E090081DC7
:1058A40080B874016F70B78C828D83E0C39402500A
:1058B400ADE090081E80A374106F70A27508108E5E
:1058C400097808121E457A1F7B081264E9121BF13D
:1058D4000259E774016F70868C828D83E0C3940251
:1058E4004003025862E090082F02585E74016F6012
:1058F400030258628C828D83E0900E25808D74049F
:105904006F60030258629092987808121AAB8D83E4
:105914008C82780812160540030258628C828D83AB
:10592400121AC9900831121AD50259E7EF6003021E
:105934005862120746E9700E121364795012151456
:105944001213580259E79008C4740102585E740196
:105954006F60030258628C828D83E0C3940240031B
:10596400025862E090083002585E74016F600302CE
:1059740058628C828D83E0C3940A4003025862E02B
:10598400900E2402585E74016F60030258628C8288
:105994008D83E024F9C3940A4003025862E0900E18
:1059A4002602585E74016F60030258629008C3E0D7
:1059B400F88C828D83E09008C3F0E87026E06401DF
:1059C4007021025944C3EA9426EB940050137402E4
:1059D4006F700E8C828D8312611F1205E4E9FE80C4
:1059E400020E0EEEF90259F1740E121BF17F04023D
:1059F4001D0474F0121C3274CC121BDB8C0A8D0B48
:105A04007444121C26E0FE7420121C26AC82AD8362
:105A140075839275820F7406121AEE7420121C2676
:105A2400AC82AD8312130AE9F508C3940A40030259
:105A34005B5A75F006E9A4F5097426121C26AC829B
:105A4400AD837A0E742025091265A170097432128F
:105A54001C26E0FF80027F00900E21E064027004A7
:105A640074018001E4F50D780D121E49EEFDEFFC82
:105A7400A908AA0AAB0B12138E7401121BF17C1431
:105A84007D007900740C121C26AA82AB831211D8F3
:105A9400740C121C26AC82AD837A1074242509126E
:105AA40065A170377C1079FF740C121C261262CE2B
:105AB4007029741C121C26AC82AD837A04742525CB
:105AC40009F912150E740C121C26AC82AD83EFA2D8
:105AD400E0E433F9AA0AAB0B12066E851882851925
:105AE40083AC82AD837A0C747025081265A170555D
:105AF400851882851983AA82AB8312133A7508002C
:105B0400E50875F003A4F8A9F0851882851983E5E2
:105B14008228F8E58312630A12611FEC4D601D8828
:105B2400828983A3A3E0F50E750F00780E121E453B
